<20151019-00:00:01.053, FIX.4.2:GOLDMF->KGI, event>
  (Created session)
<20151019-00:00:01.054, FIX.4.2:GOLDMF->KGI, event>
  (Connecting to 192.168.210.46 on port 41160)
<20151019-00:00:01.066, FIX.4.2:GOLDMF->KGI, outgoing>
  (8=FIX.4.2|9=64|35=A|34=2|49=GOLDMF|52=20151019-00:00:01.066|56=KGI|98=0|108=10|10=129|)
<20151019-00:00:01.066, FIX.4.2:GOLDMF->KGI, event>
  (Initiated logon request)
<20151019-00:00:01.700, FIX.4.2:GOLDMF->KGI, incoming>
  (8=FIX.4.2|9=60|35=A|49=KGI|56=GOLDMF|34=1|52=20151019-00:00:02|108=10|98=0|10=179|)
<20151019-00:00:01.700, FIX.4.2:GOLDMF->KGI, event>
  (Received logon response)

Logon - FIX.4.2:GOLDMF->KGI
<20151019-00:00:01.905, FIX.4.2:GOLDMF->KGI, incoming>
  (8=FIX.4.2|9=57|35=2|49=KGI|56=GOLDMF|34=2|52=20151019-00:00:02|7=1|16=1|10=016|)
<20151019-00:00:01.905, FIX.4.2:GOLDMF->KGI, event>
  (Received ResendRequest FROM: 1 TO: 1)
<20151019-00:00:01.905, FIX.4.2:GOLDMF->KGI, outgoing>
  (8=FIX.4.2|9=94|35=4|34=1|43=Y|49=GOLDMF|52=20151019-00:00:01.905|56=KGI|122=20151019-00:00:01.905|36=2|123=Y|10=089|)
<20151019-00:00:01.905, FIX.4.2:GOLDMF->KGI, event>
  (Sent SequenceReset TO: 2)
<20151019-00:00:11.064, FIX.4.2:GOLDMF->KGI, outgoing>
  (8=FIX.4.2|9=52|35=0|34=3|49=GOLDMF|52=20151019-00:00:11.064|56=KGI|10=086|)
<20151019-00:00:11.698, FIX.4.2:GOLDMF->KGI, incoming>
  (8=FIX.4.2|9=48|35=0|49=KGI|56=GOLDMF|34=3|52=20151019-00:00:12|10=148|)
<20151019-00:00:21.074, FIX.4.2:GOLDMF->KGI, outgoing>
  (8=FIX.4.2|9=52|35=0|34=4|49=GOLDMF|52=20151019-00:00:21.074|56=KGI|10=089|)
<20151019-00:00:21.698, FIX.4.2:GOLDMF->KGI, incoming>
  (8=FIX.4.2|9=48|35=0|49=KGI|56=GOLDMF|34=4|52=20151019-00:00:22|10=150|)
<20151019-00:00:31.084, FIX.4.2:GOLDMF->KGI, outgoing>
  (8=FIX.4.2|9=52|35=0|34=5|49=GOLDMF|52=20151019-00:00:31.084|56=KGI|10=092|)
<20151019-00:00:31.699, FIX.4.2:GOLDMF->KGI, incoming>
  (8=FIX.4.2|9=48|35=0|49=KGI|56=GOLDMF|34=5|52=20151019-00:00:32|10=152|)
<20151019-00:00:41.094, FIX.4.2:GOLDMF->KGI, outgoing>
  (8=FIX.4.2|9=52|35=0|34=6|49=GOLDMF|52=20151019-00:00:41.094|56=KGI|10=095|)
<20151019-00:00:41.699, FIX.4.2:GOLDMF->KGI, incoming>
  (8=FIX.4.2|9=48|35=0|49=KGI|56=GOLDMF|34=6|52=20151019-00:00:42|10=154|)
<20151019-00:00:51.104, FIX.4.2:GOLDMF->KGI, outgoing>
  (8=FIX.4.2|9=52|35=0|34=7|49=GOLDMF|52=20151019-00:00:51.104|56=KGI|10=089|)
<20151019-00:00:51.699, FIX.4.2:GOLDMF->KGI, incoming>
  (8=FIX.4.2|9=48|35=0|49=KGI|56=GOLDMF|34=7|52=20151019-00:00:52|10=156|)
<20151019-00:01:01.114, FIX.4.2:GOLDMF->KGI, outgoing>
  (8=FIX.4.2|9=52|35=0|34=8|49=GOLDMF|52=20151019-00:01:01.114|56=KGI|10=087|)
<20151019-00:01:01.700, FIX.4.2:GOLDMF->KGI, incoming>
  (8=FIX.4.2|9=48|35=0|49=KGI|56=GOLDMF|34=8|52=20151019-00:01:02|10=153|)
<20151019-00:01:11.124, FIX.4.2:GOLDMF->KGI, outgoing>
  (8=FIX.4.2|9=52|35=0|34=9|49=GOLDMF|52=20151019-00:01:11.124|56=KGI|10=090|)
<20151019-00:01:11.700, FIX.4.2:GOLDMF->KGI, incoming>
  (8=FIX.4.2|9=48|35=0|49=KGI|56=GOLDMF|34=9|52=20151019-00:01:12|10=155|)
<20151019-00:01:21.134, FIX.4.2:GOLDMF->KGI, outgoing>
  (8=FIX.4.2|9=53|35=0|34=10|49=GOLDMF|52=20151019-00:01:21.134|56=KGI|10=133|)
<20151019-00:01:21.701, FIX.4.2:GOLDMF->KGI, incoming>
  (8=FIX.4.2|9=49|35=0|49=KGI|56=GOLDMF|34=10|52=20151019-00:01:22|10=197|)
<20151019-00:01:31.144, FIX.4.2:GOLDMF->KGI, outgoing>
  (8=FIX.4.2|9=53|35=0|34=11|49=GOLDMF|52=20151019-00:01:31.144|56=KGI|10=136|)
<20151019-00:01:31.701, FIX.4.2:GOLDMF->KGI, incoming>
  (8=FIX.4.2|9=49|35=0|49=KGI|56=GOLDMF|34=11|52=20151019-00:01:32|10=199|)
<20151019-00:01:41.154, FIX.4.2:GOLDMF->KGI, outgoing>
  (8=FIX.4.2|9=53|35=0|34=12|49=GOLDMF|52=20151019-00:01:41.154|56=KGI|10=139|)
<20151019-00:01:41.701, FIX.4.2:GOLDMF->KGI, incoming>
  (8=FIX.4.2|9=49|35=0|49=KGI|56=GOLDMF|34=12|52=20151019-00:01:42|10=201|)
<20151019-00:01:51.164, FIX.4.2:GOLDMF->KGI, outgoing>
  (8=FIX.4.2|9=53|35=0|34=13|49=GOLDMF|52=20151019-00:01:51.164|56=KGI|10=142|)
<20151019-00:01:51.702, FIX.4.2:GOLDMF->KGI, incoming>
  (8=FIX.4.2|9=49|35=0|49=KGI|56=GOLDMF|34=13|52=20151019-00:01:52|10=203|)
<20151019-00:02:01.174, FIX.4.2:GOLDMF->KGI, outgoing>
  (8=FIX.4.2|9=53|35=0|34=14|49=GOLDMF|52=20151019-00:02:01.174|56=KGI|10=140|)
<20151019-00:02:01.703, FIX.4.2:GOLDMF->KGI, incoming>
  (8=FIX.4.2|9=49|35=0|49=KGI|56=GOLDMF|34=14|52=20151019-00:02:02|10=200|)
<20151019-00:02:11.184, FIX.4.2:GOLDMF->KGI, outgoing>
  (8=FIX.4.2|9=53|35=0|34=15|49=GOLDMF|52=20151019-00:02:11.184|56=KGI|10=143|)
<20151019-00:02:11.703, FIX.4.2:GOLDMF->KGI, incoming>
  (8=FIX.4.2|9=49|35=0|49=KGI|56=GOLDMF|34=15|52=20151019-00:02:12|10=202|)
<20151019-00:02:21.194, FIX.4.2:GOLDMF->KGI, outgoing>
  (8=FIX.4.2|9=53|35=0|34=16|49=GOLDMF|52=20151019-00:02:21.194|56=KGI|10=146|)
<20151019-00:02:21.703, FIX.4.2:GOLDMF->KGI, incoming>
  (8=FIX.4.2|9=49|35=0|49=KGI|56=GOLDMF|34=16|52=20151019-00:02:22|10=204|)
<20151019-00:02:31.204, FIX.4.2:GOLDMF->KGI, outgoing>
  (8=FIX.4.2|9=53|35=0|34=17|49=GOLDMF|52=20151019-00:02:31.204|56=KGI|10=140|)
<20151019-00:02:31.704, FIX.4.2:GOLDMF->KGI, incoming>
  (8=FIX.4.2|9=49|35=0|49=KGI|56=GOLDMF|34=17|52=20151019-00:02:32|10=206|)
<20151019-00:02:41.214, FIX.4.2:GOLDMF->KGI, outgoing>
  (8=FIX.4.2|9=53|35=0|34=18|49=GOLDMF|52=20151019-00:02:41.214|56=KGI|10=143|)
<20151019-00:02:41.704, FIX.4.2:GOLDMF->KGI, incoming>
  (8=FIX.4.2|9=49|35=0|49=KGI|56=GOLDMF|34=18|52=20151019-00:02:42|10=208|)
<20151019-00:02:51.224, FIX.4.2:GOLDMF->KGI, outgoing>
  (8=FIX.4.2|9=53|35=0|34=19|49=GOLDMF|52=20151019-00:02:51.224|56=KGI|10=146|)
<20151019-00:02:51.704, FIX.4.2:GOLDMF->KGI, incoming>
  (8=FIX.4.2|9=49|35=0|49=KGI|56=GOLDMF|34=19|52=20151019-00:02:52|10=210|)
<20151019-00:03:01.234, FIX.4.2:GOLDMF->KGI, outgoing>
  (8=FIX.4.2|9=53|35=0|34=20|49=GOLDMF|52=20151019-00:03:01.234|56=KGI|10=135|)
<20151019-00:03:01.705, FIX.4.2:GOLDMF->KGI, incoming>
  (8=FIX.4.2|9=49|35=0|49=KGI|56=GOLDMF|34=20|52=20151019-00:03:02|10=198|)
<20151019-00:03:11.244, FIX.4.2:GOLDMF->KGI, outgoing>
  (8=FIX.4.2|9=53|35=0|34=21|49=GOLDMF|52=20151019-00:03:11.244|56=KGI|10=138|)
<20151019-00:03:11.705, FIX.4.2:GOLDMF->KGI, incoming>
  (8=FIX.4.2|9=49|35=0|49=KGI|56=GOLDMF|34=21|52=20151019-00:03:12|10=200|)
<20151019-00:03:21.255, FIX.4.2:GOLDMF->KGI, outgoing>
  (8=FIX.4.2|9=53|35=0|34=22|49=GOLDMF|52=20151019-00:03:21.254|56=KGI|10=141|)
<20151019-00:03:21.706, FIX.4.2:GOLDMF->KGI, incoming>
  (8=FIX.4.2|9=49|35=0|49=KGI|56=GOLDMF|34=22|52=20151019-00:03:22|10=202|)
<20151019-00:03:31.265, FIX.4.2:GOLDMF->KGI, outgoing>
  (8=FIX.4.2|9=53|35=0|34=23|49=GOLDMF|52=20151019-00:03:31.265|56=KGI|10=145|)
<20151019-00:03:31.706, FIX.4.2:GOLDMF->KGI, incoming>
  (8=FIX.4.2|9=49|35=0|49=KGI|56=GOLDMF|34=23|52=20151019-00:03:32|10=204|)
<20151019-00:03:41.275, FIX.4.2:GOLDMF->KGI, outgoing>
  (8=FIX.4.2|9=53|35=0|34=24|49=GOLDMF|52=20151019-00:03:41.275|56=KGI|10=148|)
<20151019-00:03:41.706, FIX.4.2:GOLDMF->KGI, incoming>
  (8=FIX.4.2|9=49|35=0|49=KGI|56=GOLDMF|34=24|52=20151019-00:03:42|10=206|)
<20151019-00:03:51.285, FIX.4.2:GOLDMF->KGI, outgoing>
  (8=FIX.4.2|9=53|35=0|34=25|49=GOLDMF|52=20151019-00:03:51.285|56=KGI|10=151|)
<20151019-00:03:51.706, FIX.4.2:GOLDMF->KGI, incoming>
  (8=FIX.4.2|9=49|35=0|49=KGI|56=GOLDMF|34=25|52=20151019-00:03:52|10=208|)
<20151019-00:04:01.295, FIX.4.2:GOLDMF->KGI, outgoing>
  (8=FIX.4.2|9=53|35=0|34=26|49=GOLDMF|52=20151019-00:04:01.295|56=KGI|10=149|)
<20151019-00:04:01.707, FIX.4.2:GOLDMF->KGI, incoming>
  (8=FIX.4.2|9=49|35=0|49=KGI|56=GOLDMF|34=26|52=20151019-00:04:02|10=205|)
<20151019-00:04:11.306, FIX.4.2:GOLDMF->KGI, outgoing>
  (8=FIX.4.2|9=53|35=0|34=27|49=GOLDMF|52=20151019-00:04:11.306|56=KGI|10=144|)
<20151019-00:04:11.707, FIX.4.2:GOLDMF->KGI, incoming>
  (8=FIX.4.2|9=49|35=0|49=KGI|56=GOLDMF|34=27|52=20151019-00:04:12|10=207|)
<20151019-00:04:21.316, FIX.4.2:GOLDMF->KGI, outgoing>
  (8=FIX.4.2|9=53|35=0|34=28|49=GOLDMF|52=20151019-00:04:21.316|56=KGI|10=147|)
<20151019-00:04:21.708, FIX.4.2:GOLDMF->KGI, incoming>
  (8=FIX.4.2|9=49|35=0|49=KGI|56=GOLDMF|34=28|52=20151019-00:04:22|10=209|)
<20151019-00:04:31.326, FIX.4.2:GOLDMF->KGI, outgoing>
  (8=FIX.4.2|9=53|35=0|34=29|49=GOLDMF|52=20151019-00:04:31.326|56=KGI|10=150|)
<20151019-00:04:31.708, FIX.4.2:GOLDMF->KGI, incoming>
  (8=FIX.4.2|9=49|35=0|49=KGI|56=GOLDMF|34=29|52=20151019-00:04:32|10=211|)
<20151019-00:04:41.336, FIX.4.2:GOLDMF->KGI, outgoing>
  (8=FIX.4.2|9=53|35=0|34=30|49=GOLDMF|52=20151019-00:04:41.336|56=KGI|10=144|)
<20151019-00:04:41.709, FIX.4.2:GOLDMF->KGI, incoming>
  (8=FIX.4.2|9=49|35=0|49=KGI|56=GOLDMF|34=30|52=20151019-00:04:42|10=204|)
<20151019-00:04:51.346, FIX.4.2:GOLDMF->KGI, outgoing>
  (8=FIX.4.2|9=53|35=0|34=31|49=GOLDMF|52=20151019-00:04:51.346|56=KGI|10=147|)
<20151019-00:04:51.709, FIX.4.2:GOLDMF->KGI, incoming>
  (8=FIX.4.2|9=49|35=0|49=KGI|56=GOLDMF|34=31|52=20151019-00:04:52|10=206|)
<20151019-00:05:01.357, FIX.4.2:GOLDMF->KGI, outgoing>
  (8=FIX.4.2|9=53|35=0|34=32|49=GOLDMF|52=20151019-00:05:01.357|56=KGI|10=146|)
<20151019-00:05:01.709, FIX.4.2:GOLDMF->KGI, incoming>
  (8=FIX.4.2|9=49|35=0|49=KGI|56=GOLDMF|34=32|52=20151019-00:05:02|10=203|)
<20151019-00:05:11.367, FIX.4.2:GOLDMF->KGI, outgoing>
  (8=FIX.4.2|9=53|35=0|34=33|49=GOLDMF|52=20151019-00:05:11.367|56=KGI|10=149|)
<20151019-00:05:11.710, FIX.4.2:GOLDMF->KGI, incoming>
  (8=FIX.4.2|9=49|35=0|49=KGI|56=GOLDMF|34=33|52=20151019-00:05:12|10=205|)
<20151019-00:05:21.377, FIX.4.2:GOLDMF->KGI, outgoing>
  (8=FIX.4.2|9=53|35=0|34=34|49=GOLDMF|52=20151019-00:05:21.377|56=KGI|10=152|)
<20151019-00:05:21.710, FIX.4.2:GOLDMF->KGI, incoming>
  (8=FIX.4.2|9=49|35=0|49=KGI|56=GOLDMF|34=34|52=20151019-00:05:22|10=207|)
<20151019-00:05:31.387, FIX.4.2:GOLDMF->KGI, outgoing>
  (8=FIX.4.2|9=53|35=0|34=35|49=GOLDMF|52=20151019-00:05:31.387|56=KGI|10=155|)
<20151019-00:05:31.711, FIX.4.2:GOLDMF->KGI, incoming>
  (8=FIX.4.2|9=49|35=0|49=KGI|56=GOLDMF|34=35|52=20151019-00:05:32|10=209|)
<20151019-00:05:41.397, FIX.4.2:GOLDMF->KGI, outgoing>
  (8=FIX.4.2|9=53|35=0|34=36|49=GOLDMF|52=20151019-00:05:41.397|56=KGI|10=158|)
<20151019-00:05:41.711, FIX.4.2:GOLDMF->KGI, incoming>
  (8=FIX.4.2|9=49|35=0|49=KGI|56=GOLDMF|34=36|52=20151019-00:05:42|10=211|)
<20151019-00:05:51.408, FIX.4.2:GOLDMF->KGI, outgoing>
  (8=FIX.4.2|9=53|35=0|34=37|49=GOLDMF|52=20151019-00:05:51.408|56=KGI|10=153|)
<20151019-00:05:51.712, FIX.4.2:GOLDMF->KGI, incoming>
  (8=FIX.4.2|9=49|35=0|49=KGI|56=GOLDMF|34=37|52=20151019-00:05:52|10=213|)
<20151019-00:06:01.418, FIX.4.2:GOLDMF->KGI, outgoing>
  (8=FIX.4.2|9=53|35=0|34=38|49=GOLDMF|52=20151019-00:06:01.418|56=KGI|10=151|)
<20151019-00:06:01.726, FIX.4.2:GOLDMF->KGI, incoming>
  (8=FIX.4.2|9=49|35=0|49=KGI|56=GOLDMF|34=38|52=20151019-00:06:02|10=210|)
<20151019-00:06:11.428, FIX.4.2:GOLDMF->KGI, outgoing>
  (8=FIX.4.2|9=53|35=0|34=39|49=GOLDMF|52=20151019-00:06:11.428|56=KGI|10=154|)
<20151019-00:06:11.712, FIX.4.2:GOLDMF->KGI, incoming>
  (8=FIX.4.2|9=49|35=0|49=KGI|56=GOLDMF|34=39|52=20151019-00:06:12|10=212|)
<20151019-00:06:21.438, FIX.4.2:GOLDMF->KGI, outgoing>
  (8=FIX.4.2|9=53|35=0|34=40|49=GOLDMF|52=20151019-00:06:21.438|56=KGI|10=148|)
<20151019-00:06:21.712, FIX.4.2:GOLDMF->KGI, incoming>
  (8=FIX.4.2|9=49|35=0|49=KGI|56=GOLDMF|34=40|52=20151019-00:06:22|10=205|)
<20151019-00:06:31.449, FIX.4.2:GOLDMF->KGI, outgoing>
  (8=FIX.4.2|9=53|35=0|34=41|49=GOLDMF|52=20151019-00:06:31.449|56=KGI|10=152|)
<20151019-00:06:31.713, FIX.4.2:GOLDMF->KGI, incoming>
  (8=FIX.4.2|9=49|35=0|49=KGI|56=GOLDMF|34=41|52=20151019-00:06:32|10=207|)
<20151019-00:06:41.459, FIX.4.2:GOLDMF->KGI, outgoing>
  (8=FIX.4.2|9=53|35=0|34=42|49=GOLDMF|52=20151019-00:06:41.459|56=KGI|10=155|)
<20151019-00:06:41.713, FIX.4.2:GOLDMF->KGI, incoming>
  (8=FIX.4.2|9=49|35=0|49=KGI|56=GOLDMF|34=42|52=20151019-00:06:42|10=209|)
<20151019-00:06:51.469, FIX.4.2:GOLDMF->KGI, outgoing>
  (8=FIX.4.2|9=53|35=0|34=43|49=GOLDMF|52=20151019-00:06:51.469|56=KGI|10=158|)
<20151019-00:06:51.714, FIX.4.2:GOLDMF->KGI, incoming>
  (8=FIX.4.2|9=49|35=0|49=KGI|56=GOLDMF|34=43|52=20151019-00:06:52|10=211|)
<20151019-00:07:01.480, FIX.4.2:GOLDMF->KGI, outgoing>
  (8=FIX.4.2|9=53|35=0|34=44|49=GOLDMF|52=20151019-00:07:01.480|56=KGI|10=148|)
<20151019-00:07:01.714, FIX.4.2:GOLDMF->KGI, incoming>
  (8=FIX.4.2|9=49|35=0|49=KGI|56=GOLDMF|34=44|52=20151019-00:07:02|10=208|)
<20151019-00:07:11.490, FIX.4.2:GOLDMF->KGI, outgoing>
  (8=FIX.4.2|9=53|35=0|34=45|49=GOLDMF|52=20151019-00:07:11.490|56=KGI|10=151|)
<20151019-00:07:11.714, FIX.4.2:GOLDMF->KGI, incoming>
  (8=FIX.4.2|9=49|35=0|49=KGI|56=GOLDMF|34=45|52=20151019-00:07:12|10=210|)
<20151019-00:07:21.501, FIX.4.2:GOLDMF->KGI, outgoing>
  (8=FIX.4.2|9=53|35=0|34=46|49=GOLDMF|52=20151019-00:07:21.501|56=KGI|10=146|)
<20151019-00:07:21.715, FIX.4.2:GOLDMF->KGI, incoming>
  (8=FIX.4.2|9=49|35=0|49=KGI|56=GOLDMF|34=46|52=20151019-00:07:22|10=212|)
<20151019-00:07:31.512, FIX.4.2:GOLDMF->KGI, outgoing>
  (8=FIX.4.2|9=53|35=0|34=47|49=GOLDMF|52=20151019-00:07:31.512|56=KGI|10=150|)
<20151019-00:07:31.715, FIX.4.2:GOLDMF->KGI, incoming>
  (8=FIX.4.2|9=49|35=0|49=KGI|56=GOLDMF|34=47|52=20151019-00:07:32|10=214|)
<20151019-00:07:41.522, FIX.4.2:GOLDMF->KGI, outgoing>
  (8=FIX.4.2|9=53|35=0|34=48|49=GOLDMF|52=20151019-00:07:41.522|56=KGI|10=153|)
<20151019-00:07:41.716, FIX.4.2:GOLDMF->KGI, incoming>
  (8=FIX.4.2|9=49|35=0|49=KGI|56=GOLDMF|34=48|52=20151019-00:07:42|10=216|)
<20151019-00:07:51.532, FIX.4.2:GOLDMF->KGI, outgoing>
  (8=FIX.4.2|9=53|35=0|34=49|49=GOLDMF|52=20151019-00:07:51.532|56=KGI|10=156|)
<20151019-00:07:51.716, FIX.4.2:GOLDMF->KGI, incoming>
  (8=FIX.4.2|9=49|35=0|49=KGI|56=GOLDMF|34=49|52=20151019-00:07:52|10=218|)
<20151019-00:08:01.542, FIX.4.2:GOLDMF->KGI, outgoing>
  (8=FIX.4.2|9=53|35=0|34=50|49=GOLDMF|52=20151019-00:08:01.542|56=KGI|10=145|)
<20151019-00:08:01.716, FIX.4.2:GOLDMF->KGI, incoming>
  (8=FIX.4.2|9=49|35=0|49=KGI|56=GOLDMF|34=50|52=20151019-00:08:02|10=206|)
<20151019-00:08:11.553, FIX.4.2:GOLDMF->KGI, outgoing>
  (8=FIX.4.2|9=53|35=0|34=51|49=GOLDMF|52=20151019-00:08:11.553|56=KGI|10=149|)
<20151019-00:08:11.717, FIX.4.2:GOLDMF->KGI, incoming>
  (8=FIX.4.2|9=49|35=0|49=KGI|56=GOLDMF|34=51|52=20151019-00:08:12|10=208|)
<20151019-00:08:21.563, FIX.4.2:GOLDMF->KGI, outgoing>
  (8=FIX.4.2|9=53|35=0|34=52|49=GOLDMF|52=20151019-00:08:21.563|56=KGI|10=152|)
<20151019-00:08:21.717, FIX.4.2:GOLDMF->KGI, incoming>
  (8=FIX.4.2|9=49|35=0|49=KGI|56=GOLDMF|34=52|52=20151019-00:08:22|10=210|)
<20151019-00:08:31.573, FIX.4.2:GOLDMF->KGI, outgoing>
  (8=FIX.4.2|9=53|35=0|34=53|49=GOLDMF|52=20151019-00:08:31.573|56=KGI|10=155|)
<20151019-00:08:31.718, FIX.4.2:GOLDMF->KGI, incoming>
  (8=FIX.4.2|9=49|35=0|49=KGI|56=GOLDMF|34=53|52=20151019-00:08:32|10=212|)
<20151019-00:08:41.583, FIX.4.2:GOLDMF->KGI, outgoing>
  (8=FIX.4.2|9=53|35=0|34=54|49=GOLDMF|52=20151019-00:08:41.583|56=KGI|10=158|)
<20151019-00:08:41.718, FIX.4.2:GOLDMF->KGI, incoming>
  (8=FIX.4.2|9=49|35=0|49=KGI|56=GOLDMF|34=54|52=20151019-00:08:42|10=214|)
<20151019-00:08:51.594, FIX.4.2:GOLDMF->KGI, outgoing>
  (8=FIX.4.2|9=53|35=0|34=55|49=GOLDMF|52=20151019-00:08:51.594|56=KGI|10=162|)
<20151019-00:08:51.719, FIX.4.2:GOLDMF->KGI, incoming>
  (8=FIX.4.2|9=49|35=0|49=KGI|56=GOLDMF|34=55|52=20151019-00:08:52|10=216|)
<20151019-00:09:01.604, FIX.4.2:GOLDMF->KGI, outgoing>
  (8=FIX.4.2|9=53|35=0|34=56|49=GOLDMF|52=20151019-00:09:01.604|56=KGI|10=151|)
<20151019-00:09:01.723, FIX.4.2:GOLDMF->KGI, incoming>
  (8=FIX.4.2|9=49|35=0|49=KGI|56=GOLDMF|34=56|52=20151019-00:09:02|10=213|)
<20151019-00:09:11.615, FIX.4.2:GOLDMF->KGI, outgoing>
  (8=FIX.4.2|9=53|35=0|34=57|49=GOLDMF|52=20151019-00:09:11.615|56=KGI|10=155|)
<20151019-00:09:11.719, FIX.4.2:GOLDMF->KGI, incoming>
  (8=FIX.4.2|9=49|35=0|49=KGI|56=GOLDMF|34=57|52=20151019-00:09:12|10=215|)
<20151019-00:09:21.625, FIX.4.2:GOLDMF->KGI, outgoing>
  (8=FIX.4.2|9=53|35=0|34=58|49=GOLDMF|52=20151019-00:09:21.625|56=KGI|10=158|)
<20151019-00:09:21.720, FIX.4.2:GOLDMF->KGI, incoming>
  (8=FIX.4.2|9=49|35=0|49=KGI|56=GOLDMF|34=58|52=20151019-00:09:22|10=217|)
<20151019-00:09:31.636, FIX.4.2:GOLDMF->KGI, outgoing>
  (8=FIX.4.2|9=53|35=0|34=59|49=GOLDMF|52=20151019-00:09:31.635|56=KGI|10=161|)
<20151019-00:09:31.720, FIX.4.2:GOLDMF->KGI, incoming>
  (8=FIX.4.2|9=49|35=0|49=KGI|56=GOLDMF|34=59|52=20151019-00:09:32|10=219|)
<20151019-00:09:41.646, FIX.4.2:GOLDMF->KGI, outgoing>
  (8=FIX.4.2|9=53|35=0|34=60|49=GOLDMF|52=20151019-00:09:41.646|56=KGI|10=156|)
<20151019-00:09:41.720, FIX.4.2:GOLDMF->KGI, incoming>
  (8=FIX.4.2|9=49|35=0|49=KGI|56=GOLDMF|34=60|52=20151019-00:09:42|10=212|)
<20151019-00:09:51.656, FIX.4.2:GOLDMF->KGI, outgoing>
  (8=FIX.4.2|9=53|35=0|34=61|49=GOLDMF|52=20151019-00:09:51.656|56=KGI|10=159|)
<20151019-00:09:51.720, FIX.4.2:GOLDMF->KGI, incoming>
  (8=FIX.4.2|9=49|35=0|49=KGI|56=GOLDMF|34=61|52=20151019-00:09:52|10=214|)
<20151019-00:10:01.666, FIX.4.2:GOLDMF->KGI, outgoing>
  (8=FIX.4.2|9=53|35=0|34=62|49=GOLDMF|52=20151019-00:10:01.666|56=KGI|10=148|)
<20151019-00:10:01.721, FIX.4.2:GOLDMF->KGI, incoming>
  (8=FIX.4.2|9=49|35=0|49=KGI|56=GOLDMF|34=62|52=20151019-00:10:02|10=202|)
<20151019-00:10:11.676, FIX.4.2:GOLDMF->KGI, outgoing>
  (8=FIX.4.2|9=53|35=0|34=63|49=GOLDMF|52=20151019-00:10:11.676|56=KGI|10=151|)
<20151019-00:10:11.721, FIX.4.2:GOLDMF->KGI, incoming>
  (8=FIX.4.2|9=49|35=0|49=KGI|56=GOLDMF|34=63|52=20151019-00:10:12|10=204|)
<20151019-00:10:21.687, FIX.4.2:GOLDMF->KGI, outgoing>
  (8=FIX.4.2|9=53|35=0|34=64|49=GOLDMF|52=20151019-00:10:21.687|56=KGI|10=155|)
<20151019-00:10:21.722, FIX.4.2:GOLDMF->KGI, incoming>
  (8=FIX.4.2|9=49|35=0|49=KGI|56=GOLDMF|34=64|52=20151019-00:10:22|10=206|)
<20151019-00:10:31.697, FIX.4.2:GOLDMF->KGI, outgoing>
  (8=FIX.4.2|9=53|35=0|34=65|49=GOLDMF|52=20151019-00:10:31.697|56=KGI|10=158|)
<20151019-00:10:31.722, FIX.4.2:GOLDMF->KGI, incoming>
  (8=FIX.4.2|9=49|35=0|49=KGI|56=GOLDMF|34=65|52=20151019-00:10:32|10=208|)
<20151019-00:10:41.707, FIX.4.2:GOLDMF->KGI, outgoing>
  (8=FIX.4.2|9=53|35=0|34=66|49=GOLDMF|52=20151019-00:10:41.707|56=KGI|10=152|)
<20151019-00:10:41.722, FIX.4.2:GOLDMF->KGI, incoming>
  (8=FIX.4.2|9=49|35=0|49=KGI|56=GOLDMF|34=66|52=20151019-00:10:42|10=210|)
<20151019-00:10:51.718, FIX.4.2:GOLDMF->KGI, outgoing>
  (8=FIX.4.2|9=53|35=0|34=67|49=GOLDMF|52=20151019-00:10:51.718|56=KGI|10=156|)
<20151019-00:10:51.723, FIX.4.2:GOLDMF->KGI, incoming>
  (8=FIX.4.2|9=49|35=0|49=KGI|56=GOLDMF|34=67|52=20151019-00:10:52|10=212|)
<20151019-00:11:01.723, FIX.4.2:GOLDMF->KGI, incoming>
  (8=FIX.4.2|9=49|35=0|49=KGI|56=GOLDMF|34=68|52=20151019-00:11:02|10=209|)
<20151019-00:11:01.724, FIX.4.2:GOLDMF->KGI, outgoing>
  (8=FIX.4.2|9=53|35=0|34=68|49=GOLDMF|52=20151019-00:11:01.724|56=KGI|10=150|)
<20151019-00:11:11.724, FIX.4.2:GOLDMF->KGI, incoming>
  (8=FIX.4.2|9=49|35=0|49=KGI|56=GOLDMF|34=69|52=20151019-00:11:12|10=211|)
<20151019-00:11:11.724, FIX.4.2:GOLDMF->KGI, outgoing>
  (8=FIX.4.2|9=53|35=0|34=69|49=GOLDMF|52=20151019-00:11:11.724|56=KGI|10=152|)
<20151019-00:11:21.725, FIX.4.2:GOLDMF->KGI, incoming>
  (8=FIX.4.2|9=49|35=0|49=KGI|56=GOLDMF|34=70|52=20151019-00:11:22|10=204|)
<20151019-00:11:21.725, FIX.4.2:GOLDMF->KGI, outgoing>
  (8=FIX.4.2|9=53|35=0|34=70|49=GOLDMF|52=20151019-00:11:21.725|56=KGI|10=146|)
<20151019-00:11:31.725, FIX.4.2:GOLDMF->KGI, incoming>
  (8=FIX.4.2|9=49|35=0|49=KGI|56=GOLDMF|34=71|52=20151019-00:11:32|10=206|)
<20151019-00:11:31.725, FIX.4.2:GOLDMF->KGI, outgoing>
  (8=FIX.4.2|9=53|35=0|34=71|49=GOLDMF|52=20151019-00:11:31.725|56=KGI|10=148|)
<20151019-00:11:41.725, FIX.4.2:GOLDMF->KGI, incoming>
  (8=FIX.4.2|9=49|35=0|49=KGI|56=GOLDMF|34=72|52=20151019-00:11:42|10=208|)
<20151019-00:11:41.725, FIX.4.2:GOLDMF->KGI, outgoing>
  (8=FIX.4.2|9=53|35=0|34=72|49=GOLDMF|52=20151019-00:11:41.725|56=KGI|10=150|)
<20151019-00:11:51.725, FIX.4.2:GOLDMF->KGI, incoming>
  (8=FIX.4.2|9=49|35=0|49=KGI|56=GOLDMF|34=73|52=20151019-00:11:52|10=210|)
<20151019-00:11:51.726, FIX.4.2:GOLDMF->KGI, outgoing>
  (8=FIX.4.2|9=53|35=0|34=73|49=GOLDMF|52=20151019-00:11:51.726|56=KGI|10=153|)
<20151019-00:12:01.726, FIX.4.2:GOLDMF->KGI, incoming>
  (8=FIX.4.2|9=49|35=0|49=KGI|56=GOLDMF|34=74|52=20151019-00:12:02|10=207|)
<20151019-00:12:01.726, FIX.4.2:GOLDMF->KGI, outgoing>
  (8=FIX.4.2|9=53|35=0|34=74|49=GOLDMF|52=20151019-00:12:01.726|56=KGI|10=150|)
<20151019-00:12:11.726, FIX.4.2:GOLDMF->KGI, incoming>
  (8=FIX.4.2|9=49|35=0|49=KGI|56=GOLDMF|34=75|52=20151019-00:12:12|10=209|)
<20151019-00:12:11.727, FIX.4.2:GOLDMF->KGI, outgoing>
  (8=FIX.4.2|9=53|35=0|34=75|49=GOLDMF|52=20151019-00:12:11.726|56=KGI|10=152|)
<20151019-00:12:21.727, FIX.4.2:GOLDMF->KGI, incoming>
  (8=FIX.4.2|9=49|35=0|49=KGI|56=GOLDMF|34=76|52=20151019-00:12:22|10=211|)
<20151019-00:12:21.727, FIX.4.2:GOLDMF->KGI, outgoing>
  (8=FIX.4.2|9=53|35=0|34=76|49=GOLDMF|52=20151019-00:12:21.727|56=KGI|10=155|)
<20151019-00:12:31.728, FIX.4.2:GOLDMF->KGI, incoming>
  (8=FIX.4.2|9=49|35=0|49=KGI|56=GOLDMF|34=77|52=20151019-00:12:32|10=213|)
<20151019-00:12:31.728, FIX.4.2:GOLDMF->KGI, outgoing>
  (8=FIX.4.2|9=53|35=0|34=77|49=GOLDMF|52=20151019-00:12:31.728|56=KGI|10=158|)
<20151019-00:12:41.728, FIX.4.2:GOLDMF->KGI, incoming>
  (8=FIX.4.2|9=49|35=0|49=KGI|56=GOLDMF|34=78|52=20151019-00:12:42|10=215|)
<20151019-00:12:41.728, FIX.4.2:GOLDMF->KGI, outgoing>
  (8=FIX.4.2|9=53|35=0|34=78|49=GOLDMF|52=20151019-00:12:41.728|56=KGI|10=160|)
<20151019-00:12:51.728, FIX.4.2:GOLDMF->KGI, incoming>
  (8=FIX.4.2|9=49|35=0|49=KGI|56=GOLDMF|34=79|52=20151019-00:12:52|10=217|)
<20151019-00:12:51.728, FIX.4.2:GOLDMF->KGI, outgoing>
  (8=FIX.4.2|9=53|35=0|34=79|49=GOLDMF|52=20151019-00:12:51.728|56=KGI|10=162|)
<20151019-00:13:01.729, FIX.4.2:GOLDMF->KGI, incoming>
  (8=FIX.4.2|9=49|35=0|49=KGI|56=GOLDMF|34=80|52=20151019-00:13:02|10=205|)
<20151019-00:13:01.729, FIX.4.2:GOLDMF->KGI, outgoing>
  (8=FIX.4.2|9=53|35=0|34=80|49=GOLDMF|52=20151019-00:13:01.729|56=KGI|10=151|)
<20151019-00:13:11.729, FIX.4.2:GOLDMF->KGI, incoming>
  (8=FIX.4.2|9=49|35=0|49=KGI|56=GOLDMF|34=81|52=20151019-00:13:12|10=207|)
<20151019-00:13:11.729, FIX.4.2:GOLDMF->KGI, outgoing>
  (8=FIX.4.2|9=53|35=0|34=81|49=GOLDMF|52=20151019-00:13:11.729|56=KGI|10=153|)
<20151019-00:13:21.730, FIX.4.2:GOLDMF->KGI, incoming>
  (8=FIX.4.2|9=49|35=0|49=KGI|56=GOLDMF|34=82|52=20151019-00:13:22|10=209|)
<20151019-00:13:21.730, FIX.4.2:GOLDMF->KGI, outgoing>
  (8=FIX.4.2|9=53|35=0|34=82|49=GOLDMF|52=20151019-00:13:21.730|56=KGI|10=147|)
<20151019-00:13:31.730, FIX.4.2:GOLDMF->KGI, incoming>
  (8=FIX.4.2|9=49|35=0|49=KGI|56=GOLDMF|34=83|52=20151019-00:13:32|10=211|)
<20151019-00:13:31.730, FIX.4.2:GOLDMF->KGI, outgoing>
  (8=FIX.4.2|9=53|35=0|34=83|49=GOLDMF|52=20151019-00:13:31.730|56=KGI|10=149|)
<20151019-00:13:41.731, FIX.4.2:GOLDMF->KGI, incoming>
  (8=FIX.4.2|9=49|35=0|49=KGI|56=GOLDMF|34=84|52=20151019-00:13:42|10=213|)
<20151019-00:13:41.731, FIX.4.2:GOLDMF->KGI, outgoing>
  (8=FIX.4.2|9=53|35=0|34=84|49=GOLDMF|52=20151019-00:13:41.731|56=KGI|10=152|)
<20151019-00:13:51.731, FIX.4.2:GOLDMF->KGI, incoming>
  (8=FIX.4.2|9=49|35=0|49=KGI|56=GOLDMF|34=85|52=20151019-00:13:52|10=215|)
<20151019-00:13:51.731, FIX.4.2:GOLDMF->KGI, outgoing>
  (8=FIX.4.2|9=53|35=0|34=85|49=GOLDMF|52=20151019-00:13:51.731|56=KGI|10=154|)
<20151019-00:14:01.731, FIX.4.2:GOLDMF->KGI, incoming>
  (8=FIX.4.2|9=49|35=0|49=KGI|56=GOLDMF|34=86|52=20151019-00:14:02|10=212|)
<20151019-00:14:01.732, FIX.4.2:GOLDMF->KGI, outgoing>
  (8=FIX.4.2|9=53|35=0|34=86|49=GOLDMF|52=20151019-00:14:01.732|56=KGI|10=152|)
<20151019-00:14:11.732, FIX.4.2:GOLDMF->KGI, incoming>
  (8=FIX.4.2|9=49|35=0|49=KGI|56=GOLDMF|34=87|52=20151019-00:14:12|10=214|)
<20151019-00:14:11.732, FIX.4.2:GOLDMF->KGI, outgoing>
  (8=FIX.4.2|9=53|35=0|34=87|49=GOLDMF|52=20151019-00:14:11.732|56=KGI|10=154|)
<20151019-00:14:21.733, FIX.4.2:GOLDMF->KGI, incoming>
  (8=FIX.4.2|9=49|35=0|49=KGI|56=GOLDMF|34=88|52=20151019-00:14:22|10=216|)
<20151019-00:14:21.733, FIX.4.2:GOLDMF->KGI, outgoing>
  (8=FIX.4.2|9=53|35=0|34=88|49=GOLDMF|52=20151019-00:14:21.733|56=KGI|10=157|)
<20151019-00:14:31.733, FIX.4.2:GOLDMF->KGI, incoming>
  (8=FIX.4.2|9=49|35=0|49=KGI|56=GOLDMF|34=89|52=20151019-00:14:32|10=218|)
<20151019-00:14:31.733, FIX.4.2:GOLDMF->KGI, outgoing>
  (8=FIX.4.2|9=53|35=0|34=89|49=GOLDMF|52=20151019-00:14:31.733|56=KGI|10=159|)
<20151019-00:14:41.733, FIX.4.2:GOLDMF->KGI, incoming>
  (8=FIX.4.2|9=49|35=0|49=KGI|56=GOLDMF|34=90|52=20151019-00:14:42|10=211|)
<20151019-00:14:41.733, FIX.4.2:GOLDMF->KGI, outgoing>
  (8=FIX.4.2|9=53|35=0|34=90|49=GOLDMF|52=20151019-00:14:41.733|56=KGI|10=152|)
<20151019-00:14:51.733, FIX.4.2:GOLDMF->KGI, incoming>
  (8=FIX.4.2|9=49|35=0|49=KGI|56=GOLDMF|34=91|52=20151019-00:14:52|10=213|)
<20151019-00:14:51.733, FIX.4.2:GOLDMF->KGI, outgoing>
  (8=FIX.4.2|9=53|35=0|34=91|49=GOLDMF|52=20151019-00:14:51.733|56=KGI|10=154|)
<20151019-00:15:01.734, FIX.4.2:GOLDMF->KGI, incoming>
  (8=FIX.4.2|9=49|35=0|49=KGI|56=GOLDMF|34=92|52=20151019-00:15:02|10=210|)
<20151019-00:15:01.734, FIX.4.2:GOLDMF->KGI, outgoing>
  (8=FIX.4.2|9=53|35=0|34=92|49=GOLDMF|52=20151019-00:15:01.734|56=KGI|10=152|)
<20151019-00:15:11.734, FIX.4.2:GOLDMF->KGI, incoming>
  (8=FIX.4.2|9=49|35=0|49=KGI|56=GOLDMF|34=93|52=20151019-00:15:12|10=212|)
<20151019-00:15:11.735, FIX.4.2:GOLDMF->KGI, outgoing>
  (8=FIX.4.2|9=53|35=0|34=93|49=GOLDMF|52=20151019-00:15:11.735|56=KGI|10=155|)
<20151019-00:15:21.735, FIX.4.2:GOLDMF->KGI, incoming>
  (8=FIX.4.2|9=49|35=0|49=KGI|56=GOLDMF|34=94|52=20151019-00:15:22|10=214|)
<20151019-00:15:21.735, FIX.4.2:GOLDMF->KGI, outgoing>
  (8=FIX.4.2|9=53|35=0|34=94|49=GOLDMF|52=20151019-00:15:21.735|56=KGI|10=157|)
<20151019-00:15:31.735, FIX.4.2:GOLDMF->KGI, incoming>
  (8=FIX.4.2|9=49|35=0|49=KGI|56=GOLDMF|34=95|52=20151019-00:15:32|10=216|)
<20151019-00:15:31.735, FIX.4.2:GOLDMF->KGI, outgoing>
  (8=FIX.4.2|9=53|35=0|34=95|49=GOLDMF|52=20151019-00:15:31.735|56=KGI|10=159|)
<20151019-00:15:41.736, FIX.4.2:GOLDMF->KGI, incoming>
  (8=FIX.4.2|9=49|35=0|49=KGI|56=GOLDMF|34=96|52=20151019-00:15:42|10=218|)
<20151019-00:15:41.736, FIX.4.2:GOLDMF->KGI, outgoing>
  (8=FIX.4.2|9=53|35=0|34=96|49=GOLDMF|52=20151019-00:15:41.736|56=KGI|10=162|)
<20151019-00:15:51.008, FIX.4.2:GOLDMF->KGI, outgoing>
  (8=FIX.4.2|9=53|35=0|34=97|49=GOLDMF|52=20151019-00:15:51.008|56=KGI|10=156|)
<20151019-00:15:51.736, FIX.4.2:GOLDMF->KGI, incoming>
  (8=FIX.4.2|9=49|35=0|49=KGI|56=GOLDMF|34=97|52=20151019-00:15:52|10=220|)
<20151019-00:16:01.018, FIX.4.2:GOLDMF->KGI, outgoing>
  (8=FIX.4.2|9=53|35=0|34=98|49=GOLDMF|52=20151019-00:16:01.018|56=KGI|10=154|)
<20151019-00:16:01.737, FIX.4.2:GOLDMF->KGI, incoming>
  (8=FIX.4.2|9=49|35=0|49=KGI|56=GOLDMF|34=98|52=20151019-00:16:02|10=217|)
<20151019-00:16:11.028, FIX.4.2:GOLDMF->KGI, outgoing>
  (8=FIX.4.2|9=53|35=0|34=99|49=GOLDMF|52=20151019-00:16:11.028|56=KGI|10=157|)
<20151019-00:16:11.737, FIX.4.2:GOLDMF->KGI, incoming>
  (8=FIX.4.2|9=49|35=0|49=KGI|56=GOLDMF|34=99|52=20151019-00:16:12|10=219|)
<20151019-00:16:21.038, FIX.4.2:GOLDMF->KGI, outgoing>
  (8=FIX.4.2|9=54|35=0|34=100|49=GOLDMF|52=20151019-00:16:21.038|56=KGI|10=191|)
<20151019-00:16:21.738, FIX.4.2:GOLDMF->KGI, incoming>
  (8=FIX.4.2|9=50|35=0|49=KGI|56=GOLDMF|34=100|52=20151019-00:16:22|10=243|)
<20151019-00:16:31.048, FIX.4.2:GOLDMF->KGI, outgoing>
  (8=FIX.4.2|9=54|35=0|34=101|49=GOLDMF|52=20151019-00:16:31.048|56=KGI|10=194|)
<20151019-00:16:31.739, FIX.4.2:GOLDMF->KGI, incoming>
  (8=FIX.4.2|9=50|35=0|49=KGI|56=GOLDMF|34=101|52=20151019-00:16:32|10=245|)
<20151019-00:16:41.058, FIX.4.2:GOLDMF->KGI, outgoing>
  (8=FIX.4.2|9=54|35=0|34=102|49=GOLDMF|52=20151019-00:16:41.058|56=KGI|10=197|)
<20151019-00:16:41.739, FIX.4.2:GOLDMF->KGI, incoming>
  (8=FIX.4.2|9=50|35=0|49=KGI|56=GOLDMF|34=102|52=20151019-00:16:42|10=247|)
<20151019-00:16:51.068, FIX.4.2:GOLDMF->KGI, outgoing>
  (8=FIX.4.2|9=54|35=0|34=103|49=GOLDMF|52=20151019-00:16:51.068|56=KGI|10=200|)
<20151019-00:16:51.740, FIX.4.2:GOLDMF->KGI, incoming>
  (8=FIX.4.2|9=50|35=0|49=KGI|56=GOLDMF|34=103|52=20151019-00:16:51|10=248|)
<20151019-00:17:01.078, FIX.4.2:GOLDMF->KGI, outgoing>
  (8=FIX.4.2|9=54|35=0|34=104|49=GOLDMF|52=20151019-00:17:01.078|56=KGI|10=198|)
<20151019-00:17:01.740, FIX.4.2:GOLDMF->KGI, incoming>
  (8=FIX.4.2|9=50|35=0|49=KGI|56=GOLDMF|34=104|52=20151019-00:17:01|10=245|)
<20151019-00:17:11.088, FIX.4.2:GOLDMF->KGI, outgoing>
  (8=FIX.4.2|9=54|35=0|34=105|49=GOLDMF|52=20151019-00:17:11.088|56=KGI|10=201|)
<20151019-00:17:11.740, FIX.4.2:GOLDMF->KGI, incoming>
  (8=FIX.4.2|9=50|35=0|49=KGI|56=GOLDMF|34=105|52=20151019-00:17:11|10=247|)
<20151019-00:17:21.098, FIX.4.2:GOLDMF->KGI, outgoing>
  (8=FIX.4.2|9=54|35=0|34=106|49=GOLDMF|52=20151019-00:17:21.098|56=KGI|10=204|)
<20151019-00:17:21.741, FIX.4.2:GOLDMF->KGI, incoming>
  (8=FIX.4.2|9=50|35=0|49=KGI|56=GOLDMF|34=106|52=20151019-00:17:21|10=249|)
<20151019-00:17:31.108, FIX.4.2:GOLDMF->KGI, outgoing>
  (8=FIX.4.2|9=54|35=0|34=107|49=GOLDMF|52=20151019-00:17:31.108|56=KGI|10=198|)
<20151019-00:17:31.742, FIX.4.2:GOLDMF->KGI, incoming>
  (8=FIX.4.2|9=50|35=0|49=KGI|56=GOLDMF|34=107|52=20151019-00:17:31|10=251|)
<20151019-00:17:41.118, FIX.4.2:GOLDMF->KGI, outgoing>
  (8=FIX.4.2|9=54|35=0|34=108|49=GOLDMF|52=20151019-00:17:41.118|56=KGI|10=201|)
<20151019-00:17:41.742, FIX.4.2:GOLDMF->KGI, incoming>
  (8=FIX.4.2|9=50|35=0|49=KGI|56=GOLDMF|34=108|52=20151019-00:17:41|10=253|)
<20151019-00:17:51.128, FIX.4.2:GOLDMF->KGI, outgoing>
  (8=FIX.4.2|9=54|35=0|34=109|49=GOLDMF|52=20151019-00:17:51.128|56=KGI|10=204|)
<20151019-00:17:51.742, FIX.4.2:GOLDMF->KGI, incoming>
  (8=FIX.4.2|9=50|35=0|49=KGI|56=GOLDMF|34=109|52=20151019-00:17:51|10=255|)
<20151019-00:18:01.138, FIX.4.2:GOLDMF->KGI, outgoing>
  (8=FIX.4.2|9=54|35=0|34=110|49=GOLDMF|52=20151019-00:18:01.138|56=KGI|10=193|)
<20151019-00:18:01.743, FIX.4.2:GOLDMF->KGI, incoming>
  (8=FIX.4.2|9=50|35=0|49=KGI|56=GOLDMF|34=110|52=20151019-00:18:01|10=243|)
<20151019-00:18:11.147, FIX.4.2:GOLDMF->KGI, outgoing>
  (8=FIX.4.2|9=54|35=0|34=111|49=GOLDMF|52=20151019-00:18:11.147|56=KGI|10=195|)
<20151019-00:18:11.743, FIX.4.2:GOLDMF->KGI, incoming>
  (8=FIX.4.2|9=50|35=0|49=KGI|56=GOLDMF|34=111|52=20151019-00:18:11|10=245|)
<20151019-00:18:21.157, FIX.4.2:GOLDMF->KGI, outgoing>
  (8=FIX.4.2|9=54|35=0|34=112|49=GOLDMF|52=20151019-00:18:21.157|56=KGI|10=198|)
<20151019-00:18:21.743, FIX.4.2:GOLDMF->KGI, incoming>
  (8=FIX.4.2|9=50|35=0|49=KGI|56=GOLDMF|34=112|52=20151019-00:18:21|10=247|)
<20151019-00:18:31.167, FIX.4.2:GOLDMF->KGI, outgoing>
  (8=FIX.4.2|9=54|35=0|34=113|49=GOLDMF|52=20151019-00:18:31.167|56=KGI|10=201|)
<20151019-00:18:31.744, FIX.4.2:GOLDMF->KGI, incoming>
  (8=FIX.4.2|9=50|35=0|49=KGI|56=GOLDMF|34=113|52=20151019-00:18:31|10=249|)
<20151019-00:18:41.177, FIX.4.2:GOLDMF->KGI, outgoing>
  (8=FIX.4.2|9=54|35=0|34=114|49=GOLDMF|52=20151019-00:18:41.177|56=KGI|10=204|)
<20151019-00:18:41.744, FIX.4.2:GOLDMF->KGI, incoming>
  (8=FIX.4.2|9=50|35=0|49=KGI|56=GOLDMF|34=114|52=20151019-00:18:41|10=251|)
<20151019-00:18:51.187, FIX.4.2:GOLDMF->KGI, outgoing>
  (8=FIX.4.2|9=54|35=0|34=115|49=GOLDMF|52=20151019-00:18:51.187|56=KGI|10=207|)
<20151019-00:18:51.745, FIX.4.2:GOLDMF->KGI, incoming>
  (8=FIX.4.2|9=50|35=0|49=KGI|56=GOLDMF|34=115|52=20151019-00:18:51|10=253|)
<20151019-00:19:01.196, FIX.4.2:GOLDMF->KGI, outgoing>
  (8=FIX.4.2|9=54|35=0|34=116|49=GOLDMF|52=20151019-00:19:01.196|56=KGI|10=204|)
<20151019-00:19:01.745, FIX.4.2:GOLDMF->KGI, incoming>
  (8=FIX.4.2|9=50|35=0|49=KGI|56=GOLDMF|34=116|52=20151019-00:19:01|10=250|)
<20151019-00:19:11.206, FIX.4.2:GOLDMF->KGI, outgoing>
  (8=FIX.4.2|9=54|35=0|34=117|49=GOLDMF|52=20151019-00:19:11.206|56=KGI|10=198|)
<20151019-00:19:11.745, FIX.4.2:GOLDMF->KGI, incoming>
  (8=FIX.4.2|9=50|35=0|49=KGI|56=GOLDMF|34=117|52=20151019-00:19:11|10=252|)
<20151019-00:19:21.216, FIX.4.2:GOLDMF->KGI, outgoing>
  (8=FIX.4.2|9=54|35=0|34=118|49=GOLDMF|52=20151019-00:19:21.216|56=KGI|10=201|)
<20151019-00:19:21.745, FIX.4.2:GOLDMF->KGI, incoming>
  (8=FIX.4.2|9=50|35=0|49=KGI|56=GOLDMF|34=118|52=20151019-00:19:21|10=254|)
<20151019-00:19:31.226, FIX.4.2:GOLDMF->KGI, outgoing>
  (8=FIX.4.2|9=54|35=0|34=119|49=GOLDMF|52=20151019-00:19:31.226|56=KGI|10=204|)
<20151019-00:19:31.746, FIX.4.2:GOLDMF->KGI, incoming>
  (8=FIX.4.2|9=50|35=0|49=KGI|56=GOLDMF|34=119|52=20151019-00:19:31|10=000|)
<20151019-00:19:41.236, FIX.4.2:GOLDMF->KGI, outgoing>
  (8=FIX.4.2|9=54|35=0|34=120|49=GOLDMF|52=20151019-00:19:41.236|56=KGI|10=198|)
<20151019-00:19:41.747, FIX.4.2:GOLDMF->KGI, incoming>
  (8=FIX.4.2|9=50|35=0|49=KGI|56=GOLDMF|34=120|52=20151019-00:19:41|10=249|)
<20151019-00:19:51.246, FIX.4.2:GOLDMF->KGI, outgoing>
  (8=FIX.4.2|9=54|35=0|34=121|49=GOLDMF|52=20151019-00:19:51.246|56=KGI|10=201|)
<20151019-00:19:51.747, FIX.4.2:GOLDMF->KGI, incoming>
  (8=FIX.4.2|9=50|35=0|49=KGI|56=GOLDMF|34=121|52=20151019-00:19:52|10=252|)
<20151019-00:20:01.256, FIX.4.2:GOLDMF->KGI, outgoing>
  (8=FIX.4.2|9=54|35=0|34=122|49=GOLDMF|52=20151019-00:20:01.256|56=KGI|10=190|)
<20151019-00:20:01.747, FIX.4.2:GOLDMF->KGI, incoming>
  (8=FIX.4.2|9=50|35=0|49=KGI|56=GOLDMF|34=122|52=20151019-00:20:02|10=240|)
<20151019-00:20:11.266, FIX.4.2:GOLDMF->KGI, outgoing>
  (8=FIX.4.2|9=54|35=0|34=123|49=GOLDMF|52=20151019-00:20:11.266|56=KGI|10=193|)
<20151019-00:20:11.748, FIX.4.2:GOLDMF->KGI, incoming>
  (8=FIX.4.2|9=50|35=0|49=KGI|56=GOLDMF|34=123|52=20151019-00:20:12|10=242|)
<20151019-00:20:21.276, FIX.4.2:GOLDMF->KGI, outgoing>
  (8=FIX.4.2|9=54|35=0|34=124|49=GOLDMF|52=20151019-00:20:21.276|56=KGI|10=196|)
<20151019-00:20:21.748, FIX.4.2:GOLDMF->KGI, incoming>
  (8=FIX.4.2|9=50|35=0|49=KGI|56=GOLDMF|34=124|52=20151019-00:20:22|10=244|)
<20151019-00:20:31.286, FIX.4.2:GOLDMF->KGI, outgoing>
  (8=FIX.4.2|9=54|35=0|34=125|49=GOLDMF|52=20151019-00:20:31.286|56=KGI|10=199|)
<20151019-00:20:31.748, FIX.4.2:GOLDMF->KGI, incoming>
  (8=FIX.4.2|9=50|35=0|49=KGI|56=GOLDMF|34=125|52=20151019-00:20:32|10=246|)
<20151019-00:20:41.296, FIX.4.2:GOLDMF->KGI, outgoing>
  (8=FIX.4.2|9=54|35=0|34=126|49=GOLDMF|52=20151019-00:20:41.296|56=KGI|10=202|)
<20151019-00:20:41.749, FIX.4.2:GOLDMF->KGI, incoming>
  (8=FIX.4.2|9=50|35=0|49=KGI|56=GOLDMF|34=126|52=20151019-00:20:42|10=248|)
<20151019-00:20:51.306, FIX.4.2:GOLDMF->KGI, outgoing>
  (8=FIX.4.2|9=54|35=0|34=127|49=GOLDMF|52=20151019-00:20:51.306|56=KGI|10=196|)
<20151019-00:20:51.749, FIX.4.2:GOLDMF->KGI, incoming>
  (8=FIX.4.2|9=50|35=0|49=KGI|56=GOLDMF|34=127|52=20151019-00:20:52|10=250|)
<20151019-00:21:01.316, FIX.4.2:GOLDMF->KGI, outgoing>
  (8=FIX.4.2|9=54|35=0|34=128|49=GOLDMF|52=20151019-00:21:01.316|56=KGI|10=194|)
<20151019-00:21:01.749, FIX.4.2:GOLDMF->KGI, incoming>
  (8=FIX.4.2|9=50|35=0|49=KGI|56=GOLDMF|34=128|52=20151019-00:21:02|10=247|)
<20151019-00:21:11.327, FIX.4.2:GOLDMF->KGI, outgoing>
  (8=FIX.4.2|9=54|35=0|34=129|49=GOLDMF|52=20151019-00:21:11.327|56=KGI|10=198|)
<20151019-00:21:11.750, FIX.4.2:GOLDMF->KGI, incoming>
  (8=FIX.4.2|9=50|35=0|49=KGI|56=GOLDMF|34=129|52=20151019-00:21:12|10=249|)
<20151019-00:21:21.337, FIX.4.2:GOLDMF->KGI, outgoing>
  (8=FIX.4.2|9=54|35=0|34=130|49=GOLDMF|52=20151019-00:21:21.337|56=KGI|10=192|)
<20151019-00:21:21.750, FIX.4.2:GOLDMF->KGI, incoming>
  (8=FIX.4.2|9=50|35=0|49=KGI|56=GOLDMF|34=130|52=20151019-00:21:22|10=242|)
<20151019-00:21:31.347, FIX.4.2:GOLDMF->KGI, outgoing>
  (8=FIX.4.2|9=54|35=0|34=131|49=GOLDMF|52=20151019-00:21:31.347|56=KGI|10=195|)
<20151019-00:21:31.751, FIX.4.2:GOLDMF->KGI, incoming>
  (8=FIX.4.2|9=50|35=0|49=KGI|56=GOLDMF|34=131|52=20151019-00:21:32|10=244|)
<20151019-00:21:41.357, FIX.4.2:GOLDMF->KGI, outgoing>
  (8=FIX.4.2|9=54|35=0|34=132|49=GOLDMF|52=20151019-00:21:41.357|56=KGI|10=198|)
<20151019-00:21:41.751, FIX.4.2:GOLDMF->KGI, incoming>
  (8=FIX.4.2|9=50|35=0|49=KGI|56=GOLDMF|34=132|52=20151019-00:21:42|10=246|)
<20151019-00:21:51.367, FIX.4.2:GOLDMF->KGI, outgoing>
  (8=FIX.4.2|9=54|35=0|34=133|49=GOLDMF|52=20151019-00:21:51.367|56=KGI|10=201|)
<20151019-00:21:51.754, FIX.4.2:GOLDMF->KGI, incoming>
  (8=FIX.4.2|9=50|35=0|49=KGI|56=GOLDMF|34=133|52=20151019-00:21:52|10=248|)
<20151019-00:22:01.377, FIX.4.2:GOLDMF->KGI, outgoing>
  (8=FIX.4.2|9=54|35=0|34=134|49=GOLDMF|52=20151019-00:22:01.377|56=KGI|10=199|)
<20151019-00:22:01.752, FIX.4.2:GOLDMF->KGI, incoming>
  (8=FIX.4.2|9=50|35=0|49=KGI|56=GOLDMF|34=134|52=20151019-00:22:02|10=245|)
<20151019-00:22:11.387, FIX.4.2:GOLDMF->KGI, outgoing>
  (8=FIX.4.2|9=54|35=0|34=135|49=GOLDMF|52=20151019-00:22:11.387|56=KGI|10=202|)
<20151019-00:22:11.752, FIX.4.2:GOLDMF->KGI, incoming>
  (8=FIX.4.2|9=50|35=0|49=KGI|56=GOLDMF|34=135|52=20151019-00:22:12|10=247|)
<20151019-00:22:21.397, FIX.4.2:GOLDMF->KGI, outgoing>
  (8=FIX.4.2|9=54|35=0|34=136|49=GOLDMF|52=20151019-00:22:21.397|56=KGI|10=205|)
<20151019-00:22:21.752, FIX.4.2:GOLDMF->KGI, incoming>
  (8=FIX.4.2|9=50|35=0|49=KGI|56=GOLDMF|34=136|52=20151019-00:22:22|10=249|)
<20151019-00:22:31.407, FIX.4.2:GOLDMF->KGI, outgoing>
  (8=FIX.4.2|9=54|35=0|34=137|49=GOLDMF|52=20151019-00:22:31.407|56=KGI|10=199|)
<20151019-00:22:31.753, FIX.4.2:GOLDMF->KGI, incoming>
  (8=FIX.4.2|9=50|35=0|49=KGI|56=GOLDMF|34=137|52=20151019-00:22:32|10=251|)
<20151019-00:22:41.417, FIX.4.2:GOLDMF->KGI, outgoing>
  (8=FIX.4.2|9=54|35=0|34=138|49=GOLDMF|52=20151019-00:22:41.417|56=KGI|10=202|)
<20151019-00:22:41.753, FIX.4.2:GOLDMF->KGI, incoming>
  (8=FIX.4.2|9=50|35=0|49=KGI|56=GOLDMF|34=138|52=20151019-00:22:42|10=253|)
<20151019-00:22:51.427, FIX.4.2:GOLDMF->KGI, outgoing>
  (8=FIX.4.2|9=54|35=0|34=139|49=GOLDMF|52=20151019-00:22:51.427|56=KGI|10=205|)
<20151019-00:22:51.754, FIX.4.2:GOLDMF->KGI, incoming>
  (8=FIX.4.2|9=50|35=0|49=KGI|56=GOLDMF|34=139|52=20151019-00:22:52|10=255|)
<20151019-00:23:01.438, FIX.4.2:GOLDMF->KGI, outgoing>
  (8=FIX.4.2|9=54|35=0|34=140|49=GOLDMF|52=20151019-00:23:01.438|56=KGI|10=195|)
<20151019-00:23:01.754, FIX.4.2:GOLDMF->KGI, incoming>
  (8=FIX.4.2|9=50|35=0|49=KGI|56=GOLDMF|34=140|52=20151019-00:23:02|10=243|)
<20151019-00:23:11.448, FIX.4.2:GOLDMF->KGI, outgoing>
  (8=FIX.4.2|9=54|35=0|34=141|49=GOLDMF|52=20151019-00:23:11.448|56=KGI|10=198|)
<20151019-00:23:11.755, FIX.4.2:GOLDMF->KGI, incoming>
  (8=FIX.4.2|9=50|35=0|49=KGI|56=GOLDMF|34=141|52=20151019-00:23:12|10=245|)
<20151019-00:23:21.458, FIX.4.2:GOLDMF->KGI, outgoing>
  (8=FIX.4.2|9=54|35=0|34=142|49=GOLDMF|52=20151019-00:23:21.458|56=KGI|10=201|)
<20151019-00:23:21.755, FIX.4.2:GOLDMF->KGI, incoming>
  (8=FIX.4.2|9=50|35=0|49=KGI|56=GOLDMF|34=142|52=20151019-00:23:22|10=247|)
<20151019-00:23:31.469, FIX.4.2:GOLDMF->KGI, outgoing>
  (8=FIX.4.2|9=54|35=0|34=143|49=GOLDMF|52=20151019-00:23:31.468|56=KGI|10=204|)
<20151019-00:23:31.756, FIX.4.2:GOLDMF->KGI, incoming>
  (8=FIX.4.2|9=50|35=0|49=KGI|56=GOLDMF|34=143|52=20151019-00:23:32|10=249|)
<20151019-00:23:41.479, FIX.4.2:GOLDMF->KGI, outgoing>
  (8=FIX.4.2|9=54|35=0|34=144|49=GOLDMF|52=20151019-00:23:41.479|56=KGI|10=208|)
<20151019-00:23:41.759, FIX.4.2:GOLDMF->KGI, incoming>
  (8=FIX.4.2|9=50|35=0|49=KGI|56=GOLDMF|34=144|52=20151019-00:23:42|10=251|)
<20151019-00:23:51.489, FIX.4.2:GOLDMF->KGI, outgoing>
  (8=FIX.4.2|9=54|35=0|34=145|49=GOLDMF|52=20151019-00:23:51.489|56=KGI|10=211|)
<20151019-00:23:51.756, FIX.4.2:GOLDMF->KGI, incoming>
  (8=FIX.4.2|9=50|35=0|49=KGI|56=GOLDMF|34=145|52=20151019-00:23:52|10=253|)
<20151019-00:24:01.499, FIX.4.2:GOLDMF->KGI, outgoing>
  (8=FIX.4.2|9=54|35=0|34=146|49=GOLDMF|52=20151019-00:24:01.499|56=KGI|10=209|)
<20151019-00:24:01.757, FIX.4.2:GOLDMF->KGI, incoming>
  (8=FIX.4.2|9=50|35=0|49=KGI|56=GOLDMF|34=146|52=20151019-00:24:02|10=250|)
<20151019-00:24:11.510, FIX.4.2:GOLDMF->KGI, outgoing>
  (8=FIX.4.2|9=54|35=0|34=147|49=GOLDMF|52=20151019-00:24:11.510|56=KGI|10=195|)
<20151019-00:24:11.757, FIX.4.2:GOLDMF->KGI, incoming>
  (8=FIX.4.2|9=50|35=0|49=KGI|56=GOLDMF|34=147|52=20151019-00:24:12|10=252|)
<20151019-00:24:21.520, FIX.4.2:GOLDMF->KGI, outgoing>
  (8=FIX.4.2|9=54|35=0|34=148|49=GOLDMF|52=20151019-00:24:21.520|56=KGI|10=198|)
<20151019-00:24:21.757, FIX.4.2:GOLDMF->KGI, incoming>
  (8=FIX.4.2|9=50|35=0|49=KGI|56=GOLDMF|34=148|52=20151019-00:24:22|10=254|)
<20151019-00:24:31.531, FIX.4.2:GOLDMF->KGI, outgoing>
  (8=FIX.4.2|9=54|35=0|34=149|49=GOLDMF|52=20151019-00:24:31.530|56=KGI|10=201|)
<20151019-00:24:31.758, FIX.4.2:GOLDMF->KGI, incoming>
  (8=FIX.4.2|9=50|35=0|49=KGI|56=GOLDMF|34=149|52=20151019-00:24:32|10=000|)
<20151019-00:24:41.541, FIX.4.2:GOLDMF->KGI, outgoing>
  (8=FIX.4.2|9=54|35=0|34=150|49=GOLDMF|52=20151019-00:24:41.541|56=KGI|10=196|)
<20151019-00:24:41.758, FIX.4.2:GOLDMF->KGI, incoming>
  (8=FIX.4.2|9=50|35=0|49=KGI|56=GOLDMF|34=150|52=20151019-00:24:42|10=249|)
<20151019-00:24:51.551, FIX.4.2:GOLDMF->KGI, outgoing>
  (8=FIX.4.2|9=54|35=0|34=151|49=GOLDMF|52=20151019-00:24:51.551|56=KGI|10=199|)
<20151019-00:24:51.759, FIX.4.2:GOLDMF->KGI, incoming>
  (8=FIX.4.2|9=50|35=0|49=KGI|56=GOLDMF|34=151|52=20151019-00:24:52|10=251|)
<20151019-00:25:01.562, FIX.4.2:GOLDMF->KGI, outgoing>
  (8=FIX.4.2|9=54|35=0|34=152|49=GOLDMF|52=20151019-00:25:01.561|56=KGI|10=197|)
<20151019-00:25:01.759, FIX.4.2:GOLDMF->KGI, incoming>
  (8=FIX.4.2|9=50|35=0|49=KGI|56=GOLDMF|34=152|52=20151019-00:25:02|10=248|)
<20151019-00:25:11.572, FIX.4.2:GOLDMF->KGI, outgoing>
  (8=FIX.4.2|9=54|35=0|34=153|49=GOLDMF|52=20151019-00:25:11.572|56=KGI|10=201|)
<20151019-00:25:11.759, FIX.4.2:GOLDMF->KGI, incoming>
  (8=FIX.4.2|9=50|35=0|49=KGI|56=GOLDMF|34=153|52=20151019-00:25:12|10=250|)
<20151019-00:25:21.582, FIX.4.2:GOLDMF->KGI, outgoing>
  (8=FIX.4.2|9=54|35=0|34=154|49=GOLDMF|52=20151019-00:25:21.582|56=KGI|10=204|)
<20151019-00:25:21.761, FIX.4.2:GOLDMF->KGI, incoming>
  (8=FIX.4.2|9=50|35=0|49=KGI|56=GOLDMF|34=154|52=20151019-00:25:22|10=252|)
<20151019-00:25:31.593, FIX.4.2:GOLDMF->KGI, outgoing>
  (8=FIX.4.2|9=54|35=0|34=155|49=GOLDMF|52=20151019-00:25:31.593|56=KGI|10=208|)
<20151019-00:25:31.761, FIX.4.2:GOLDMF->KGI, incoming>
  (8=FIX.4.2|9=50|35=0|49=KGI|56=GOLDMF|34=155|52=20151019-00:25:32|10=254|)
<20151019-00:25:41.603, FIX.4.2:GOLDMF->KGI, outgoing>
  (8=FIX.4.2|9=54|35=0|34=156|49=GOLDMF|52=20151019-00:25:41.603|56=KGI|10=202|)
<20151019-00:25:41.762, FIX.4.2:GOLDMF->KGI, incoming>
  (8=FIX.4.2|9=50|35=0|49=KGI|56=GOLDMF|34=156|52=20151019-00:25:42|10=000|)
<20151019-00:25:51.614, FIX.4.2:GOLDMF->KGI, outgoing>
  (8=FIX.4.2|9=54|35=0|34=157|49=GOLDMF|52=20151019-00:25:51.614|56=KGI|10=206|)
<20151019-00:25:51.762, FIX.4.2:GOLDMF->KGI, incoming>
  (8=FIX.4.2|9=50|35=0|49=KGI|56=GOLDMF|34=157|52=20151019-00:25:52|10=002|)
<20151019-00:26:01.624, FIX.4.2:GOLDMF->KGI, outgoing>
  (8=FIX.4.2|9=54|35=0|34=158|49=GOLDMF|52=20151019-00:26:01.624|56=KGI|10=204|)
<20151019-00:26:01.762, FIX.4.2:GOLDMF->KGI, incoming>
  (8=FIX.4.2|9=50|35=0|49=KGI|56=GOLDMF|34=158|52=20151019-00:26:02|10=255|)
<20151019-00:26:11.634, FIX.4.2:GOLDMF->KGI, outgoing>
  (8=FIX.4.2|9=54|35=0|34=159|49=GOLDMF|52=20151019-00:26:11.634|56=KGI|10=207|)
<20151019-00:26:11.762, FIX.4.2:GOLDMF->KGI, incoming>
  (8=FIX.4.2|9=50|35=0|49=KGI|56=GOLDMF|34=159|52=20151019-00:26:12|10=001|)
<20151019-00:26:21.645, FIX.4.2:GOLDMF->KGI, outgoing>
  (8=FIX.4.2|9=54|35=0|34=160|49=GOLDMF|52=20151019-00:26:21.645|56=KGI|10=202|)
<20151019-00:26:21.763, FIX.4.2:GOLDMF->KGI, incoming>
  (8=FIX.4.2|9=50|35=0|49=KGI|56=GOLDMF|34=160|52=20151019-00:26:22|10=250|)
<20151019-00:26:31.655, FIX.4.2:GOLDMF->KGI, outgoing>
  (8=FIX.4.2|9=54|35=0|34=161|49=GOLDMF|52=20151019-00:26:31.655|56=KGI|10=205|)
<20151019-00:26:31.763, FIX.4.2:GOLDMF->KGI, incoming>
  (8=FIX.4.2|9=50|35=0|49=KGI|56=GOLDMF|34=161|52=20151019-00:26:32|10=252|)
<20151019-00:26:41.666, FIX.4.2:GOLDMF->KGI, outgoing>
  (8=FIX.4.2|9=54|35=0|34=162|49=GOLDMF|52=20151019-00:26:41.666|56=KGI|10=209|)
<20151019-00:26:41.764, FIX.4.2:GOLDMF->KGI, incoming>
  (8=FIX.4.2|9=50|35=0|49=KGI|56=GOLDMF|34=162|52=20151019-00:26:42|10=254|)
<20151019-00:26:51.676, FIX.4.2:GOLDMF->KGI, outgoing>
  (8=FIX.4.2|9=54|35=0|34=163|49=GOLDMF|52=20151019-00:26:51.676|56=KGI|10=212|)
<20151019-00:26:51.764, FIX.4.2:GOLDMF->KGI, incoming>
  (8=FIX.4.2|9=50|35=0|49=KGI|56=GOLDMF|34=163|52=20151019-00:26:52|10=000|)
<20151019-00:27:01.687, FIX.4.2:GOLDMF->KGI, outgoing>
  (8=FIX.4.2|9=54|35=0|34=164|49=GOLDMF|52=20151019-00:27:01.687|56=KGI|10=211|)
<20151019-00:27:01.764, FIX.4.2:GOLDMF->KGI, incoming>
  (8=FIX.4.2|9=50|35=0|49=KGI|56=GOLDMF|34=164|52=20151019-00:27:02|10=253|)
<20151019-00:27:11.697, FIX.4.2:GOLDMF->KGI, outgoing>
  (8=FIX.4.2|9=54|35=0|34=165|49=GOLDMF|52=20151019-00:27:11.697|56=KGI|10=214|)
<20151019-00:27:11.765, FIX.4.2:GOLDMF->KGI, incoming>
  (8=FIX.4.2|9=50|35=0|49=KGI|56=GOLDMF|34=165|52=20151019-00:27:12|10=255|)
<20151019-00:27:21.708, FIX.4.2:GOLDMF->KGI, outgoing>
  (8=FIX.4.2|9=54|35=0|34=166|49=GOLDMF|52=20151019-00:27:21.708|56=KGI|10=209|)
<20151019-00:27:21.765, FIX.4.2:GOLDMF->KGI, incoming>
  (8=FIX.4.2|9=50|35=0|49=KGI|56=GOLDMF|34=166|52=20151019-00:27:22|10=001|)
<20151019-00:27:31.718, FIX.4.2:GOLDMF->KGI, outgoing>
  (8=FIX.4.2|9=54|35=0|34=167|49=GOLDMF|52=20151019-00:27:31.718|56=KGI|10=212|)
<20151019-00:27:31.765, FIX.4.2:GOLDMF->KGI, incoming>
  (8=FIX.4.2|9=50|35=0|49=KGI|56=GOLDMF|34=167|52=20151019-00:27:32|10=003|)
<20151019-00:27:41.728, FIX.4.2:GOLDMF->KGI, outgoing>
  (8=FIX.4.2|9=54|35=0|34=168|49=GOLDMF|52=20151019-00:27:41.728|56=KGI|10=215|)
<20151019-00:27:41.766, FIX.4.2:GOLDMF->KGI, incoming>
  (8=FIX.4.2|9=50|35=0|49=KGI|56=GOLDMF|34=168|52=20151019-00:27:42|10=005|)
<20151019-00:27:51.739, FIX.4.2:GOLDMF->KGI, outgoing>
  (8=FIX.4.2|9=54|35=0|34=169|49=GOLDMF|52=20151019-00:27:51.739|56=KGI|10=219|)
<20151019-00:27:51.766, FIX.4.2:GOLDMF->KGI, incoming>
  (8=FIX.4.2|9=50|35=0|49=KGI|56=GOLDMF|34=169|52=20151019-00:27:52|10=007|)
<20151019-00:28:01.749, FIX.4.2:GOLDMF->KGI, outgoing>
  (8=FIX.4.2|9=54|35=0|34=170|49=GOLDMF|52=20151019-00:28:01.749|56=KGI|10=208|)
<20151019-00:28:01.766, FIX.4.2:GOLDMF->KGI, incoming>
  (8=FIX.4.2|9=50|35=0|49=KGI|56=GOLDMF|34=170|52=20151019-00:28:02|10=251|)
<20151019-00:28:11.760, FIX.4.2:GOLDMF->KGI, outgoing>
  (8=FIX.4.2|9=54|35=0|34=171|49=GOLDMF|52=20151019-00:28:11.760|56=KGI|10=203|)
<20151019-00:28:11.767, FIX.4.2:GOLDMF->KGI, incoming>
  (8=FIX.4.2|9=50|35=0|49=KGI|56=GOLDMF|34=171|52=20151019-00:28:12|10=253|)
<20151019-00:28:21.769, FIX.4.2:GOLDMF->KGI, incoming>
  (8=FIX.4.2|9=50|35=0|49=KGI|56=GOLDMF|34=172|52=20151019-00:28:22|10=255|)
<20151019-00:28:21.769, FIX.4.2:GOLDMF->KGI, outgoing>
  (8=FIX.4.2|9=54|35=0|34=172|49=GOLDMF|52=20151019-00:28:21.769|56=KGI|10=214|)
<20151019-00:28:31.769, FIX.4.2:GOLDMF->KGI, incoming>
  (8=FIX.4.2|9=50|35=0|49=KGI|56=GOLDMF|34=173|52=20151019-00:28:32|10=001|)
<20151019-00:28:31.769, FIX.4.2:GOLDMF->KGI, outgoing>
  (8=FIX.4.2|9=54|35=0|34=173|49=GOLDMF|52=20151019-00:28:31.769|56=KGI|10=216|)
<20151019-00:28:41.770, FIX.4.2:GOLDMF->KGI, incoming>
  (8=FIX.4.2|9=50|35=0|49=KGI|56=GOLDMF|34=174|52=20151019-00:28:42|10=003|)
<20151019-00:28:41.770, FIX.4.2:GOLDMF->KGI, outgoing>
  (8=FIX.4.2|9=54|35=0|34=174|49=GOLDMF|52=20151019-00:28:41.770|56=KGI|10=210|)
<20151019-00:28:51.770, FIX.4.2:GOLDMF->KGI, incoming>
  (8=FIX.4.2|9=50|35=0|49=KGI|56=GOLDMF|34=175|52=20151019-00:28:52|10=005|)
<20151019-00:28:51.770, FIX.4.2:GOLDMF->KGI, outgoing>
  (8=FIX.4.2|9=54|35=0|34=175|49=GOLDMF|52=20151019-00:28:51.770|56=KGI|10=212|)
<20151019-00:29:01.772, FIX.4.2:GOLDMF->KGI, incoming>
  (8=FIX.4.2|9=50|35=0|49=KGI|56=GOLDMF|34=176|52=20151019-00:29:02|10=002|)
<20151019-00:29:01.772, FIX.4.2:GOLDMF->KGI, outgoing>
  (8=FIX.4.2|9=54|35=0|34=176|49=GOLDMF|52=20151019-00:29:01.772|56=KGI|10=211|)
<20151019-00:29:11.771, FIX.4.2:GOLDMF->KGI, incoming>
  (8=FIX.4.2|9=50|35=0|49=KGI|56=GOLDMF|34=177|52=20151019-00:29:12|10=004|)
<20151019-00:29:11.771, FIX.4.2:GOLDMF->KGI, outgoing>
  (8=FIX.4.2|9=54|35=0|34=177|49=GOLDMF|52=20151019-00:29:11.771|56=KGI|10=212|)
<20151019-00:29:21.771, FIX.4.2:GOLDMF->KGI, incoming>
  (8=FIX.4.2|9=50|35=0|49=KGI|56=GOLDMF|34=178|52=20151019-00:29:22|10=006|)
<20151019-00:29:21.772, FIX.4.2:GOLDMF->KGI, outgoing>
  (8=FIX.4.2|9=54|35=0|34=178|49=GOLDMF|52=20151019-00:29:21.772|56=KGI|10=215|)
<20151019-00:29:31.772, FIX.4.2:GOLDMF->KGI, incoming>
  (8=FIX.4.2|9=50|35=0|49=KGI|56=GOLDMF|34=179|52=20151019-00:29:32|10=008|)
<20151019-00:29:31.772, FIX.4.2:GOLDMF->KGI, outgoing>
  (8=FIX.4.2|9=54|35=0|34=179|49=GOLDMF|52=20151019-00:29:31.772|56=KGI|10=217|)
<20151019-00:29:41.772, FIX.4.2:GOLDMF->KGI, incoming>
  (8=FIX.4.2|9=50|35=0|49=KGI|56=GOLDMF|34=180|52=20151019-00:29:42|10=001|)
<20151019-00:29:41.772, FIX.4.2:GOLDMF->KGI, outgoing>
  (8=FIX.4.2|9=54|35=0|34=180|49=GOLDMF|52=20151019-00:29:41.772|56=KGI|10=210|)
<20151019-00:29:51.773, FIX.4.2:GOLDMF->KGI, incoming>
  (8=FIX.4.2|9=50|35=0|49=KGI|56=GOLDMF|34=181|52=20151019-00:29:52|10=003|)
<20151019-00:29:51.773, FIX.4.2:GOLDMF->KGI, outgoing>
  (8=FIX.4.2|9=54|35=0|34=181|49=GOLDMF|52=20151019-00:29:51.773|56=KGI|10=213|)
<20151019-00:30:01.773, FIX.4.2:GOLDMF->KGI, incoming>
  (8=FIX.4.2|9=50|35=0|49=KGI|56=GOLDMF|34=182|52=20151019-00:30:02|10=247|)
<20151019-00:30:01.773, FIX.4.2:GOLDMF->KGI, outgoing>
  (8=FIX.4.2|9=54|35=0|34=182|49=GOLDMF|52=20151019-00:30:01.773|56=KGI|10=201|)
<20151019-00:30:11.773, FIX.4.2:GOLDMF->KGI, incoming>
  (8=FIX.4.2|9=50|35=0|49=KGI|56=GOLDMF|34=183|52=20151019-00:30:12|10=249|)
<20151019-00:30:11.774, FIX.4.2:GOLDMF->KGI, outgoing>
  (8=FIX.4.2|9=54|35=0|34=183|49=GOLDMF|52=20151019-00:30:11.774|56=KGI|10=204|)
<20151019-00:30:21.774, FIX.4.2:GOLDMF->KGI, incoming>
  (8=FIX.4.2|9=50|35=0|49=KGI|56=GOLDMF|34=184|52=20151019-00:30:22|10=251|)
<20151019-00:30:21.774, FIX.4.2:GOLDMF->KGI, outgoing>
  (8=FIX.4.2|9=54|35=0|34=184|49=GOLDMF|52=20151019-00:30:21.774|56=KGI|10=206|)
<20151019-00:30:31.775, FIX.4.2:GOLDMF->KGI, incoming>
  (8=FIX.4.2|9=50|35=0|49=KGI|56=GOLDMF|34=185|52=20151019-00:30:32|10=253|)
<20151019-00:30:31.775, FIX.4.2:GOLDMF->KGI, outgoing>
  (8=FIX.4.2|9=54|35=0|34=185|49=GOLDMF|52=20151019-00:30:31.775|56=KGI|10=209|)
<20151019-00:30:41.775, FIX.4.2:GOLDMF->KGI, incoming>
  (8=FIX.4.2|9=50|35=0|49=KGI|56=GOLDMF|34=186|52=20151019-00:30:42|10=255|)
<20151019-00:30:41.775, FIX.4.2:GOLDMF->KGI, outgoing>
  (8=FIX.4.2|9=54|35=0|34=186|49=GOLDMF|52=20151019-00:30:41.775|56=KGI|10=211|)
<20151019-00:30:51.775, FIX.4.2:GOLDMF->KGI, incoming>
  (8=FIX.4.2|9=50|35=0|49=KGI|56=GOLDMF|34=187|52=20151019-00:30:52|10=001|)
<20151019-00:30:51.775, FIX.4.2:GOLDMF->KGI, outgoing>
  (8=FIX.4.2|9=54|35=0|34=187|49=GOLDMF|52=20151019-00:30:51.775|56=KGI|10=213|)
<20151019-00:31:01.775, FIX.4.2:GOLDMF->KGI, incoming>
  (8=FIX.4.2|9=50|35=0|49=KGI|56=GOLDMF|34=188|52=20151019-00:31:02|10=254|)
<20151019-00:31:01.776, FIX.4.2:GOLDMF->KGI, outgoing>
  (8=FIX.4.2|9=54|35=0|34=188|49=GOLDMF|52=20151019-00:31:01.775|56=KGI|10=210|)
<20151019-00:31:11.776, FIX.4.2:GOLDMF->KGI, incoming>
  (8=FIX.4.2|9=50|35=0|49=KGI|56=GOLDMF|34=189|52=20151019-00:31:12|10=000|)
<20151019-00:31:11.776, FIX.4.2:GOLDMF->KGI, outgoing>
  (8=FIX.4.2|9=54|35=0|34=189|49=GOLDMF|52=20151019-00:31:11.776|56=KGI|10=213|)
<20151019-00:31:21.776, FIX.4.2:GOLDMF->KGI, incoming>
  (8=FIX.4.2|9=50|35=0|49=KGI|56=GOLDMF|34=190|52=20151019-00:31:22|10=249|)
<20151019-00:31:21.776, FIX.4.2:GOLDMF->KGI, outgoing>
  (8=FIX.4.2|9=54|35=0|34=190|49=GOLDMF|52=20151019-00:31:21.776|56=KGI|10=206|)
<20151019-00:31:31.777, FIX.4.2:GOLDMF->KGI, incoming>
  (8=FIX.4.2|9=50|35=0|49=KGI|56=GOLDMF|34=191|52=20151019-00:31:32|10=251|)
<20151019-00:31:31.777, FIX.4.2:GOLDMF->KGI, outgoing>
  (8=FIX.4.2|9=54|35=0|34=191|49=GOLDMF|52=20151019-00:31:31.777|56=KGI|10=209|)
<20151019-00:31:41.777, FIX.4.2:GOLDMF->KGI, incoming>
  (8=FIX.4.2|9=50|35=0|49=KGI|56=GOLDMF|34=192|52=20151019-00:31:42|10=253|)
<20151019-00:31:41.777, FIX.4.2:GOLDMF->KGI, outgoing>
  (8=FIX.4.2|9=54|35=0|34=192|49=GOLDMF|52=20151019-00:31:41.777|56=KGI|10=211|)
<20151019-00:31:51.778, FIX.4.2:GOLDMF->KGI, incoming>
  (8=FIX.4.2|9=50|35=0|49=KGI|56=GOLDMF|34=193|52=20151019-00:31:52|10=255|)
<20151019-00:31:51.778, FIX.4.2:GOLDMF->KGI, outgoing>
  (8=FIX.4.2|9=54|35=0|34=193|49=GOLDMF|52=20151019-00:31:51.778|56=KGI|10=214|)
<20151019-00:32:01.778, FIX.4.2:GOLDMF->KGI, incoming>
  (8=FIX.4.2|9=50|35=0|49=KGI|56=GOLDMF|34=194|52=20151019-00:32:02|10=252|)
<20151019-00:32:01.778, FIX.4.2:GOLDMF->KGI, outgoing>
  (8=FIX.4.2|9=54|35=0|34=194|49=GOLDMF|52=20151019-00:32:01.778|56=KGI|10=211|)
<20151019-00:32:11.779, FIX.4.2:GOLDMF->KGI, incoming>
  (8=FIX.4.2|9=50|35=0|49=KGI|56=GOLDMF|34=195|52=20151019-00:32:12|10=254|)
<20151019-00:32:11.779, FIX.4.2:GOLDMF->KGI, outgoing>
  (8=FIX.4.2|9=54|35=0|34=195|49=GOLDMF|52=20151019-00:32:11.779|56=KGI|10=214|)
<20151019-00:32:21.001, FIX.4.2:GOLDMF->KGI, outgoing>
  (8=FIX.4.2|9=54|35=0|34=196|49=GOLDMF|52=20151019-00:32:21.001|56=KGI|10=194|)
<20151019-00:32:21.779, FIX.4.2:GOLDMF->KGI, incoming>
  (8=FIX.4.2|9=50|35=0|49=KGI|56=GOLDMF|34=196|52=20151019-00:32:22|10=000|)
<20151019-00:32:31.010, FIX.4.2:GOLDMF->KGI, outgoing>
  (8=FIX.4.2|9=54|35=0|34=197|49=GOLDMF|52=20151019-00:32:31.010|56=KGI|10=196|)
<20151019-00:32:31.779, FIX.4.2:GOLDMF->KGI, incoming>
  (8=FIX.4.2|9=50|35=0|49=KGI|56=GOLDMF|34=197|52=20151019-00:32:32|10=002|)
<20151019-00:32:41.020, FIX.4.2:GOLDMF->KGI, outgoing>
  (8=FIX.4.2|9=54|35=0|34=198|49=GOLDMF|52=20151019-00:32:41.020|56=KGI|10=199|)
<20151019-00:32:41.780, FIX.4.2:GOLDMF->KGI, incoming>
  (8=FIX.4.2|9=50|35=0|49=KGI|56=GOLDMF|34=198|52=20151019-00:32:42|10=004|)
<20151019-00:32:51.030, FIX.4.2:GOLDMF->KGI, outgoing>
  (8=FIX.4.2|9=54|35=0|34=199|49=GOLDMF|52=20151019-00:32:51.030|56=KGI|10=202|)
<20151019-00:32:51.780, FIX.4.2:GOLDMF->KGI, incoming>
  (8=FIX.4.2|9=50|35=0|49=KGI|56=GOLDMF|34=199|52=20151019-00:32:52|10=006|)
<20151019-00:33:01.040, FIX.4.2:GOLDMF->KGI, outgoing>
  (8=FIX.4.2|9=54|35=0|34=200|49=GOLDMF|52=20151019-00:33:01.040|56=KGI|10=182|)
<20151019-00:33:01.781, FIX.4.2:GOLDMF->KGI, incoming>
  (8=FIX.4.2|9=50|35=0|49=KGI|56=GOLDMF|34=200|52=20151019-00:33:02|10=241|)
<20151019-00:33:11.050, FIX.4.2:GOLDMF->KGI, outgoing>
  (8=FIX.4.2|9=54|35=0|34=201|49=GOLDMF|52=20151019-00:33:11.050|56=KGI|10=185|)
<20151019-00:33:11.781, FIX.4.2:GOLDMF->KGI, incoming>
  (8=FIX.4.2|9=50|35=0|49=KGI|56=GOLDMF|34=201|52=20151019-00:33:12|10=243|)
<20151019-00:33:21.060, FIX.4.2:GOLDMF->KGI, outgoing>
  (8=FIX.4.2|9=54|35=0|34=202|49=GOLDMF|52=20151019-00:33:21.060|56=KGI|10=188|)
<20151019-00:33:21.781, FIX.4.2:GOLDMF->KGI, incoming>
  (8=FIX.4.2|9=50|35=0|49=KGI|56=GOLDMF|34=202|52=20151019-00:33:22|10=245|)
<20151019-00:33:31.070, FIX.4.2:GOLDMF->KGI, outgoing>
  (8=FIX.4.2|9=54|35=0|34=203|49=GOLDMF|52=20151019-00:33:31.070|56=KGI|10=191|)
<20151019-00:33:31.782, FIX.4.2:GOLDMF->KGI, incoming>
  (8=FIX.4.2|9=50|35=0|49=KGI|56=GOLDMF|34=203|52=20151019-00:33:32|10=247|)
<20151019-00:33:41.079, FIX.4.2:GOLDMF->KGI, outgoing>
  (8=FIX.4.2|9=54|35=0|34=204|49=GOLDMF|52=20151019-00:33:41.079|56=KGI|10=202|)
<20151019-00:33:41.784, FIX.4.2:GOLDMF->KGI, incoming>
  (8=FIX.4.2|9=50|35=0|49=KGI|56=GOLDMF|34=204|52=20151019-00:33:42|10=249|)
<20151019-00:33:51.089, FIX.4.2:GOLDMF->KGI, outgoing>
  (8=FIX.4.2|9=54|35=0|34=205|49=GOLDMF|52=20151019-00:33:51.089|56=KGI|10=205|)
<20151019-00:33:51.784, FIX.4.2:GOLDMF->KGI, incoming>
  (8=FIX.4.2|9=50|35=0|49=KGI|56=GOLDMF|34=205|52=20151019-00:33:52|10=251|)
<20151019-00:34:01.099, FIX.4.2:GOLDMF->KGI, outgoing>
  (8=FIX.4.2|9=54|35=0|34=206|49=GOLDMF|52=20151019-00:34:01.099|56=KGI|10=203|)
<20151019-00:34:01.785, FIX.4.2:GOLDMF->KGI, incoming>
  (8=FIX.4.2|9=50|35=0|49=KGI|56=GOLDMF|34=206|52=20151019-00:34:02|10=248|)
<20151019-00:34:11.109, FIX.4.2:GOLDMF->KGI, outgoing>
  (8=FIX.4.2|9=54|35=0|34=207|49=GOLDMF|52=20151019-00:34:11.109|56=KGI|10=197|)
<20151019-00:34:11.786, FIX.4.2:GOLDMF->KGI, incoming>
  (8=FIX.4.2|9=50|35=0|49=KGI|56=GOLDMF|34=207|52=20151019-00:34:12|10=250|)
<20151019-00:34:21.119, FIX.4.2:GOLDMF->KGI, outgoing>
  (8=FIX.4.2|9=54|35=0|34=208|49=GOLDMF|52=20151019-00:34:21.119|56=KGI|10=200|)
<20151019-00:34:21.785, FIX.4.2:GOLDMF->KGI, incoming>
  (8=FIX.4.2|9=50|35=0|49=KGI|56=GOLDMF|34=208|52=20151019-00:34:22|10=252|)
<20151019-00:34:31.129, FIX.4.2:GOLDMF->KGI, outgoing>
  (8=FIX.4.2|9=54|35=0|34=209|49=GOLDMF|52=20151019-00:34:31.129|56=KGI|10=203|)
<20151019-00:34:31.787, FIX.4.2:GOLDMF->KGI, incoming>
  (8=FIX.4.2|9=50|35=0|49=KGI|56=GOLDMF|34=209|52=20151019-00:34:32|10=254|)
<20151019-00:34:41.139, FIX.4.2:GOLDMF->KGI, outgoing>
  (8=FIX.4.2|9=54|35=0|34=210|49=GOLDMF|52=20151019-00:34:41.139|56=KGI|10=197|)
<20151019-00:34:41.786, FIX.4.2:GOLDMF->KGI, incoming>
  (8=FIX.4.2|9=50|35=0|49=KGI|56=GOLDMF|34=210|52=20151019-00:34:42|10=247|)
<20151019-00:34:51.149, FIX.4.2:GOLDMF->KGI, outgoing>
  (8=FIX.4.2|9=54|35=0|34=211|49=GOLDMF|52=20151019-00:34:51.149|56=KGI|10=200|)
<20151019-00:34:51.787, FIX.4.2:GOLDMF->KGI, incoming>
  (8=FIX.4.2|9=50|35=0|49=KGI|56=GOLDMF|34=211|52=20151019-00:34:52|10=249|)
<20151019-00:35:01.159, FIX.4.2:GOLDMF->KGI, outgoing>
  (8=FIX.4.2|9=54|35=0|34=212|49=GOLDMF|52=20151019-00:35:01.159|56=KGI|10=198|)
<20151019-00:35:01.787, FIX.4.2:GOLDMF->KGI, incoming>
  (8=FIX.4.2|9=50|35=0|49=KGI|56=GOLDMF|34=212|52=20151019-00:35:02|10=246|)
<20151019-00:35:11.169, FIX.4.2:GOLDMF->KGI, outgoing>
  (8=FIX.4.2|9=54|35=0|34=213|49=GOLDMF|52=20151019-00:35:11.169|56=KGI|10=201|)
<20151019-00:35:11.787, FIX.4.2:GOLDMF->KGI, incoming>
  (8=FIX.4.2|9=50|35=0|49=KGI|56=GOLDMF|34=213|52=20151019-00:35:12|10=248|)
<20151019-00:35:21.179, FIX.4.2:GOLDMF->KGI, outgoing>
  (8=FIX.4.2|9=54|35=0|34=214|49=GOLDMF|52=20151019-00:35:21.179|56=KGI|10=204|)
<20151019-00:35:21.788, FIX.4.2:GOLDMF->KGI, incoming>
  (8=FIX.4.2|9=50|35=0|49=KGI|56=GOLDMF|34=214|52=20151019-00:35:22|10=250|)
<20151019-00:35:31.189, FIX.4.2:GOLDMF->KGI, outgoing>
  (8=FIX.4.2|9=54|35=0|34=215|49=GOLDMF|52=20151019-00:35:31.189|56=KGI|10=207|)
<20151019-00:35:31.788, FIX.4.2:GOLDMF->KGI, incoming>
  (8=FIX.4.2|9=50|35=0|49=KGI|56=GOLDMF|34=215|52=20151019-00:35:32|10=252|)
<20151019-00:35:41.199, FIX.4.2:GOLDMF->KGI, outgoing>
  (8=FIX.4.2|9=54|35=0|34=216|49=GOLDMF|52=20151019-00:35:41.199|56=KGI|10=210|)
<20151019-00:35:41.791, FIX.4.2:GOLDMF->KGI, incoming>
  (8=FIX.4.2|9=50|35=0|49=KGI|56=GOLDMF|34=216|52=20151019-00:35:42|10=254|)
<20151019-00:35:51.209, FIX.4.2:GOLDMF->KGI, outgoing>
  (8=FIX.4.2|9=54|35=0|34=217|49=GOLDMF|52=20151019-00:35:51.209|56=KGI|10=204|)
<20151019-00:35:51.790, FIX.4.2:GOLDMF->KGI, incoming>
  (8=FIX.4.2|9=50|35=0|49=KGI|56=GOLDMF|34=217|52=20151019-00:35:52|10=000|)
<20151019-00:36:01.219, FIX.4.2:GOLDMF->KGI, outgoing>
  (8=FIX.4.2|9=54|35=0|34=218|49=GOLDMF|52=20151019-00:36:01.219|56=KGI|10=202|)
<20151019-00:36:01.791, FIX.4.2:GOLDMF->KGI, incoming>
  (8=FIX.4.2|9=50|35=0|49=KGI|56=GOLDMF|34=218|52=20151019-00:36:02|10=253|)
<20151019-00:36:11.229, FIX.4.2:GOLDMF->KGI, outgoing>
  (8=FIX.4.2|9=54|35=0|34=219|49=GOLDMF|52=20151019-00:36:11.229|56=KGI|10=205|)
<20151019-00:36:11.791, FIX.4.2:GOLDMF->KGI, incoming>
  (8=FIX.4.2|9=50|35=0|49=KGI|56=GOLDMF|34=219|52=20151019-00:36:12|10=255|)
<20151019-00:36:21.239, FIX.4.2:GOLDMF->KGI, outgoing>
  (8=FIX.4.2|9=54|35=0|34=220|49=GOLDMF|52=20151019-00:36:21.239|56=KGI|10=199|)
<20151019-00:36:21.791, FIX.4.2:GOLDMF->KGI, incoming>
  (8=FIX.4.2|9=50|35=0|49=KGI|56=GOLDMF|34=220|52=20151019-00:36:22|10=248|)
<20151019-00:36:31.249, FIX.4.2:GOLDMF->KGI, outgoing>
  (8=FIX.4.2|9=54|35=0|34=221|49=GOLDMF|52=20151019-00:36:31.249|56=KGI|10=202|)
<20151019-00:36:31.792, FIX.4.2:GOLDMF->KGI, incoming>
  (8=FIX.4.2|9=50|35=0|49=KGI|56=GOLDMF|34=221|52=20151019-00:36:32|10=250|)
<20151019-00:36:41.259, FIX.4.2:GOLDMF->KGI, outgoing>
  (8=FIX.4.2|9=54|35=0|34=222|49=GOLDMF|52=20151019-00:36:41.259|56=KGI|10=205|)
<20151019-00:36:41.792, FIX.4.2:GOLDMF->KGI, incoming>
  (8=FIX.4.2|9=50|35=0|49=KGI|56=GOLDMF|34=222|52=20151019-00:36:41|10=251|)
<20151019-00:36:51.269, FIX.4.2:GOLDMF->KGI, outgoing>
  (8=FIX.4.2|9=54|35=0|34=223|49=GOLDMF|52=20151019-00:36:51.269|56=KGI|10=208|)
<20151019-00:36:51.792, FIX.4.2:GOLDMF->KGI, incoming>
  (8=FIX.4.2|9=50|35=0|49=KGI|56=GOLDMF|34=223|52=20151019-00:36:51|10=253|)
<20151019-00:37:01.279, FIX.4.2:GOLDMF->KGI, outgoing>
  (8=FIX.4.2|9=54|35=0|34=224|49=GOLDMF|52=20151019-00:37:01.279|56=KGI|10=206|)
<20151019-00:37:01.793, FIX.4.2:GOLDMF->KGI, incoming>
  (8=FIX.4.2|9=50|35=0|49=KGI|56=GOLDMF|34=224|52=20151019-00:37:01|10=250|)
<20151019-00:37:11.289, FIX.4.2:GOLDMF->KGI, outgoing>
  (8=FIX.4.2|9=54|35=0|34=225|49=GOLDMF|52=20151019-00:37:11.289|56=KGI|10=209|)
<20151019-00:37:11.793, FIX.4.2:GOLDMF->KGI, incoming>
  (8=FIX.4.2|9=50|35=0|49=KGI|56=GOLDMF|34=225|52=20151019-00:37:11|10=252|)
<20151019-00:37:21.299, FIX.4.2:GOLDMF->KGI, outgoing>
  (8=FIX.4.2|9=54|35=0|34=226|49=GOLDMF|52=20151019-00:37:21.299|56=KGI|10=212|)
<20151019-00:37:21.793, FIX.4.2:GOLDMF->KGI, incoming>
  (8=FIX.4.2|9=50|35=0|49=KGI|56=GOLDMF|34=226|52=20151019-00:37:21|10=254|)
<20151019-00:37:31.309, FIX.4.2:GOLDMF->KGI, outgoing>
  (8=FIX.4.2|9=54|35=0|34=227|49=GOLDMF|52=20151019-00:37:31.309|56=KGI|10=206|)
<20151019-00:37:31.794, FIX.4.2:GOLDMF->KGI, incoming>
  (8=FIX.4.2|9=50|35=0|49=KGI|56=GOLDMF|34=227|52=20151019-00:37:31|10=000|)
<20151019-00:37:41.319, FIX.4.2:GOLDMF->KGI, outgoing>
  (8=FIX.4.2|9=54|35=0|34=228|49=GOLDMF|52=20151019-00:37:41.319|56=KGI|10=209|)
<20151019-00:37:41.794, FIX.4.2:GOLDMF->KGI, incoming>
  (8=FIX.4.2|9=50|35=0|49=KGI|56=GOLDMF|34=228|52=20151019-00:37:41|10=002|)
<20151019-00:37:51.329, FIX.4.2:GOLDMF->KGI, outgoing>
  (8=FIX.4.2|9=54|35=0|34=229|49=GOLDMF|52=20151019-00:37:51.329|56=KGI|10=212|)
<20151019-00:37:51.794, FIX.4.2:GOLDMF->KGI, incoming>
  (8=FIX.4.2|9=50|35=0|49=KGI|56=GOLDMF|34=229|52=20151019-00:37:51|10=004|)
<20151019-00:38:01.339, FIX.4.2:GOLDMF->KGI, outgoing>
  (8=FIX.4.2|9=54|35=0|34=230|49=GOLDMF|52=20151019-00:38:01.339|56=KGI|10=201|)
<20151019-00:38:01.795, FIX.4.2:GOLDMF->KGI, incoming>
  (8=FIX.4.2|9=50|35=0|49=KGI|56=GOLDMF|34=230|52=20151019-00:38:01|10=248|)
<20151019-00:38:11.349, FIX.4.2:GOLDMF->KGI, outgoing>
  (8=FIX.4.2|9=54|35=0|34=231|49=GOLDMF|52=20151019-00:38:11.349|56=KGI|10=204|)
<20151019-00:38:11.795, FIX.4.2:GOLDMF->KGI, incoming>
  (8=FIX.4.2|9=50|35=0|49=KGI|56=GOLDMF|34=231|52=20151019-00:38:11|10=250|)
<20151019-00:38:21.359, FIX.4.2:GOLDMF->KGI, outgoing>
  (8=FIX.4.2|9=54|35=0|34=232|49=GOLDMF|52=20151019-00:38:21.359|56=KGI|10=207|)
<20151019-00:38:21.795, FIX.4.2:GOLDMF->KGI, incoming>
  (8=FIX.4.2|9=50|35=0|49=KGI|56=GOLDMF|34=232|52=20151019-00:38:21|10=252|)
<20151019-00:38:31.370, FIX.4.2:GOLDMF->KGI, outgoing>
  (8=FIX.4.2|9=54|35=0|34=233|49=GOLDMF|52=20151019-00:38:31.370|56=KGI|10=202|)
<20151019-00:38:31.796, FIX.4.2:GOLDMF->KGI, incoming>
  (8=FIX.4.2|9=50|35=0|49=KGI|56=GOLDMF|34=233|52=20151019-00:38:31|10=254|)
<20151019-00:38:41.379, FIX.4.2:GOLDMF->KGI, outgoing>
  (8=FIX.4.2|9=54|35=0|34=234|49=GOLDMF|52=20151019-00:38:41.379|56=KGI|10=213|)
<20151019-00:38:41.796, FIX.4.2:GOLDMF->KGI, incoming>
  (8=FIX.4.2|9=50|35=0|49=KGI|56=GOLDMF|34=234|52=20151019-00:38:42|10=001|)
<20151019-00:38:51.389, FIX.4.2:GOLDMF->KGI, outgoing>
  (8=FIX.4.2|9=54|35=0|34=235|49=GOLDMF|52=20151019-00:38:51.389|56=KGI|10=216|)
<20151019-00:38:51.797, FIX.4.2:GOLDMF->KGI, incoming>
  (8=FIX.4.2|9=50|35=0|49=KGI|56=GOLDMF|34=235|52=20151019-00:38:52|10=003|)
<20151019-00:39:01.399, FIX.4.2:GOLDMF->KGI, outgoing>
  (8=FIX.4.2|9=54|35=0|34=236|49=GOLDMF|52=20151019-00:39:01.399|56=KGI|10=214|)
<20151019-00:39:01.797, FIX.4.2:GOLDMF->KGI, incoming>
  (8=FIX.4.2|9=50|35=0|49=KGI|56=GOLDMF|34=236|52=20151019-00:39:02|10=000|)
<20151019-00:39:11.409, FIX.4.2:GOLDMF->KGI, outgoing>
  (8=FIX.4.2|9=54|35=0|34=237|49=GOLDMF|52=20151019-00:39:11.409|56=KGI|10=208|)
<20151019-00:39:11.797, FIX.4.2:GOLDMF->KGI, incoming>
  (8=FIX.4.2|9=50|35=0|49=KGI|56=GOLDMF|34=237|52=20151019-00:39:12|10=002|)
<20151019-00:39:21.419, FIX.4.2:GOLDMF->KGI, outgoing>
  (8=FIX.4.2|9=54|35=0|34=238|49=GOLDMF|52=20151019-00:39:21.419|56=KGI|10=211|)
<20151019-00:39:21.797, FIX.4.2:GOLDMF->KGI, incoming>
  (8=FIX.4.2|9=50|35=0|49=KGI|56=GOLDMF|34=238|52=20151019-00:39:22|10=004|)
<20151019-00:39:31.430, FIX.4.2:GOLDMF->KGI, outgoing>
  (8=FIX.4.2|9=54|35=0|34=239|49=GOLDMF|52=20151019-00:39:31.430|56=KGI|10=206|)
<20151019-00:39:31.798, FIX.4.2:GOLDMF->KGI, incoming>
  (8=FIX.4.2|9=50|35=0|49=KGI|56=GOLDMF|34=239|52=20151019-00:39:32|10=006|)
<20151019-00:39:41.440, FIX.4.2:GOLDMF->KGI, outgoing>
  (8=FIX.4.2|9=54|35=0|34=240|49=GOLDMF|52=20151019-00:39:41.440|56=KGI|10=200|)
<20151019-00:39:41.798, FIX.4.2:GOLDMF->KGI, incoming>
  (8=FIX.4.2|9=50|35=0|49=KGI|56=GOLDMF|34=240|52=20151019-00:39:42|10=255|)
<20151019-00:39:51.450, FIX.4.2:GOLDMF->KGI, outgoing>
  (8=FIX.4.2|9=54|35=0|34=241|49=GOLDMF|52=20151019-00:39:51.450|56=KGI|10=203|)
<20151019-00:39:51.798, FIX.4.2:GOLDMF->KGI, incoming>
  (8=FIX.4.2|9=50|35=0|49=KGI|56=GOLDMF|34=241|52=20151019-00:39:52|10=001|)
<20151019-00:40:01.460, FIX.4.2:GOLDMF->KGI, outgoing>
  (8=FIX.4.2|9=54|35=0|34=242|49=GOLDMF|52=20151019-00:40:01.460|56=KGI|10=192|)
<20151019-00:40:01.799, FIX.4.2:GOLDMF->KGI, incoming>
  (8=FIX.4.2|9=50|35=0|49=KGI|56=GOLDMF|34=242|52=20151019-00:40:02|10=245|)
<20151019-00:40:11.470, FIX.4.2:GOLDMF->KGI, outgoing>
  (8=FIX.4.2|9=54|35=0|34=243|49=GOLDMF|52=20151019-00:40:11.470|56=KGI|10=195|)
<20151019-00:40:11.799, FIX.4.2:GOLDMF->KGI, incoming>
  (8=FIX.4.2|9=50|35=0|49=KGI|56=GOLDMF|34=243|52=20151019-00:40:12|10=247|)
<20151019-00:40:21.481, FIX.4.2:GOLDMF->KGI, outgoing>
  (8=FIX.4.2|9=54|35=0|34=244|49=GOLDMF|52=20151019-00:40:21.481|56=KGI|10=199|)
<20151019-00:40:21.799, FIX.4.2:GOLDMF->KGI, incoming>
  (8=FIX.4.2|9=50|35=0|49=KGI|56=GOLDMF|34=244|52=20151019-00:40:22|10=249|)
<20151019-00:40:31.491, FIX.4.2:GOLDMF->KGI, outgoing>
  (8=FIX.4.2|9=54|35=0|34=245|49=GOLDMF|52=20151019-00:40:31.491|56=KGI|10=202|)
<20151019-00:40:31.799, FIX.4.2:GOLDMF->KGI, incoming>
  (8=FIX.4.2|9=50|35=0|49=KGI|56=GOLDMF|34=245|52=20151019-00:40:32|10=251|)
<20151019-00:40:41.501, FIX.4.2:GOLDMF->KGI, outgoing>
  (8=FIX.4.2|9=54|35=0|34=246|49=GOLDMF|52=20151019-00:40:41.501|56=KGI|10=196|)
<20151019-00:40:41.800, FIX.4.2:GOLDMF->KGI, incoming>
  (8=FIX.4.2|9=50|35=0|49=KGI|56=GOLDMF|34=246|52=20151019-00:40:42|10=253|)
<20151019-00:40:51.512, FIX.4.2:GOLDMF->KGI, outgoing>
  (8=FIX.4.2|9=54|35=0|34=247|49=GOLDMF|52=20151019-00:40:51.511|56=KGI|10=199|)
<20151019-00:40:51.800, FIX.4.2:GOLDMF->KGI, incoming>
  (8=FIX.4.2|9=50|35=0|49=KGI|56=GOLDMF|34=247|52=20151019-00:40:52|10=255|)
<20151019-00:41:01.522, FIX.4.2:GOLDMF->KGI, outgoing>
  (8=FIX.4.2|9=54|35=0|34=248|49=GOLDMF|52=20151019-00:41:01.522|56=KGI|10=198|)
<20151019-00:41:01.801, FIX.4.2:GOLDMF->KGI, incoming>
  (8=FIX.4.2|9=50|35=0|49=KGI|56=GOLDMF|34=248|52=20151019-00:41:02|10=252|)
<20151019-00:41:11.532, FIX.4.2:GOLDMF->KGI, outgoing>
  (8=FIX.4.2|9=54|35=0|34=249|49=GOLDMF|52=20151019-00:41:11.532|56=KGI|10=201|)
<20151019-00:41:11.801, FIX.4.2:GOLDMF->KGI, incoming>
  (8=FIX.4.2|9=50|35=0|49=KGI|56=GOLDMF|34=249|52=20151019-00:41:12|10=254|)
<20151019-00:41:21.542, FIX.4.2:GOLDMF->KGI, outgoing>
  (8=FIX.4.2|9=54|35=0|34=250|49=GOLDMF|52=20151019-00:41:21.542|56=KGI|10=195|)
<20151019-00:41:21.801, FIX.4.2:GOLDMF->KGI, incoming>
  (8=FIX.4.2|9=50|35=0|49=KGI|56=GOLDMF|34=250|52=20151019-00:41:22|10=247|)
<20151019-00:41:31.553, FIX.4.2:GOLDMF->KGI, outgoing>
  (8=FIX.4.2|9=54|35=0|34=251|49=GOLDMF|52=20151019-00:41:31.553|56=KGI|10=199|)
<20151019-00:41:31.803, FIX.4.2:GOLDMF->KGI, incoming>
  (8=FIX.4.2|9=50|35=0|49=KGI|56=GOLDMF|34=251|52=20151019-00:41:32|10=249|)
<20151019-00:41:41.563, FIX.4.2:GOLDMF->KGI, outgoing>
  (8=FIX.4.2|9=54|35=0|34=252|49=GOLDMF|52=20151019-00:41:41.563|56=KGI|10=202|)
<20151019-00:41:41.804, FIX.4.2:GOLDMF->KGI, incoming>
  (8=FIX.4.2|9=50|35=0|49=KGI|56=GOLDMF|34=252|52=20151019-00:41:42|10=251|)
<20151019-00:41:51.573, FIX.4.2:GOLDMF->KGI, outgoing>
  (8=FIX.4.2|9=54|35=0|34=253|49=GOLDMF|52=20151019-00:41:51.573|56=KGI|10=205|)
<20151019-00:41:51.805, FIX.4.2:GOLDMF->KGI, incoming>
  (8=FIX.4.2|9=50|35=0|49=KGI|56=GOLDMF|34=253|52=20151019-00:41:52|10=253|)
<20151019-00:42:01.584, FIX.4.2:GOLDMF->KGI, outgoing>
  (8=FIX.4.2|9=54|35=0|34=254|49=GOLDMF|52=20151019-00:42:01.584|56=KGI|10=204|)
<20151019-00:42:01.805, FIX.4.2:GOLDMF->KGI, incoming>
  (8=FIX.4.2|9=50|35=0|49=KGI|56=GOLDMF|34=254|52=20151019-00:42:02|10=250|)
<20151019-00:42:11.594, FIX.4.2:GOLDMF->KGI, outgoing>
  (8=FIX.4.2|9=54|35=0|34=255|49=GOLDMF|52=20151019-00:42:11.594|56=KGI|10=207|)
<20151019-00:42:11.805, FIX.4.2:GOLDMF->KGI, incoming>
  (8=FIX.4.2|9=50|35=0|49=KGI|56=GOLDMF|34=255|52=20151019-00:42:12|10=252|)
<20151019-00:42:21.604, FIX.4.2:GOLDMF->KGI, outgoing>
  (8=FIX.4.2|9=54|35=0|34=256|49=GOLDMF|52=20151019-00:42:21.604|56=KGI|10=201|)
<20151019-00:42:21.805, FIX.4.2:GOLDMF->KGI, incoming>
  (8=FIX.4.2|9=50|35=0|49=KGI|56=GOLDMF|34=256|52=20151019-00:42:22|10=254|)
<20151019-00:42:31.615, FIX.4.2:GOLDMF->KGI, outgoing>
  (8=FIX.4.2|9=54|35=0|34=257|49=GOLDMF|52=20151019-00:42:31.615|56=KGI|10=205|)
<20151019-00:42:31.805, FIX.4.2:GOLDMF->KGI, incoming>
  (8=FIX.4.2|9=50|35=0|49=KGI|56=GOLDMF|34=257|52=20151019-00:42:32|10=000|)
<20151019-00:42:41.625, FIX.4.2:GOLDMF->KGI, outgoing>
  (8=FIX.4.2|9=54|35=0|34=258|49=GOLDMF|52=20151019-00:42:41.625|56=KGI|10=208|)
<20151019-00:42:41.806, FIX.4.2:GOLDMF->KGI, incoming>
  (8=FIX.4.2|9=50|35=0|49=KGI|56=GOLDMF|34=258|52=20151019-00:42:42|10=002|)
<20151019-00:42:51.635, FIX.4.2:GOLDMF->KGI, outgoing>
  (8=FIX.4.2|9=54|35=0|34=259|49=GOLDMF|52=20151019-00:42:51.635|56=KGI|10=211|)
<20151019-00:42:51.806, FIX.4.2:GOLDMF->KGI, incoming>
  (8=FIX.4.2|9=50|35=0|49=KGI|56=GOLDMF|34=259|52=20151019-00:42:52|10=004|)
<20151019-00:43:01.646, FIX.4.2:GOLDMF->KGI, outgoing>
  (8=FIX.4.2|9=54|35=0|34=260|49=GOLDMF|52=20151019-00:43:01.646|56=KGI|10=201|)
<20151019-00:43:01.807, FIX.4.2:GOLDMF->KGI, incoming>
  (8=FIX.4.2|9=50|35=0|49=KGI|56=GOLDMF|34=260|52=20151019-00:43:02|10=248|)
<20151019-00:43:11.656, FIX.4.2:GOLDMF->KGI, outgoing>
  (8=FIX.4.2|9=54|35=0|34=261|49=GOLDMF|52=20151019-00:43:11.656|56=KGI|10=204|)
<20151019-00:43:11.807, FIX.4.2:GOLDMF->KGI, incoming>
  (8=FIX.4.2|9=50|35=0|49=KGI|56=GOLDMF|34=261|52=20151019-00:43:12|10=250|)
<20151019-00:43:21.666, FIX.4.2:GOLDMF->KGI, outgoing>
  (8=FIX.4.2|9=54|35=0|34=262|49=GOLDMF|52=20151019-00:43:21.666|56=KGI|10=207|)
<20151019-00:43:21.807, FIX.4.2:GOLDMF->KGI, incoming>
  (8=FIX.4.2|9=50|35=0|49=KGI|56=GOLDMF|34=262|52=20151019-00:43:22|10=252|)
<20151019-00:43:31.677, FIX.4.2:GOLDMF->KGI, outgoing>
  (8=FIX.4.2|9=54|35=0|34=263|49=GOLDMF|52=20151019-00:43:31.677|56=KGI|10=211|)
<20151019-00:43:31.807, FIX.4.2:GOLDMF->KGI, incoming>
  (8=FIX.4.2|9=50|35=0|49=KGI|56=GOLDMF|34=263|52=20151019-00:43:32|10=254|)
<20151019-00:43:41.687, FIX.4.2:GOLDMF->KGI, outgoing>
  (8=FIX.4.2|9=54|35=0|34=264|49=GOLDMF|52=20151019-00:43:41.687|56=KGI|10=214|)
<20151019-00:43:41.807, FIX.4.2:GOLDMF->KGI, incoming>
  (8=FIX.4.2|9=50|35=0|49=KGI|56=GOLDMF|34=264|52=20151019-00:43:42|10=000|)
<20151019-00:43:51.697, FIX.4.2:GOLDMF->KGI, outgoing>
  (8=FIX.4.2|9=54|35=0|34=265|49=GOLDMF|52=20151019-00:43:51.697|56=KGI|10=217|)
<20151019-00:43:51.808, FIX.4.2:GOLDMF->KGI, incoming>
  (8=FIX.4.2|9=50|35=0|49=KGI|56=GOLDMF|34=265|52=20151019-00:43:52|10=002|)
<20151019-00:44:01.708, FIX.4.2:GOLDMF->KGI, outgoing>
  (8=FIX.4.2|9=54|35=0|34=266|49=GOLDMF|52=20151019-00:44:01.708|56=KGI|10=207|)
<20151019-00:44:01.809, FIX.4.2:GOLDMF->KGI, incoming>
  (8=FIX.4.2|9=50|35=0|49=KGI|56=GOLDMF|34=266|52=20151019-00:44:02|10=255|)
<20151019-00:44:11.718, FIX.4.2:GOLDMF->KGI, outgoing>
  (8=FIX.4.2|9=54|35=0|34=267|49=GOLDMF|52=20151019-00:44:11.718|56=KGI|10=210|)
<20151019-00:44:11.809, FIX.4.2:GOLDMF->KGI, incoming>
  (8=FIX.4.2|9=50|35=0|49=KGI|56=GOLDMF|34=267|52=20151019-00:44:12|10=001|)
<20151019-00:44:21.729, FIX.4.2:GOLDMF->KGI, outgoing>
  (8=FIX.4.2|9=54|35=0|34=268|49=GOLDMF|52=20151019-00:44:21.729|56=KGI|10=214|)
<20151019-00:44:21.809, FIX.4.2:GOLDMF->KGI, incoming>
  (8=FIX.4.2|9=50|35=0|49=KGI|56=GOLDMF|34=268|52=20151019-00:44:22|10=003|)
<20151019-00:44:31.739, FIX.4.2:GOLDMF->KGI, outgoing>
  (8=FIX.4.2|9=54|35=0|34=269|49=GOLDMF|52=20151019-00:44:31.739|56=KGI|10=217|)
<20151019-00:44:31.809, FIX.4.2:GOLDMF->KGI, incoming>
  (8=FIX.4.2|9=50|35=0|49=KGI|56=GOLDMF|34=269|52=20151019-00:44:32|10=005|)
<20151019-00:44:41.750, FIX.4.2:GOLDMF->KGI, outgoing>
  (8=FIX.4.2|9=54|35=0|34=270|49=GOLDMF|52=20151019-00:44:41.750|56=KGI|10=203|)
<20151019-00:44:41.810, FIX.4.2:GOLDMF->KGI, incoming>
  (8=FIX.4.2|9=50|35=0|49=KGI|56=GOLDMF|34=270|52=20151019-00:44:42|10=254|)
<20151019-00:44:51.760, FIX.4.2:GOLDMF->KGI, outgoing>
  (8=FIX.4.2|9=54|35=0|34=271|49=GOLDMF|52=20151019-00:44:51.760|56=KGI|10=206|)
<20151019-00:44:51.810, FIX.4.2:GOLDMF->KGI, incoming>
  (8=FIX.4.2|9=50|35=0|49=KGI|56=GOLDMF|34=271|52=20151019-00:44:52|10=000|)
<20151019-00:45:01.771, FIX.4.2:GOLDMF->KGI, outgoing>
  (8=FIX.4.2|9=54|35=0|34=272|49=GOLDMF|52=20151019-00:45:01.771|56=KGI|10=205|)
<20151019-00:45:01.810, FIX.4.2:GOLDMF->KGI, incoming>
  (8=FIX.4.2|9=50|35=0|49=KGI|56=GOLDMF|34=272|52=20151019-00:45:02|10=253|)
<20151019-00:45:11.782, FIX.4.2:GOLDMF->KGI, outgoing>
  (8=FIX.4.2|9=54|35=0|34=273|49=GOLDMF|52=20151019-00:45:11.782|56=KGI|10=209|)
<20151019-00:45:11.811, FIX.4.2:GOLDMF->KGI, incoming>
  (8=FIX.4.2|9=50|35=0|49=KGI|56=GOLDMF|34=273|52=20151019-00:45:12|10=255|)
<20151019-00:45:21.792, FIX.4.2:GOLDMF->KGI, outgoing>
  (8=FIX.4.2|9=54|35=0|34=274|49=GOLDMF|52=20151019-00:45:21.792|56=KGI|10=212|)
<20151019-00:45:21.811, FIX.4.2:GOLDMF->KGI, incoming>
  (8=FIX.4.2|9=50|35=0|49=KGI|56=GOLDMF|34=274|52=20151019-00:45:22|10=001|)
<20151019-00:45:31.803, FIX.4.2:GOLDMF->KGI, outgoing>
  (8=FIX.4.2|9=54|35=0|34=275|49=GOLDMF|52=20151019-00:45:31.803|56=KGI|10=207|)
<20151019-00:45:31.812, FIX.4.2:GOLDMF->KGI, incoming>
  (8=FIX.4.2|9=50|35=0|49=KGI|56=GOLDMF|34=275|52=20151019-00:45:32|10=003|)
<20151019-00:45:41.812, FIX.4.2:GOLDMF->KGI, incoming>
  (8=FIX.4.2|9=50|35=0|49=KGI|56=GOLDMF|34=276|52=20151019-00:45:42|10=005|)
<20151019-00:45:41.812, FIX.4.2:GOLDMF->KGI, outgoing>
  (8=FIX.4.2|9=54|35=0|34=276|49=GOLDMF|52=20151019-00:45:41.812|56=KGI|10=209|)
<20151019-00:45:51.813, FIX.4.2:GOLDMF->KGI, incoming>
  (8=FIX.4.2|9=50|35=0|49=KGI|56=GOLDMF|34=277|52=20151019-00:45:52|10=007|)
<20151019-00:45:51.813, FIX.4.2:GOLDMF->KGI, outgoing>
  (8=FIX.4.2|9=54|35=0|34=277|49=GOLDMF|52=20151019-00:45:51.813|56=KGI|10=212|)
<20151019-00:46:01.813, FIX.4.2:GOLDMF->KGI, incoming>
  (8=FIX.4.2|9=50|35=0|49=KGI|56=GOLDMF|34=278|52=20151019-00:46:02|10=004|)
<20151019-00:46:01.813, FIX.4.2:GOLDMF->KGI, outgoing>
  (8=FIX.4.2|9=54|35=0|34=278|49=GOLDMF|52=20151019-00:46:01.813|56=KGI|10=209|)
<20151019-00:46:11.814, FIX.4.2:GOLDMF->KGI, incoming>
  (8=FIX.4.2|9=50|35=0|49=KGI|56=GOLDMF|34=279|52=20151019-00:46:12|10=006|)
<20151019-00:46:11.814, FIX.4.2:GOLDMF->KGI, outgoing>
  (8=FIX.4.2|9=54|35=0|34=279|49=GOLDMF|52=20151019-00:46:11.814|56=KGI|10=212|)
<20151019-00:46:21.814, FIX.4.2:GOLDMF->KGI, incoming>
  (8=FIX.4.2|9=50|35=0|49=KGI|56=GOLDMF|34=280|52=20151019-00:46:22|10=255|)
<20151019-00:46:21.814, FIX.4.2:GOLDMF->KGI, outgoing>
  (8=FIX.4.2|9=54|35=0|34=280|49=GOLDMF|52=20151019-00:46:21.814|56=KGI|10=205|)
<20151019-00:46:31.814, FIX.4.2:GOLDMF->KGI, incoming>
  (8=FIX.4.2|9=50|35=0|49=KGI|56=GOLDMF|34=281|52=20151019-00:46:32|10=001|)
<20151019-00:46:31.814, FIX.4.2:GOLDMF->KGI, outgoing>
  (8=FIX.4.2|9=54|35=0|34=281|49=GOLDMF|52=20151019-00:46:31.814|56=KGI|10=207|)
<20151019-00:46:41.814, FIX.4.2:GOLDMF->KGI, incoming>
  (8=FIX.4.2|9=50|35=0|49=KGI|56=GOLDMF|34=282|52=20151019-00:46:42|10=003|)
<20151019-00:46:41.814, FIX.4.2:GOLDMF->KGI, outgoing>
  (8=FIX.4.2|9=54|35=0|34=282|49=GOLDMF|52=20151019-00:46:41.814|56=KGI|10=209|)
<20151019-00:46:51.815, FIX.4.2:GOLDMF->KGI, incoming>
  (8=FIX.4.2|9=50|35=0|49=KGI|56=GOLDMF|34=283|52=20151019-00:46:52|10=005|)
<20151019-00:46:51.815, FIX.4.2:GOLDMF->KGI, outgoing>
  (8=FIX.4.2|9=54|35=0|34=283|49=GOLDMF|52=20151019-00:46:51.815|56=KGI|10=212|)
<20151019-00:47:01.815, FIX.4.2:GOLDMF->KGI, incoming>
  (8=FIX.4.2|9=50|35=0|49=KGI|56=GOLDMF|34=284|52=20151019-00:47:02|10=002|)
<20151019-00:47:01.815, FIX.4.2:GOLDMF->KGI, outgoing>
  (8=FIX.4.2|9=54|35=0|34=284|49=GOLDMF|52=20151019-00:47:01.815|56=KGI|10=209|)
<20151019-00:47:11.815, FIX.4.2:GOLDMF->KGI, incoming>
  (8=FIX.4.2|9=50|35=0|49=KGI|56=GOLDMF|34=285|52=20151019-00:47:12|10=004|)
<20151019-00:47:11.815, FIX.4.2:GOLDMF->KGI, outgoing>
  (8=FIX.4.2|9=54|35=0|34=285|49=GOLDMF|52=20151019-00:47:11.815|56=KGI|10=211|)
<20151019-00:47:21.817, FIX.4.2:GOLDMF->KGI, incoming>
  (8=FIX.4.2|9=50|35=0|49=KGI|56=GOLDMF|34=286|52=20151019-00:47:22|10=006|)
<20151019-00:47:21.817, FIX.4.2:GOLDMF->KGI, outgoing>
  (8=FIX.4.2|9=54|35=0|34=286|49=GOLDMF|52=20151019-00:47:21.817|56=KGI|10=215|)
<20151019-00:47:31.817, FIX.4.2:GOLDMF->KGI, incoming>
  (8=FIX.4.2|9=50|35=0|49=KGI|56=GOLDMF|34=287|52=20151019-00:47:32|10=008|)
<20151019-00:47:31.818, FIX.4.2:GOLDMF->KGI, outgoing>
  (8=FIX.4.2|9=54|35=0|34=287|49=GOLDMF|52=20151019-00:47:31.818|56=KGI|10=218|)
<20151019-00:47:41.817, FIX.4.2:GOLDMF->KGI, incoming>
  (8=FIX.4.2|9=50|35=0|49=KGI|56=GOLDMF|34=288|52=20151019-00:47:42|10=010|)
<20151019-00:47:41.818, FIX.4.2:GOLDMF->KGI, outgoing>
  (8=FIX.4.2|9=54|35=0|34=288|49=GOLDMF|52=20151019-00:47:41.818|56=KGI|10=220|)
<20151019-00:47:51.818, FIX.4.2:GOLDMF->KGI, incoming>
  (8=FIX.4.2|9=50|35=0|49=KGI|56=GOLDMF|34=289|52=20151019-00:47:52|10=012|)
<20151019-00:47:51.818, FIX.4.2:GOLDMF->KGI, outgoing>
  (8=FIX.4.2|9=54|35=0|34=289|49=GOLDMF|52=20151019-00:47:51.818|56=KGI|10=222|)
<20151019-00:48:01.819, FIX.4.2:GOLDMF->KGI, incoming>
  (8=FIX.4.2|9=50|35=0|49=KGI|56=GOLDMF|34=290|52=20151019-00:48:02|10=000|)
<20151019-00:48:01.819, FIX.4.2:GOLDMF->KGI, outgoing>
  (8=FIX.4.2|9=54|35=0|34=290|49=GOLDMF|52=20151019-00:48:01.819|56=KGI|10=211|)
<20151019-00:48:11.819, FIX.4.2:GOLDMF->KGI, incoming>
  (8=FIX.4.2|9=50|35=0|49=KGI|56=GOLDMF|34=291|52=20151019-00:48:12|10=002|)
<20151019-00:48:11.819, FIX.4.2:GOLDMF->KGI, outgoing>
  (8=FIX.4.2|9=54|35=0|34=291|49=GOLDMF|52=20151019-00:48:11.819|56=KGI|10=213|)
<20151019-00:48:21.819, FIX.4.2:GOLDMF->KGI, incoming>
  (8=FIX.4.2|9=50|35=0|49=KGI|56=GOLDMF|34=292|52=20151019-00:48:22|10=004|)
<20151019-00:48:21.819, FIX.4.2:GOLDMF->KGI, outgoing>
  (8=FIX.4.2|9=54|35=0|34=292|49=GOLDMF|52=20151019-00:48:21.819|56=KGI|10=215|)
<20151019-00:48:31.819, FIX.4.2:GOLDMF->KGI, incoming>
  (8=FIX.4.2|9=50|35=0|49=KGI|56=GOLDMF|34=293|52=20151019-00:48:32|10=006|)
<20151019-00:48:31.820, FIX.4.2:GOLDMF->KGI, outgoing>
  (8=FIX.4.2|9=54|35=0|34=293|49=GOLDMF|52=20151019-00:48:31.820|56=KGI|10=209|)
<20151019-00:48:41.821, FIX.4.2:GOLDMF->KGI, incoming>
  (8=FIX.4.2|9=50|35=0|49=KGI|56=GOLDMF|34=294|52=20151019-00:48:42|10=008|)
<20151019-00:48:41.821, FIX.4.2:GOLDMF->KGI, outgoing>
  (8=FIX.4.2|9=54|35=0|34=294|49=GOLDMF|52=20151019-00:48:41.821|56=KGI|10=212|)
<20151019-00:48:51.820, FIX.4.2:GOLDMF->KGI, incoming>
  (8=FIX.4.2|9=50|35=0|49=KGI|56=GOLDMF|34=295|52=20151019-00:48:52|10=010|)
<20151019-00:48:51.820, FIX.4.2:GOLDMF->KGI, outgoing>
  (8=FIX.4.2|9=54|35=0|34=295|49=GOLDMF|52=20151019-00:48:51.820|56=KGI|10=213|)
<20151019-00:49:01.005, FIX.4.2:GOLDMF->KGI, outgoing>
  (8=FIX.4.2|9=54|35=0|34=296|49=GOLDMF|52=20151019-00:49:01.005|56=KGI|10=205|)
<20151019-00:49:01.821, FIX.4.2:GOLDMF->KGI, incoming>
  (8=FIX.4.2|9=50|35=0|49=KGI|56=GOLDMF|34=296|52=20151019-00:49:02|10=007|)
<20151019-00:49:11.015, FIX.4.2:GOLDMF->KGI, outgoing>
  (8=FIX.4.2|9=54|35=0|34=297|49=GOLDMF|52=20151019-00:49:11.015|56=KGI|10=208|)
<20151019-00:49:11.821, FIX.4.2:GOLDMF->KGI, incoming>
  (8=FIX.4.2|9=50|35=0|49=KGI|56=GOLDMF|34=297|52=20151019-00:49:12|10=009|)
<20151019-00:49:21.025, FIX.4.2:GOLDMF->KGI, outgoing>
  (8=FIX.4.2|9=54|35=0|34=298|49=GOLDMF|52=20151019-00:49:21.025|56=KGI|10=211|)
<20151019-00:49:21.821, FIX.4.2:GOLDMF->KGI, incoming>
  (8=FIX.4.2|9=50|35=0|49=KGI|56=GOLDMF|34=298|52=20151019-00:49:22|10=011|)
<20151019-00:49:31.035, FIX.4.2:GOLDMF->KGI, outgoing>
  (8=FIX.4.2|9=54|35=0|34=299|49=GOLDMF|52=20151019-00:49:31.035|56=KGI|10=214|)
<20151019-00:49:31.822, FIX.4.2:GOLDMF->KGI, incoming>
  (8=FIX.4.2|9=50|35=0|49=KGI|56=GOLDMF|34=299|52=20151019-00:49:32|10=013|)
<20151019-00:49:41.044, FIX.4.2:GOLDMF->KGI, outgoing>
  (8=FIX.4.2|9=54|35=0|34=300|49=GOLDMF|52=20151019-00:49:41.044|56=KGI|10=198|)
<20151019-00:49:41.822, FIX.4.2:GOLDMF->KGI, incoming>
  (8=FIX.4.2|9=50|35=0|49=KGI|56=GOLDMF|34=300|52=20151019-00:49:42|10=253|)
<20151019-00:49:51.054, FIX.4.2:GOLDMF->KGI, outgoing>
  (8=FIX.4.2|9=54|35=0|34=301|49=GOLDMF|52=20151019-00:49:51.054|56=KGI|10=201|)
<20151019-00:49:51.823, FIX.4.2:GOLDMF->KGI, incoming>
  (8=FIX.4.2|9=50|35=0|49=KGI|56=GOLDMF|34=301|52=20151019-00:49:52|10=255|)
<20151019-00:50:01.064, FIX.4.2:GOLDMF->KGI, outgoing>
  (8=FIX.4.2|9=54|35=0|34=302|49=GOLDMF|52=20151019-00:50:01.064|56=KGI|10=190|)
<20151019-00:50:01.823, FIX.4.2:GOLDMF->KGI, incoming>
  (8=FIX.4.2|9=50|35=0|49=KGI|56=GOLDMF|34=302|52=20151019-00:50:02|10=243|)
<20151019-00:50:11.074, FIX.4.2:GOLDMF->KGI, outgoing>
  (8=FIX.4.2|9=54|35=0|34=303|49=GOLDMF|52=20151019-00:50:11.074|56=KGI|10=193|)
<20151019-00:50:11.823, FIX.4.2:GOLDMF->KGI, incoming>
  (8=FIX.4.2|9=50|35=0|49=KGI|56=GOLDMF|34=303|52=20151019-00:50:12|10=245|)
<20151019-00:50:21.084, FIX.4.2:GOLDMF->KGI, outgoing>
  (8=FIX.4.2|9=54|35=0|34=304|49=GOLDMF|52=20151019-00:50:21.084|56=KGI|10=196|)
<20151019-00:50:21.823, FIX.4.2:GOLDMF->KGI, incoming>
  (8=FIX.4.2|9=50|35=0|49=KGI|56=GOLDMF|34=304|52=20151019-00:50:22|10=247|)
<20151019-00:50:31.094, FIX.4.2:GOLDMF->KGI, outgoing>
  (8=FIX.4.2|9=54|35=0|34=305|49=GOLDMF|52=20151019-00:50:31.094|56=KGI|10=199|)
<20151019-00:50:31.826, FIX.4.2:GOLDMF->KGI, incoming>
  (8=FIX.4.2|9=50|35=0|49=KGI|56=GOLDMF|34=305|52=20151019-00:50:32|10=249|)
<20151019-00:50:41.103, FIX.4.2:GOLDMF->KGI, outgoing>
  (8=FIX.4.2|9=54|35=0|34=306|49=GOLDMF|52=20151019-00:50:41.103|56=KGI|10=192|)
<20151019-00:50:41.826, FIX.4.2:GOLDMF->KGI, incoming>
  (8=FIX.4.2|9=50|35=0|49=KGI|56=GOLDMF|34=306|52=20151019-00:50:42|10=251|)
<20151019-00:50:51.113, FIX.4.2:GOLDMF->KGI, outgoing>
  (8=FIX.4.2|9=54|35=0|34=307|49=GOLDMF|52=20151019-00:50:51.113|56=KGI|10=195|)
<20151019-00:50:51.856, FIX.4.2:GOLDMF->KGI, incoming>
  (8=FIX.4.2|9=50|35=0|49=KGI|56=GOLDMF|34=307|52=20151019-00:50:52|10=253|)
<20151019-00:51:01.123, FIX.4.2:GOLDMF->KGI, outgoing>
  (8=FIX.4.2|9=54|35=0|34=308|49=GOLDMF|52=20151019-00:51:01.123|56=KGI|10=193|)
<20151019-00:51:01.827, FIX.4.2:GOLDMF->KGI, incoming>
  (8=FIX.4.2|9=50|35=0|49=KGI|56=GOLDMF|34=308|52=20151019-00:51:02|10=250|)
<20151019-00:51:11.133, FIX.4.2:GOLDMF->KGI, outgoing>
  (8=FIX.4.2|9=54|35=0|34=309|49=GOLDMF|52=20151019-00:51:11.133|56=KGI|10=196|)
<20151019-00:51:11.828, FIX.4.2:GOLDMF->KGI, incoming>
  (8=FIX.4.2|9=50|35=0|49=KGI|56=GOLDMF|34=309|52=20151019-00:51:12|10=252|)
<20151019-00:51:21.143, FIX.4.2:GOLDMF->KGI, outgoing>
  (8=FIX.4.2|9=54|35=0|34=310|49=GOLDMF|52=20151019-00:51:21.143|56=KGI|10=190|)
<20151019-00:51:21.829, FIX.4.2:GOLDMF->KGI, incoming>
  (8=FIX.4.2|9=50|35=0|49=KGI|56=GOLDMF|34=310|52=20151019-00:51:22|10=245|)
<20151019-00:51:31.153, FIX.4.2:GOLDMF->KGI, outgoing>
  (8=FIX.4.2|9=54|35=0|34=311|49=GOLDMF|52=20151019-00:51:31.153|56=KGI|10=193|)
<20151019-00:51:31.828, FIX.4.2:GOLDMF->KGI, incoming>
  (8=FIX.4.2|9=50|35=0|49=KGI|56=GOLDMF|34=311|52=20151019-00:51:32|10=247|)
<20151019-00:51:41.163, FIX.4.2:GOLDMF->KGI, outgoing>
  (8=FIX.4.2|9=54|35=0|34=312|49=GOLDMF|52=20151019-00:51:41.163|56=KGI|10=196|)
<20151019-00:51:41.829, FIX.4.2:GOLDMF->KGI, incoming>
  (8=FIX.4.2|9=50|35=0|49=KGI|56=GOLDMF|34=312|52=20151019-00:51:42|10=249|)
<20151019-00:51:51.173, FIX.4.2:GOLDMF->KGI, outgoing>
  (8=FIX.4.2|9=54|35=0|34=313|49=GOLDMF|52=20151019-00:51:51.173|56=KGI|10=199|)
<20151019-00:51:51.829, FIX.4.2:GOLDMF->KGI, incoming>
  (8=FIX.4.2|9=50|35=0|49=KGI|56=GOLDMF|34=313|52=20151019-00:51:52|10=251|)
<20151019-00:52:01.183, FIX.4.2:GOLDMF->KGI, outgoing>
  (8=FIX.4.2|9=54|35=0|34=314|49=GOLDMF|52=20151019-00:52:01.183|56=KGI|10=197|)
<20151019-00:52:01.830, FIX.4.2:GOLDMF->KGI, incoming>
  (8=FIX.4.2|9=50|35=0|49=KGI|56=GOLDMF|34=314|52=20151019-00:52:02|10=248|)
<20151019-00:52:11.193, FIX.4.2:GOLDMF->KGI, outgoing>
  (8=FIX.4.2|9=54|35=0|34=315|49=GOLDMF|52=20151019-00:52:11.193|56=KGI|10=200|)
<20151019-00:52:11.830, FIX.4.2:GOLDMF->KGI, incoming>
  (8=FIX.4.2|9=50|35=0|49=KGI|56=GOLDMF|34=315|52=20151019-00:52:12|10=250|)
<20151019-00:52:21.203, FIX.4.2:GOLDMF->KGI, outgoing>
  (8=FIX.4.2|9=54|35=0|34=316|49=GOLDMF|52=20151019-00:52:21.202|56=KGI|10=193|)
<20151019-00:52:21.831, FIX.4.2:GOLDMF->KGI, incoming>
  (8=FIX.4.2|9=50|35=0|49=KGI|56=GOLDMF|34=316|52=20151019-00:52:22|10=252|)
<20151019-00:52:31.212, FIX.4.2:GOLDMF->KGI, outgoing>
  (8=FIX.4.2|9=54|35=0|34=317|49=GOLDMF|52=20151019-00:52:31.212|56=KGI|10=196|)
<20151019-00:52:31.831, FIX.4.2:GOLDMF->KGI, incoming>
  (8=FIX.4.2|9=50|35=0|49=KGI|56=GOLDMF|34=317|52=20151019-00:52:32|10=254|)
<20151019-00:52:41.222, FIX.4.2:GOLDMF->KGI, outgoing>
  (8=FIX.4.2|9=54|35=0|34=318|49=GOLDMF|52=20151019-00:52:41.222|56=KGI|10=199|)
<20151019-00:52:41.831, FIX.4.2:GOLDMF->KGI, incoming>
  (8=FIX.4.2|9=50|35=0|49=KGI|56=GOLDMF|34=318|52=20151019-00:52:42|10=000|)
<20151019-00:52:51.232, FIX.4.2:GOLDMF->KGI, outgoing>
  (8=FIX.4.2|9=54|35=0|34=319|49=GOLDMF|52=20151019-00:52:51.232|56=KGI|10=202|)
<20151019-00:52:51.831, FIX.4.2:GOLDMF->KGI, incoming>
  (8=FIX.4.2|9=50|35=0|49=KGI|56=GOLDMF|34=319|52=20151019-00:52:52|10=002|)
<20151019-00:53:01.242, FIX.4.2:GOLDMF->KGI, outgoing>
  (8=FIX.4.2|9=54|35=0|34=320|49=GOLDMF|52=20151019-00:53:01.242|56=KGI|10=191|)
<20151019-00:53:01.832, FIX.4.2:GOLDMF->KGI, incoming>
  (8=FIX.4.2|9=50|35=0|49=KGI|56=GOLDMF|34=320|52=20151019-00:53:02|10=246|)
<20151019-00:53:11.252, FIX.4.2:GOLDMF->KGI, outgoing>
  (8=FIX.4.2|9=54|35=0|34=321|49=GOLDMF|52=20151019-00:53:11.252|56=KGI|10=194|)
<20151019-00:53:11.832, FIX.4.2:GOLDMF->KGI, incoming>
  (8=FIX.4.2|9=50|35=0|49=KGI|56=GOLDMF|34=321|52=20151019-00:53:12|10=248|)
<20151019-00:53:21.262, FIX.4.2:GOLDMF->KGI, outgoing>
  (8=FIX.4.2|9=54|35=0|34=322|49=GOLDMF|52=20151019-00:53:21.262|56=KGI|10=197|)
<20151019-00:53:21.833, FIX.4.2:GOLDMF->KGI, incoming>
  (8=FIX.4.2|9=50|35=0|49=KGI|56=GOLDMF|34=322|52=20151019-00:53:22|10=250|)
<20151019-00:53:31.272, FIX.4.2:GOLDMF->KGI, outgoing>
  (8=FIX.4.2|9=54|35=0|34=323|49=GOLDMF|52=20151019-00:53:31.272|56=KGI|10=200|)
<20151019-00:53:31.832, FIX.4.2:GOLDMF->KGI, incoming>
  (8=FIX.4.2|9=50|35=0|49=KGI|56=GOLDMF|34=323|52=20151019-00:53:32|10=252|)
<20151019-00:53:41.282, FIX.4.2:GOLDMF->KGI, outgoing>
  (8=FIX.4.2|9=54|35=0|34=324|49=GOLDMF|52=20151019-00:53:41.282|56=KGI|10=203|)
<20151019-00:53:41.833, FIX.4.2:GOLDMF->KGI, incoming>
  (8=FIX.4.2|9=50|35=0|49=KGI|56=GOLDMF|34=324|52=20151019-00:53:42|10=254|)
<20151019-00:53:51.292, FIX.4.2:GOLDMF->KGI, outgoing>
  (8=FIX.4.2|9=54|35=0|34=325|49=GOLDMF|52=20151019-00:53:51.292|56=KGI|10=206|)
<20151019-00:53:51.833, FIX.4.2:GOLDMF->KGI, incoming>
  (8=FIX.4.2|9=50|35=0|49=KGI|56=GOLDMF|34=325|52=20151019-00:53:52|10=000|)
<20151019-00:54:01.302, FIX.4.2:GOLDMF->KGI, outgoing>
  (8=FIX.4.2|9=54|35=0|34=326|49=GOLDMF|52=20151019-00:54:01.302|56=KGI|10=195|)
<20151019-00:54:01.834, FIX.4.2:GOLDMF->KGI, incoming>
  (8=FIX.4.2|9=50|35=0|49=KGI|56=GOLDMF|34=326|52=20151019-00:54:02|10=253|)
<20151019-00:54:11.312, FIX.4.2:GOLDMF->KGI, outgoing>
  (8=FIX.4.2|9=54|35=0|34=327|49=GOLDMF|52=20151019-00:54:11.312|56=KGI|10=198|)
<20151019-00:54:11.834, FIX.4.2:GOLDMF->KGI, incoming>
  (8=FIX.4.2|9=50|35=0|49=KGI|56=GOLDMF|34=327|52=20151019-00:54:12|10=255|)
<20151019-00:54:21.323, FIX.4.2:GOLDMF->KGI, outgoing>
  (8=FIX.4.2|9=54|35=0|34=328|49=GOLDMF|52=20151019-00:54:21.322|56=KGI|10=201|)
<20151019-00:54:21.834, FIX.4.2:GOLDMF->KGI, incoming>
  (8=FIX.4.2|9=50|35=0|49=KGI|56=GOLDMF|34=328|52=20151019-00:54:22|10=001|)
<20151019-00:54:31.333, FIX.4.2:GOLDMF->KGI, outgoing>
  (8=FIX.4.2|9=54|35=0|34=329|49=GOLDMF|52=20151019-00:54:31.333|56=KGI|10=205|)
<20151019-00:54:31.835, FIX.4.2:GOLDMF->KGI, incoming>
  (8=FIX.4.2|9=50|35=0|49=KGI|56=GOLDMF|34=329|52=20151019-00:54:32|10=003|)
<20151019-00:54:41.343, FIX.4.2:GOLDMF->KGI, outgoing>
  (8=FIX.4.2|9=54|35=0|34=330|49=GOLDMF|52=20151019-00:54:41.343|56=KGI|10=199|)
<20151019-00:54:41.835, FIX.4.2:GOLDMF->KGI, incoming>
  (8=FIX.4.2|9=50|35=0|49=KGI|56=GOLDMF|34=330|52=20151019-00:54:42|10=252|)
<20151019-00:54:51.353, FIX.4.2:GOLDMF->KGI, outgoing>
  (8=FIX.4.2|9=54|35=0|34=331|49=GOLDMF|52=20151019-00:54:51.353|56=KGI|10=202|)
<20151019-00:54:51.836, FIX.4.2:GOLDMF->KGI, incoming>
  (8=FIX.4.2|9=50|35=0|49=KGI|56=GOLDMF|34=331|52=20151019-00:54:52|10=254|)
<20151019-00:55:01.363, FIX.4.2:GOLDMF->KGI, outgoing>
  (8=FIX.4.2|9=54|35=0|34=332|49=GOLDMF|52=20151019-00:55:01.363|56=KGI|10=200|)
<20151019-00:55:01.838, FIX.4.2:GOLDMF->KGI, incoming>
  (8=FIX.4.2|9=50|35=0|49=KGI|56=GOLDMF|34=332|52=20151019-00:55:02|10=251|)
<20151019-00:55:11.373, FIX.4.2:GOLDMF->KGI, outgoing>
  (8=FIX.4.2|9=54|35=0|34=333|49=GOLDMF|52=20151019-00:55:11.373|56=KGI|10=203|)
<20151019-00:55:11.838, FIX.4.2:GOLDMF->KGI, incoming>
  (8=FIX.4.2|9=50|35=0|49=KGI|56=GOLDMF|34=333|52=20151019-00:55:12|10=253|)
<20151019-00:55:21.382, FIX.4.2:GOLDMF->KGI, outgoing>
  (8=FIX.4.2|9=54|35=0|34=334|49=GOLDMF|52=20151019-00:55:21.382|56=KGI|10=205|)
<20151019-00:55:21.838, FIX.4.2:GOLDMF->KGI, incoming>
  (8=FIX.4.2|9=50|35=0|49=KGI|56=GOLDMF|34=334|52=20151019-00:55:22|10=255|)
<20151019-00:55:31.392, FIX.4.2:GOLDMF->KGI, outgoing>
  (8=FIX.4.2|9=54|35=0|34=335|49=GOLDMF|52=20151019-00:55:31.392|56=KGI|10=208|)
<20151019-00:55:31.838, FIX.4.2:GOLDMF->KGI, incoming>
  (8=FIX.4.2|9=50|35=0|49=KGI|56=GOLDMF|34=335|52=20151019-00:55:32|10=001|)
<20151019-00:55:41.402, FIX.4.2:GOLDMF->KGI, outgoing>
  (8=FIX.4.2|9=54|35=0|34=336|49=GOLDMF|52=20151019-00:55:41.402|56=KGI|10=202|)
<20151019-00:55:41.839, FIX.4.2:GOLDMF->KGI, incoming>
  (8=FIX.4.2|9=50|35=0|49=KGI|56=GOLDMF|34=336|52=20151019-00:55:42|10=003|)
<20151019-00:55:51.413, FIX.4.2:GOLDMF->KGI, outgoing>
  (8=FIX.4.2|9=54|35=0|34=337|49=GOLDMF|52=20151019-00:55:51.412|56=KGI|10=205|)
<20151019-00:55:51.867, FIX.4.2:GOLDMF->KGI, incoming>
  (8=FIX.4.2|9=50|35=0|49=KGI|56=GOLDMF|34=337|52=20151019-00:55:52|10=005|)
<20151019-00:56:01.422, FIX.4.2:GOLDMF->KGI, outgoing>
  (8=FIX.4.2|9=54|35=0|34=338|49=GOLDMF|52=20151019-00:56:01.422|56=KGI|10=203|)
<20151019-00:56:01.863, FIX.4.2:GOLDMF->KGI, incoming>
  (8=FIX.4.2|9=50|35=0|49=KGI|56=GOLDMF|34=338|52=20151019-00:56:01|10=001|)
<20151019-00:56:11.432, FIX.4.2:GOLDMF->KGI, outgoing>
  (8=FIX.4.2|9=54|35=0|34=339|49=GOLDMF|52=20151019-00:56:11.432|56=KGI|10=206|)
<20151019-00:56:11.863, FIX.4.2:GOLDMF->KGI, incoming>
  (8=FIX.4.2|9=50|35=0|49=KGI|56=GOLDMF|34=339|52=20151019-00:56:11|10=003|)
<20151019-00:56:21.442, FIX.4.2:GOLDMF->KGI, outgoing>
  (8=FIX.4.2|9=54|35=0|34=340|49=GOLDMF|52=20151019-00:56:21.442|56=KGI|10=200|)
<20151019-00:56:21.864, FIX.4.2:GOLDMF->KGI, incoming>
  (8=FIX.4.2|9=50|35=0|49=KGI|56=GOLDMF|34=340|52=20151019-00:56:21|10=252|)
<20151019-00:56:31.452, FIX.4.2:GOLDMF->KGI, outgoing>
  (8=FIX.4.2|9=54|35=0|34=341|49=GOLDMF|52=20151019-00:56:31.452|56=KGI|10=203|)
<20151019-00:56:31.864, FIX.4.2:GOLDMF->KGI, incoming>
  (8=FIX.4.2|9=50|35=0|49=KGI|56=GOLDMF|34=341|52=20151019-00:56:31|10=254|)
<20151019-00:56:41.463, FIX.4.2:GOLDMF->KGI, outgoing>
  (8=FIX.4.2|9=54|35=0|34=342|49=GOLDMF|52=20151019-00:56:41.463|56=KGI|10=207|)
<20151019-00:56:41.864, FIX.4.2:GOLDMF->KGI, incoming>
  (8=FIX.4.2|9=50|35=0|49=KGI|56=GOLDMF|34=342|52=20151019-00:56:41|10=000|)
<20151019-00:56:51.473, FIX.4.2:GOLDMF->KGI, outgoing>
  (8=FIX.4.2|9=54|35=0|34=343|49=GOLDMF|52=20151019-00:56:51.473|56=KGI|10=210|)
<20151019-00:56:51.915, FIX.4.2:GOLDMF->KGI, incoming>
  (8=FIX.4.2|9=50|35=0|49=KGI|56=GOLDMF|34=343|52=20151019-00:56:53|10=004|)
<20151019-00:57:01.483, FIX.4.2:GOLDMF->KGI, outgoing>
  (8=FIX.4.2|9=54|35=0|34=344|49=GOLDMF|52=20151019-00:57:01.483|56=KGI|10=208|)
<20151019-00:57:01.916, FIX.4.2:GOLDMF->KGI, incoming>
  (8=FIX.4.2|9=50|35=0|49=KGI|56=GOLDMF|34=344|52=20151019-00:57:03|10=001|)
<20151019-00:57:11.493, FIX.4.2:GOLDMF->KGI, outgoing>
  (8=FIX.4.2|9=54|35=0|34=345|49=GOLDMF|52=20151019-00:57:11.493|56=KGI|10=211|)
<20151019-00:57:11.919, FIX.4.2:GOLDMF->KGI, incoming>
  (8=FIX.4.2|9=50|35=0|49=KGI|56=GOLDMF|34=345|52=20151019-00:57:13|10=003|)
<20151019-00:57:21.503, FIX.4.2:GOLDMF->KGI, outgoing>
  (8=FIX.4.2|9=54|35=0|34=346|49=GOLDMF|52=20151019-00:57:21.503|56=KGI|10=205|)
<20151019-00:57:21.916, FIX.4.2:GOLDMF->KGI, incoming>
  (8=FIX.4.2|9=50|35=0|49=KGI|56=GOLDMF|34=346|52=20151019-00:57:23|10=005|)
<20151019-00:57:31.513, FIX.4.2:GOLDMF->KGI, outgoing>
  (8=FIX.4.2|9=54|35=0|34=347|49=GOLDMF|52=20151019-00:57:31.513|56=KGI|10=208|)
<20151019-00:57:31.916, FIX.4.2:GOLDMF->KGI, incoming>
  (8=FIX.4.2|9=50|35=0|49=KGI|56=GOLDMF|34=347|52=20151019-00:57:33|10=007|)
<20151019-00:57:41.524, FIX.4.2:GOLDMF->KGI, outgoing>
  (8=FIX.4.2|9=54|35=0|34=348|49=GOLDMF|52=20151019-00:57:41.524|56=KGI|10=212|)
<20151019-00:57:41.916, FIX.4.2:GOLDMF->KGI, incoming>
  (8=FIX.4.2|9=50|35=0|49=KGI|56=GOLDMF|34=348|52=20151019-00:57:43|10=009|)
<20151019-00:57:51.536, FIX.4.2:GOLDMF->KGI, outgoing>
  (8=FIX.4.2|9=54|35=0|34=349|49=GOLDMF|52=20151019-00:57:51.536|56=KGI|10=217|)
<20151019-00:57:51.968, FIX.4.2:GOLDMF->KGI, incoming>
  (8=FIX.4.2|9=50|35=0|49=KGI|56=GOLDMF|34=349|52=20151019-00:57:53|10=011|)
<20151019-00:58:01.546, FIX.4.2:GOLDMF->KGI, outgoing>
  (8=FIX.4.2|9=54|35=0|34=350|49=GOLDMF|52=20151019-00:58:01.546|56=KGI|10=206|)
<20151019-00:58:01.968, FIX.4.2:GOLDMF->KGI, incoming>
  (8=FIX.4.2|9=50|35=0|49=KGI|56=GOLDMF|34=350|52=20151019-00:58:02|10=254|)
<20151019-00:58:11.556, FIX.4.2:GOLDMF->KGI, outgoing>
  (8=FIX.4.2|9=54|35=0|34=351|49=GOLDMF|52=20151019-00:58:11.556|56=KGI|10=209|)
<20151019-00:58:11.969, FIX.4.2:GOLDMF->KGI, incoming>
  (8=FIX.4.2|9=50|35=0|49=KGI|56=GOLDMF|34=351|52=20151019-00:58:12|10=000|)
<20151019-00:58:21.566, FIX.4.2:GOLDMF->KGI, outgoing>
  (8=FIX.4.2|9=54|35=0|34=352|49=GOLDMF|52=20151019-00:58:21.566|56=KGI|10=212|)
<20151019-00:58:21.969, FIX.4.2:GOLDMF->KGI, incoming>
  (8=FIX.4.2|9=50|35=0|49=KGI|56=GOLDMF|34=352|52=20151019-00:58:22|10=002|)
<20151019-00:58:31.576, FIX.4.2:GOLDMF->KGI, outgoing>
  (8=FIX.4.2|9=54|35=0|34=353|49=GOLDMF|52=20151019-00:58:31.576|56=KGI|10=215|)
<20151019-00:58:31.969, FIX.4.2:GOLDMF->KGI, incoming>
  (8=FIX.4.2|9=50|35=0|49=KGI|56=GOLDMF|34=353|52=20151019-00:58:32|10=004|)
<20151019-00:58:41.586, FIX.4.2:GOLDMF->KGI, outgoing>
  (8=FIX.4.2|9=54|35=0|34=354|49=GOLDMF|52=20151019-00:58:41.586|56=KGI|10=218|)
<20151019-00:58:41.970, FIX.4.2:GOLDMF->KGI, incoming>
  (8=FIX.4.2|9=50|35=0|49=KGI|56=GOLDMF|34=354|52=20151019-00:58:42|10=006|)
<20151019-00:58:51.596, FIX.4.2:GOLDMF->KGI, outgoing>
  (8=FIX.4.2|9=54|35=0|34=355|49=GOLDMF|52=20151019-00:58:51.596|56=KGI|10=221|)
<20151019-00:58:52.022, FIX.4.2:GOLDMF->KGI, incoming>
  (8=FIX.4.2|9=50|35=0|49=KGI|56=GOLDMF|34=355|52=20151019-00:58:53|10=009|)
<20151019-00:59:01.607, FIX.4.2:GOLDMF->KGI, outgoing>
  (8=FIX.4.2|9=54|35=0|34=356|49=GOLDMF|52=20151019-00:59:01.607|56=KGI|10=211|)
<20151019-00:59:02.022, FIX.4.2:GOLDMF->KGI, incoming>
  (8=FIX.4.2|9=50|35=0|49=KGI|56=GOLDMF|34=356|52=20151019-00:59:02|10=005|)
<20151019-00:59:11.617, FIX.4.2:GOLDMF->KGI, outgoing>
  (8=FIX.4.2|9=54|35=0|34=357|49=GOLDMF|52=20151019-00:59:11.617|56=KGI|10=214|)
<20151019-00:59:12.022, FIX.4.2:GOLDMF->KGI, incoming>
  (8=FIX.4.2|9=50|35=0|49=KGI|56=GOLDMF|34=357|52=20151019-00:59:12|10=007|)
<20151019-00:59:21.627, FIX.4.2:GOLDMF->KGI, outgoing>
  (8=FIX.4.2|9=54|35=0|34=358|49=GOLDMF|52=20151019-00:59:21.627|56=KGI|10=217|)
<20151019-00:59:22.023, FIX.4.2:GOLDMF->KGI, incoming>
  (8=FIX.4.2|9=50|35=0|49=KGI|56=GOLDMF|34=358|52=20151019-00:59:22|10=009|)
<20151019-00:59:31.637, FIX.4.2:GOLDMF->KGI, outgoing>
  (8=FIX.4.2|9=54|35=0|34=359|49=GOLDMF|52=20151019-00:59:31.637|56=KGI|10=220|)
<20151019-00:59:32.023, FIX.4.2:GOLDMF->KGI, incoming>
  (8=FIX.4.2|9=50|35=0|49=KGI|56=GOLDMF|34=359|52=20151019-00:59:32|10=011|)
<20151019-00:59:41.647, FIX.4.2:GOLDMF->KGI, outgoing>
  (8=FIX.4.2|9=54|35=0|34=360|49=GOLDMF|52=20151019-00:59:41.647|56=KGI|10=214|)
<20151019-00:59:42.023, FIX.4.2:GOLDMF->KGI, incoming>
  (8=FIX.4.2|9=50|35=0|49=KGI|56=GOLDMF|34=360|52=20151019-00:59:42|10=004|)
<20151019-00:59:51.657, FIX.4.2:GOLDMF->KGI, outgoing>
  (8=FIX.4.2|9=54|35=0|34=361|49=GOLDMF|52=20151019-00:59:51.657|56=KGI|10=217|)
<20151019-00:59:52.078, FIX.4.2:GOLDMF->KGI, incoming>
  (8=FIX.4.2|9=50|35=0|49=KGI|56=GOLDMF|34=361|52=20151019-00:59:53|10=007|)
<20151019-01:00:01.667, FIX.4.2:GOLDMF->KGI, outgoing>
  (8=FIX.4.2|9=54|35=0|34=362|49=GOLDMF|52=20151019-01:00:01.667|56=KGI|10=201|)
<20151019-01:00:02.079, FIX.4.2:GOLDMF->KGI, incoming>
  (8=FIX.4.2|9=50|35=0|49=KGI|56=GOLDMF|34=362|52=20151019-01:00:02|10=245|)
<20151019-01:00:11.677, FIX.4.2:GOLDMF->KGI, outgoing>
  (8=FIX.4.2|9=54|35=0|34=363|49=GOLDMF|52=20151019-01:00:11.677|56=KGI|10=204|)
<20151019-01:00:12.079, FIX.4.2:GOLDMF->KGI, incoming>
  (8=FIX.4.2|9=50|35=0|49=KGI|56=GOLDMF|34=363|52=20151019-01:00:13|10=248|)
<20151019-01:00:21.688, FIX.4.2:GOLDMF->KGI, outgoing>
  (8=FIX.4.2|9=54|35=0|34=364|49=GOLDMF|52=20151019-01:00:21.688|56=KGI|10=208|)
<20151019-01:00:22.080, FIX.4.2:GOLDMF->KGI, incoming>
  (8=FIX.4.2|9=50|35=0|49=KGI|56=GOLDMF|34=364|52=20151019-01:00:23|10=250|)
<20151019-01:00:31.698, FIX.4.2:GOLDMF->KGI, outgoing>
  (8=FIX.4.2|9=54|35=0|34=365|49=GOLDMF|52=20151019-01:00:31.698|56=KGI|10=211|)
<20151019-01:00:32.080, FIX.4.2:GOLDMF->KGI, incoming>
  (8=FIX.4.2|9=50|35=0|49=KGI|56=GOLDMF|34=365|52=20151019-01:00:33|10=252|)
<20151019-01:00:41.708, FIX.4.2:GOLDMF->KGI, outgoing>
  (8=FIX.4.2|9=54|35=0|34=366|49=GOLDMF|52=20151019-01:00:41.708|56=KGI|10=205|)
<20151019-01:00:42.081, FIX.4.2:GOLDMF->KGI, incoming>
  (8=FIX.4.2|9=50|35=0|49=KGI|56=GOLDMF|34=366|52=20151019-01:00:43|10=254|)
<20151019-01:00:51.718, FIX.4.2:GOLDMF->KGI, outgoing>
  (8=FIX.4.2|9=54|35=0|34=367|49=GOLDMF|52=20151019-01:00:51.718|56=KGI|10=208|)
<20151019-01:00:52.131, FIX.4.2:GOLDMF->KGI, incoming>
  (8=FIX.4.2|9=50|35=0|49=KGI|56=GOLDMF|34=367|52=20151019-01:00:53|10=000|)
<20151019-01:01:01.728, FIX.4.2:GOLDMF->KGI, outgoing>
  (8=FIX.4.2|9=54|35=0|34=368|49=GOLDMF|52=20151019-01:01:01.728|56=KGI|10=206|)
<20151019-01:01:02.132, FIX.4.2:GOLDMF->KGI, incoming>
  (8=FIX.4.2|9=50|35=0|49=KGI|56=GOLDMF|34=368|52=20151019-01:01:02|10=252|)
<20151019-01:01:11.738, FIX.4.2:GOLDMF->KGI, outgoing>
  (8=FIX.4.2|9=54|35=0|34=369|49=GOLDMF|52=20151019-01:01:11.738|56=KGI|10=209|)
<20151019-01:01:12.411, FIX.4.2:GOLDMF->KGI, incoming>
  (8=FIX.4.2|9=50|35=0|49=KGI|56=GOLDMF|34=369|52=20151019-01:01:12|10=254|)
<20151019-01:01:21.748, FIX.4.2:GOLDMF->KGI, outgoing>
  (8=FIX.4.2|9=54|35=0|34=370|49=GOLDMF|52=20151019-01:01:21.748|56=KGI|10=203|)
<20151019-01:01:22.135, FIX.4.2:GOLDMF->KGI, incoming>
  (8=FIX.4.2|9=50|35=0|49=KGI|56=GOLDMF|34=370|52=20151019-01:01:22|10=247|)
<20151019-01:01:31.758, FIX.4.2:GOLDMF->KGI, outgoing>
  (8=FIX.4.2|9=54|35=0|34=371|49=GOLDMF|52=20151019-01:01:31.758|56=KGI|10=206|)
<20151019-01:01:32.135, FIX.4.2:GOLDMF->KGI, incoming>
  (8=FIX.4.2|9=50|35=0|49=KGI|56=GOLDMF|34=371|52=20151019-01:01:33|10=250|)
<20151019-01:01:41.769, FIX.4.2:GOLDMF->KGI, outgoing>
  (8=FIX.4.2|9=54|35=0|34=372|49=GOLDMF|52=20151019-01:01:41.769|56=KGI|10=210|)
