<20150825-12:57:49.217, FIX.4.2:GOLDMF->KGI, event>
  (Created session)
<20150825-12:57:49.218, FIX.4.2:GOLDMF->KGI, event>
  (Connecting to 192.168.210.46 on port 41160)
<20150825-12:57:49.229, FIX.4.2:GOLDMF->KGI, outgoing>
  (8=FIX.4.2|9=67|35=A|34=3746|49=GOLDMF|52=20150825-12:57:49.229|56=KGI|98=0|108=10|10=070|)
<20150825-12:57:49.229, FIX.4.2:GOLDMF->KGI, event>
  (Initiated logon request)
<20150825-12:57:49.845, FIX.4.2:GOLDMF->KGI, incoming>
  (8=FIX.4.2|9=63|35=A|49=KGI|56=GOLDMF|34=3715|52=20150825-12:57:51|108=10|98=0|10=108|)
<20150825-12:57:49.845, FIX.4.2:GOLDMF->KGI, event>
  (Received logon response)

Logon - FIX.4.2:GOLDMF->KGI
<20150825-12:57:50.057, FIX.4.2:GOLDMF->KGI, incoming>
  (8=FIX.4.2|9=66|35=2|49=KGI|56=GOLDMF|34=3716|52=20150825-12:57:51|7=3745|16=3745|10=010|)
<20150825-12:57:50.057, FIX.4.2:GOLDMF->KGI, event>
  (Received ResendRequest FROM: 3745 TO: 3745)
<20150825-12:57:50.057, FIX.4.2:GOLDMF->KGI, outgoing>
  (8=FIX.4.2|9=100|35=4|34=3745|43=Y|49=GOLDMF|52=20150825-12:57:50.057|56=KGI|122=20150825-12:57:50.057|36=3746|123=Y|10=235|)
<20150825-12:57:50.057, FIX.4.2:GOLDMF->KGI, event>
  (Sent SequenceReset TO: 3746)
<20150825-12:57:59.846, FIX.4.2:GOLDMF->KGI, incoming>
  (8=FIX.4.2|9=51|35=0|49=KGI|56=GOLDMF|34=3717|52=20150825-12:58:01|10=063|)
<20150825-12:58:00.228, FIX.4.2:GOLDMF->KGI, outgoing>
  (8=FIX.4.2|9=55|35=0|34=3747|49=GOLDMF|52=20150825-12:58:00.228|56=KGI|10=015|)
<20150825-12:58:09.846, FIX.4.2:GOLDMF->KGI, incoming>
  (8=FIX.4.2|9=51|35=0|49=KGI|56=GOLDMF|34=3718|52=20150825-12:58:11|10=065|)
<20150825-12:58:10.238, FIX.4.2:GOLDMF->KGI, outgoing>
  (8=FIX.4.2|9=55|35=0|34=3748|49=GOLDMF|52=20150825-12:58:10.238|56=KGI|10=018|)
<20150825-12:58:19.847, FIX.4.2:GOLDMF->KGI, incoming>
  (8=FIX.4.2|9=51|35=0|49=KGI|56=GOLDMF|34=3719|52=20150825-12:58:21|10=067|)
<20150825-12:58:20.248, FIX.4.2:GOLDMF->KGI, outgoing>
  (8=FIX.4.2|9=55|35=0|34=3749|49=GOLDMF|52=20150825-12:58:20.248|56=KGI|10=021|)
<20150825-12:58:29.847, FIX.4.2:GOLDMF->KGI, incoming>
  (8=FIX.4.2|9=51|35=0|49=KGI|56=GOLDMF|34=3720|52=20150825-12:58:31|10=060|)
<20150825-12:58:30.258, FIX.4.2:GOLDMF->KGI, outgoing>
  (8=FIX.4.2|9=55|35=0|34=3750|49=GOLDMF|52=20150825-12:58:30.258|56=KGI|10=015|)
<20150825-12:58:39.848, FIX.4.2:GOLDMF->KGI, incoming>
  (8=FIX.4.2|9=51|35=0|49=KGI|56=GOLDMF|34=3721|52=20150825-12:58:41|10=062|)
<20150825-12:58:40.268, FIX.4.2:GOLDMF->KGI, outgoing>
  (8=FIX.4.2|9=55|35=0|34=3751|49=GOLDMF|52=20150825-12:58:40.268|56=KGI|10=018|)
<20150825-12:58:49.855, FIX.4.2:GOLDMF->KGI, incoming>
  (8=FIX.4.2|9=51|35=0|49=KGI|56=GOLDMF|34=3722|52=20150825-12:58:51|10=064|)
<20150825-12:58:50.278, FIX.4.2:GOLDMF->KGI, outgoing>
  (8=FIX.4.2|9=55|35=0|34=3752|49=GOLDMF|52=20150825-12:58:50.278|56=KGI|10=021|)
<20150825-12:58:59.850, FIX.4.2:GOLDMF->KGI, incoming>
  (8=FIX.4.2|9=51|35=0|49=KGI|56=GOLDMF|34=3723|52=20150825-12:59:01|10=061|)
<20150825-12:59:00.288, FIX.4.2:GOLDMF->KGI, outgoing>
  (8=FIX.4.2|9=55|35=0|34=3753|49=GOLDMF|52=20150825-12:59:00.288|56=KGI|10=019|)
<20150825-12:59:09.850, FIX.4.2:GOLDMF->KGI, incoming>
  (8=FIX.4.2|9=51|35=0|49=KGI|56=GOLDMF|34=3724|52=20150825-12:59:11|10=063|)
<20150825-12:59:10.298, FIX.4.2:GOLDMF->KGI, outgoing>
  (8=FIX.4.2|9=55|35=0|34=3754|49=GOLDMF|52=20150825-12:59:10.298|56=KGI|10=022|)
<20150825-12:59:19.851, FIX.4.2:GOLDMF->KGI, incoming>
  (8=FIX.4.2|9=51|35=0|49=KGI|56=GOLDMF|34=3725|52=20150825-12:59:21|10=065|)
<20150825-12:59:20.308, FIX.4.2:GOLDMF->KGI, outgoing>
  (8=FIX.4.2|9=55|35=0|34=3755|49=GOLDMF|52=20150825-12:59:20.308|56=KGI|10=016|)
<20150825-12:59:29.852, FIX.4.2:GOLDMF->KGI, incoming>
  (8=FIX.4.2|9=51|35=0|49=KGI|56=GOLDMF|34=3726|52=20150825-12:59:31|10=067|)
<20150825-12:59:30.318, FIX.4.2:GOLDMF->KGI, outgoing>
  (8=FIX.4.2|9=55|35=0|34=3756|49=GOLDMF|52=20150825-12:59:30.318|56=KGI|10=019|)
<20150825-12:59:39.853, FIX.4.2:GOLDMF->KGI, incoming>
  (8=FIX.4.2|9=51|35=0|49=KGI|56=GOLDMF|34=3727|52=20150825-12:59:41|10=069|)
<20150825-12:59:40.329, FIX.4.2:GOLDMF->KGI, outgoing>
  (8=FIX.4.2|9=55|35=0|34=3757|49=GOLDMF|52=20150825-12:59:40.328|56=KGI|10=022|)
<20150825-12:59:49.854, FIX.4.2:GOLDMF->KGI, incoming>
  (8=FIX.4.2|9=51|35=0|49=KGI|56=GOLDMF|34=3728|52=20150825-12:59:51|10=071|)
<20150825-12:59:50.339, FIX.4.2:GOLDMF->KGI, outgoing>
  (8=FIX.4.2|9=55|35=0|34=3758|49=GOLDMF|52=20150825-12:59:50.339|56=KGI|10=026|)
<20150825-12:59:59.854, FIX.4.2:GOLDMF->KGI, incoming>
  (8=FIX.4.2|9=51|35=0|49=KGI|56=GOLDMF|34=3729|52=20150825-13:00:00|10=053|)
<20150825-13:00:00.349, FIX.4.2:GOLDMF->KGI, outgoing>
  (8=FIX.4.2|9=55|35=0|34=3759|49=GOLDMF|52=20150825-13:00:00.349|56=KGI|10=010|)
<20150825-13:00:09.855, FIX.4.2:GOLDMF->KGI, incoming>
  (8=FIX.4.2|9=51|35=0|49=KGI|56=GOLDMF|34=3730|52=20150825-13:00:10|10=046|)
<20150825-13:00:10.359, FIX.4.2:GOLDMF->KGI, outgoing>
  (8=FIX.4.2|9=55|35=0|34=3760|49=GOLDMF|52=20150825-13:00:10.359|56=KGI|10=004|)
<20150825-13:00:19.855, FIX.4.2:GOLDMF->KGI, incoming>
  (8=FIX.4.2|9=51|35=0|49=KGI|56=GOLDMF|34=3731|52=20150825-13:00:20|10=048|)
<20150825-13:00:20.369, FIX.4.2:GOLDMF->KGI, outgoing>
  (8=FIX.4.2|9=55|35=0|34=3761|49=GOLDMF|52=20150825-13:00:20.369|56=KGI|10=007|)
<20150825-13:00:29.856, FIX.4.2:GOLDMF->KGI, incoming>
  (8=FIX.4.2|9=51|35=0|49=KGI|56=GOLDMF|34=3732|52=20150825-13:00:30|10=050|)
<20150825-13:00:30.379, FIX.4.2:GOLDMF->KGI, outgoing>
  (8=FIX.4.2|9=55|35=0|34=3762|49=GOLDMF|52=20150825-13:00:30.379|56=KGI|10=010|)
<20150825-13:00:39.856, FIX.4.2:GOLDMF->KGI, incoming>
  (8=FIX.4.2|9=51|35=0|49=KGI|56=GOLDMF|34=3733|52=20150825-13:00:40|10=052|)
<20150825-13:00:40.389, FIX.4.2:GOLDMF->KGI, outgoing>
  (8=FIX.4.2|9=55|35=0|34=3763|49=GOLDMF|52=20150825-13:00:40.389|56=KGI|10=013|)
<20150825-13:00:49.857, FIX.4.2:GOLDMF->KGI, incoming>
  (8=FIX.4.2|9=51|35=0|49=KGI|56=GOLDMF|34=3734|52=20150825-13:00:50|10=054|)
<20150825-13:00:50.398, FIX.4.2:GOLDMF->KGI, outgoing>
  (8=FIX.4.2|9=55|35=0|34=3764|49=GOLDMF|52=20150825-13:00:50.398|56=KGI|10=015|)
<20150825-13:00:59.857, FIX.4.2:GOLDMF->KGI, incoming>
  (8=FIX.4.2|9=51|35=0|49=KGI|56=GOLDMF|34=3735|52=20150825-13:01:00|10=051|)
<20150825-13:01:00.409, FIX.4.2:GOLDMF->KGI, outgoing>
  (8=FIX.4.2|9=55|35=0|34=3765|49=GOLDMF|52=20150825-13:01:00.408|56=KGI|10=004|)
<20150825-13:01:09.857, FIX.4.2:GOLDMF->KGI, incoming>
  (8=FIX.4.2|9=51|35=0|49=KGI|56=GOLDMF|34=3736|52=20150825-13:01:10|10=053|)
<20150825-13:01:10.419, FIX.4.2:GOLDMF->KGI, outgoing>
  (8=FIX.4.2|9=55|35=0|34=3766|49=GOLDMF|52=20150825-13:01:10.419|56=KGI|10=008|)
<20150825-13:01:19.858, FIX.4.2:GOLDMF->KGI, incoming>
  (8=FIX.4.2|9=51|35=0|49=KGI|56=GOLDMF|34=3737|52=20150825-13:01:20|10=055|)
<20150825-13:01:20.429, FIX.4.2:GOLDMF->KGI, outgoing>
  (8=FIX.4.2|9=55|35=0|34=3767|49=GOLDMF|52=20150825-13:01:20.429|56=KGI|10=011|)
<20150825-13:01:29.858, FIX.4.2:GOLDMF->KGI, incoming>
  (8=FIX.4.2|9=51|35=0|49=KGI|56=GOLDMF|34=3738|52=20150825-13:01:30|10=057|)
<20150825-13:01:30.439, FIX.4.2:GOLDMF->KGI, outgoing>
  (8=FIX.4.2|9=55|35=0|34=3768|49=GOLDMF|52=20150825-13:01:30.439|56=KGI|10=014|)
<20150825-13:01:39.861, FIX.4.2:GOLDMF->KGI, incoming>
  (8=FIX.4.2|9=51|35=0|49=KGI|56=GOLDMF|34=3739|52=20150825-13:01:40|10=059|)
<20150825-13:01:40.449, FIX.4.2:GOLDMF->KGI, outgoing>
  (8=FIX.4.2|9=55|35=0|34=3769|49=GOLDMF|52=20150825-13:01:40.449|56=KGI|10=017|)
<20150825-13:01:49.861, FIX.4.2:GOLDMF->KGI, incoming>
  (8=FIX.4.2|9=51|35=0|49=KGI|56=GOLDMF|34=3740|52=20150825-13:01:50|10=052|)
<20150825-13:01:50.459, FIX.4.2:GOLDMF->KGI, outgoing>
  (8=FIX.4.2|9=55|35=0|34=3770|49=GOLDMF|52=20150825-13:01:50.459|56=KGI|10=011|)
<20150825-13:01:59.861, FIX.4.2:GOLDMF->KGI, incoming>
  (8=FIX.4.2|9=51|35=0|49=KGI|56=GOLDMF|34=3741|52=20150825-13:02:00|10=049|)
<20150825-13:02:00.469, FIX.4.2:GOLDMF->KGI, outgoing>
  (8=FIX.4.2|9=55|35=0|34=3771|49=GOLDMF|52=20150825-13:02:00.469|56=KGI|10=009|)
<20150825-13:02:09.862, FIX.4.2:GOLDMF->KGI, incoming>
  (8=FIX.4.2|9=51|35=0|49=KGI|56=GOLDMF|34=3742|52=20150825-13:02:10|10=051|)
<20150825-13:02:10.480, FIX.4.2:GOLDMF->KGI, outgoing>
  (8=FIX.4.2|9=55|35=0|34=3772|49=GOLDMF|52=20150825-13:02:10.480|56=KGI|10=004|)
<20150825-13:02:19.862, FIX.4.2:GOLDMF->KGI, incoming>
  (8=FIX.4.2|9=51|35=0|49=KGI|56=GOLDMF|34=3743|52=20150825-13:02:20|10=053|)
<20150825-13:02:20.489, FIX.4.2:GOLDMF->KGI, outgoing>
  (8=FIX.4.2|9=55|35=0|34=3773|49=GOLDMF|52=20150825-13:02:20.489|56=KGI|10=015|)
