8=FIX.4.2|9=68|35=A|34=1|49=GOLDMF|52=20150716-02:12:12.248|56=KGITEST|98=0|108=30|10=210|8=FIX.4.2|9=143|35=D|34=2|49=GOLDMF|52=20150716-02:12:27.638|56=KGITEST|1=ACCOUNTPHP|11=1234567|21=1|38=1000|40=7|44=9,54|54=1|55=0700|60=2015-07-09T01:08:18Z|10=026|8=FIX.4.2|9=68|35=A|34=3|49=GOLDMF|52=20150716-02:25:29.329|56=KGITEST|98=0|108=30|10=224|8=FIX.4.2|9=143|35=D|34=4|49=GOLDMF|52=20150716-02:25:33.999|56=KGITEST|1=ACCOUNTPHP|11=1234567|21=1|38=1000|40=7|44=9,54|54=1|55=0700|60=2015-07-09T01:08:18Z|10=039|8=FIX.4.2|9=56|35=0|34=5|49=GOLDMF|52=20150716-02:26:03.031|56=KGITEST|10=164|8=FIX.4.2|9=143|35=D|34=6|49=GOLDMF|52=20150716-02:26:08.523|56=KGITEST|1=ACCOUNTPHP|11=1234567|21=1|38=1000|40=7|44=9,54|54=1|55=0700|60=2015-07-09T01:08:18Z|10=027|8=FIX.4.2|9=143|35=D|34=7|49=GOLDMF|52=20150716-02:26:26.782|56=KGITEST|1=ACCOUNTPHP|11=1234567|21=1|38=1000|40=7|44=9,54|54=1|55=0700|60=2015-07-09T01:08:18Z|10=035|8=FIX.4.2|9=68|35=A|34=8|49=GOLDMF|52=20150716-02:28:54.289|56=KGITEST|98=0|108=30|10=235|8=FIX.4.2|9=65|35=2|34=9|49=GOLDMF|52=20150716-02:28:54.898|56=KGITEST|7=7|16=0|10=072|8=FIX.4.2|9=69|35=A|34=10|49=GOLDMF|52=20150716-03:06:57.424|56=KGITEST|98=0|108=30|10=012|8=FIX.4.2|9=66|35=2|34=11|49=GOLDMF|52=20150716-03:06:58.035|56=KGITEST|7=7|16=0|10=098|8=FIX.4.2|9=144|35=D|34=12|49=GOLDMF|52=20150716-03:07:03.698|56=KGITEST|1=ACCOUNTPHP|11=1234567|21=1|38=1000|40=7|44=9,54|54=1|55=0700|60=2015-07-09T01:08:18Z|10=081|8=FIX.4.2|9=57|35=0|34=13|49=GOLDMF|52=20150716-03:07:33.458|56=KGITEST|10=228|8=FIX.4.2|9=57|35=0|34=14|49=GOLDMF|52=20150716-03:08:03.488|56=KGITEST|10=230|8=FIX.4.2|9=57|35=0|34=15|49=GOLDMF|52=20150716-03:08:33.520|56=KGITEST|10=221|8=FIX.4.2|9=57|35=0|34=16|49=GOLDMF|52=20150716-03:09:03.552|56=KGITEST|10=225|8=FIX.4.2|9=57|35=0|34=17|49=GOLDMF|52=20150716-03:09:33.583|56=KGITEST|10=233|8=FIX.4.2|9=57|35=0|34=18|49=GOLDMF|52=20150716-03:10:03.603|56=KGITEST|10=216|8=FIX.4.2|9=57|35=0|34=19|49=GOLDMF|52=20150716-03:10:33.635|56=KGITEST|10=225|8=FIX.4.2|9=57|35=0|34=20|49=GOLDMF|52=20150716-03:11:03.665|56=KGITEST|10=218|8=FIX.4.2|9=57|35=0|34=21|49=GOLDMF|52=20150716-03:11:33.697|56=KGITEST|10=227|8=FIX.4.2|9=57|35=0|34=22|49=GOLDMF|52=20150716-03:12:03.729|56=KGITEST|10=222|8=FIX.4.2|9=57|35=0|34=23|49=GOLDMF|52=20150716-03:12:33.740|56=KGITEST|10=219|8=FIX.4.2|9=57|35=0|34=24|49=GOLDMF|52=20150716-03:13:03.741|56=KGITEST|10=219|8=FIX.4.2|9=57|35=0|34=25|49=GOLDMF|52=20150716-03:13:33.741|56=KGITEST|10=223|8=FIX.4.2|9=57|35=0|34=26|49=GOLDMF|52=20150716-03:14:03.741|56=KGITEST|10=222|8=FIX.4.2|9=57|35=0|34=27|49=GOLDMF|52=20150716-03:14:33.742|56=KGITEST|10=227|8=FIX.4.2|9=57|35=0|34=28|49=GOLDMF|52=20150716-03:15:03.743|56=KGITEST|10=227|8=FIX.4.2|9=57|35=0|34=29|49=GOLDMF|52=20150716-03:15:33.743|56=KGITEST|10=231|8=FIX.4.2|9=57|35=0|34=30|49=GOLDMF|52=20150716-03:16:03.743|56=KGITEST|10=221|8=FIX.4.2|9=57|35=0|34=31|49=GOLDMF|52=20150716-03:16:33.008|56=KGITEST|10=219|8=FIX.4.2|9=57|35=0|34=32|49=GOLDMF|52=20150716-03:17:03.040|56=KGITEST|10=214|8=FIX.4.2|9=57|35=0|34=33|49=GOLDMF|52=20150716-03:17:33.071|56=KGITEST|10=222|8=FIX.4.2|9=57|35=0|34=34|49=GOLDMF|52=20150716-03:18:03.102|56=KGITEST|10=216|8=FIX.4.2|9=57|35=0|34=35|49=GOLDMF|52=20150716-03:18:33.135|56=KGITEST|10=226|8=FIX.4.2|9=57|35=0|34=36|49=GOLDMF|52=20150716-03:19:03.167|56=KGITEST|10=230|8=FIX.4.2|9=57|35=0|34=37|49=GOLDMF|52=20150716-03:19:33.199|56=KGITEST|10=239|8=FIX.4.2|9=57|35=0|34=38|49=GOLDMF|52=20150716-03:20:03.230|56=KGITEST|10=215|8=FIX.4.2|9=57|35=0|34=39|49=GOLDMF|52=20150716-03:20:33.239|56=KGITEST|10=228|8=FIX.4.2|9=57|35=0|34=40|49=GOLDMF|52=20150716-03:21:03.246|56=KGITEST|10=216|8=FIX.4.2|9=57|35=0|34=41|49=GOLDMF|52=20150716-03:21:33.253|56=KGITEST|10=218|8=FIX.4.2|9=57|35=0|34=42|49=GOLDMF|52=20150716-03:22:03.260|56=KGITEST|10=215|8=FIX.4.2|9=57|35=0|34=43|49=GOLDMF|52=20150716-03:22:33.268|56=KGITEST|10=227|8=FIX.4.2|9=57|35=0|34=44|49=GOLDMF|52=20150716-03:23:03.275|56=KGITEST|10=224|8=FIX.4.2|9=57|35=0|34=45|49=GOLDMF|52=20150716-03:23:33.282|56=KGITEST|10=226|8=FIX.4.2|9=57|35=0|34=46|49=GOLDMF|52=20150716-03:24:03.289|56=KGITEST|10=232|8=FIX.4.2|9=57|35=0|34=47|49=GOLDMF|52=20150716-03:24:33.314|56=KGITEST|10=225|8=FIX.4.2|9=57|35=0|34=48|49=GOLDMF|52=20150716-03:25:03.345|56=KGITEST|10=228|8=FIX.4.2|9=57|35=0|34=49|49=GOLDMF|52=20150716-03:25:33.377|56=KGITEST|10=237|8=FIX.4.2|9=57|35=0|34=50|49=GOLDMF|52=20150716-03:26:03.409|56=KGITEST|10=223|8=FIX.4.2|9=57|35=0|34=51|49=GOLDMF|52=20150716-03:26:33.441|56=KGITEST|10=223|8=FIX.4.2|9=57|35=0|34=52|49=GOLDMF|52=20150716-03:27:03.472|56=KGITEST|10=226|8=FIX.4.2|9=57|35=0|34=53|49=GOLDMF|52=20150716-03:27:33.504|56=KGITEST|10=226|8=FIX.4.2|9=57|35=0|34=54|49=GOLDMF|52=20150716-03:28:03.517|56=KGITEST|10=229|8=FIX.4.2|9=57|35=0|34=55|49=GOLDMF|52=20150716-03:28:33.530|56=KGITEST|10=228|8=FIX.4.2|9=57|35=0|34=56|49=GOLDMF|52=20150716-03:29:03.562|56=KGITEST|10=232|8=FIX.4.2|9=57|35=0|34=57|49=GOLDMF|52=20150716-03:29:33.592|56=KGITEST|10=239|8=FIX.4.2|9=57|35=0|34=58|49=GOLDMF|52=20150716-03:30:03.612|56=KGITEST|10=222|8=FIX.4.2|9=57|35=0|34=59|49=GOLDMF|52=20150716-03:30:33.644|56=KGITEST|10=231|8=FIX.4.2|9=57|35=0|34=60|49=GOLDMF|52=20150716-03:31:03.676|56=KGITEST|10=226|8=FIX.4.2|9=57|35=0|34=61|49=GOLDMF|52=20150716-03:31:33.709|56=KGITEST|10=227|8=FIX.4.2|9=57|35=0|34=62|49=GOLDMF|52=20150716-03:32:03.741|56=KGITEST|10=222|8=FIX.4.2|9=57|35=0|34=63|49=GOLDMF|52=20150716-03:32:33.757|56=KGITEST|10=233|8=FIX.4.2|9=57|35=0|34=64|49=GOLDMF|52=20150716-03:33:03.758|56=KGITEST|10=233|8=FIX.4.2|9=57|35=0|34=65|49=GOLDMF|52=20150716-03:33:33.758|56=KGITEST|10=237|8=FIX.4.2|9=57|35=0|34=66|49=GOLDMF|52=20150716-03:34:03.758|56=KGITEST|10=236|8=FIX.4.2|9=57|35=0|34=67|49=GOLDMF|52=20150716-03:34:33.758|56=KGITEST|10=240|8=FIX.4.2|9=57|35=0|34=68|49=GOLDMF|52=20150716-03:35:03.759|56=KGITEST|10=240|8=FIX.4.2|9=57|35=0|34=69|49=GOLDMF|52=20150716-03:35:33.759|56=KGITEST|10=244|8=FIX.4.2|9=57|35=0|34=70|49=GOLDMF|52=20150716-03:36:03.760|56=KGITEST|10=226|8=FIX.4.2|9=57|35=0|34=71|49=GOLDMF|52=20150716-03:36:33.017|56=KGITEST|10=225|8=FIX.4.2|9=57|35=0|34=72|49=GOLDMF|52=20150716-03:37:03.049|56=KGITEST|10=229|8=FIX.4.2|9=57|35=0|34=73|49=GOLDMF|52=20150716-03:37:33.081|56=KGITEST|10=229|8=FIX.4.2|9=57|35=0|34=74|49=GOLDMF|52=20150716-03:38:03.114|56=KGITEST|10=225|8=FIX.4.2|9=57|35=0|34=75|49=GOLDMF|52=20150716-03:38:33.146|56=KGITEST|10=234|8=FIX.4.2|9=57|35=0|34=76|49=GOLDMF|52=20150716-03:39:03.177|56=KGITEST|10=237|