8=FIX.4.2|9=70|35=A|34=1|49=CLIENT1|52=20150713-01:28:44.665|56=EXECUTOR|98=0|108=30|10=097|8=FIX.4.2|9=70|35=A|34=2|49=CLIENT1|52=20150713-01:29:44.512|56=EXECUTOR|98=0|108=30|10=090|8=FIX.4.2|9=58|35=5|34=3|49=CLIENT1|52=20150713-01:29:51.519|56=EXECUTOR|10=065|8=FIX.4.2|9=70|35=A|34=4|49=CLIENT1|52=20150713-01:31:49.166|56=EXECUTOR|98=0|108=30|10=095|8=FIX.4.2|9=70|35=A|34=5|49=CLIENT1|52=20150713-01:41:02.995|56=EXECUTOR|98=0|108=30|10=096|8=FIX.4.2|9=70|35=A|34=6|49=CLIENT1|52=20150713-01:44:06.641|56=EXECUTOR|98=0|108=30|10=092|8=FIX.4.2|9=58|35=0|34=7|49=CLIENT1|52=20150713-01:44:36.672|56=EXECUTOR|10=064|8=FIX.4.2|9=58|35=0|34=8|49=CLIENT1|52=20150713-01:45:06.702|56=EXECUTOR|10=057|8=FIX.4.2|9=70|35=A|34=9|49=CLIENT1|52=20150713-01:45:56.030|56=EXECUTOR|98=0|108=30|10=093|8=FIX.4.2|9=71|35=A|34=10|49=CLIENT1|52=20150713-01:46:45.235|56=EXECUTOR|98=0|108=30|10=140|8=FIX.4.2|9=59|35=5|34=11|49=CLIENT1|52=20150713-01:46:46.236|56=EXECUTOR|10=112|8=FIX.4.2|9=71|35=A|34=12|49=CLIENT1|52=20150713-01:48:19.381|56=EXECUTOR|98=0|108=30|10=147|8=FIX.4.2|9=59|35=5|34=13|49=CLIENT1|52=20150713-01:48:23.386|56=EXECUTOR|10=117|8=FIX.4.2|9=71|35=A|34=14|49=CLIENT1|52=20150713-02:08:43.527|56=EXECUTOR|98=0|108=30|10=145|8=FIX.4.2|9=71|35=A|34=15|49=CLIENT1|52=20150713-02:08:48.107|56=EXECUTOR|98=0|108=30|10=145|8=FIX.4.2|9=59|35=0|34=16|49=CLIENT1|52=20150713-02:09:18.138|56=EXECUTOR|10=112|8=FIX.4.2|9=59|35=0|34=17|49=CLIENT1|52=20150713-02:09:48.167|56=EXECUTOR|10=118|8=FIX.4.2|9=59|35=0|34=18|49=CLIENT1|52=20150713-02:10:18.198|56=EXECUTOR|10=112|8=FIX.4.2|9=59|35=0|34=19|49=CLIENT1|52=20150713-02:10:48.229|56=EXECUTOR|10=111|8=FIX.4.2|9=59|35=0|34=20|49=CLIENT1|52=20150713-02:11:18.259|56=EXECUTOR|10=104|8=FIX.4.2|9=59|35=0|34=21|49=CLIENT1|52=20150713-02:11:48.289|56=EXECUTOR|10=111|8=FIX.4.2|9=59|35=0|34=22|49=CLIENT1|52=20150713-02:12:18.320|56=EXECUTOR|10=096|8=FIX.4.2|9=59|35=0|34=23|49=CLIENT1|52=20150713-02:12:48.351|56=EXECUTOR|10=104|8=FIX.4.2|9=59|35=0|34=24|49=CLIENT1|52=20150713-02:13:18.382|56=EXECUTOR|10=107|8=FIX.4.2|9=59|35=0|34=25|49=CLIENT1|52=20150713-02:13:48.412|56=EXECUTOR|10=105|8=FIX.4.2|9=59|35=0|34=26|49=CLIENT1|52=20150713-02:14:18.443|56=EXECUTOR|10=108|8=FIX.4.2|9=59|35=0|34=27|49=CLIENT1|52=20150713-02:14:48.472|56=EXECUTOR|10=114|8=FIX.4.2|9=59|35=0|34=28|49=CLIENT1|52=20150713-02:15:18.502|56=EXECUTOR|10=107|8=FIX.4.2|9=59|35=0|34=29|49=CLIENT1|52=20150713-02:15:48.534|56=EXECUTOR|10=116|8=FIX.4.2|9=59|35=0|34=30|49=CLIENT1|52=20150713-02:16:18.565|56=EXECUTOR|10=110|8=FIX.4.2|9=59|35=0|34=31|49=CLIENT1|52=20150713-02:16:48.596|56=EXECUTOR|10=118|8=FIX.4.2|9=59|35=0|34=32|49=CLIENT1|52=20150713-02:17:18.627|56=EXECUTOR|10=112|8=FIX.4.2|9=59|35=0|34=33|49=CLIENT1|52=20150713-02:17:48.657|56=EXECUTOR|10=119|8=FIX.4.2|9=59|35=0|34=34|49=CLIENT1|52=20150713-02:18:18.688|56=EXECUTOR|10=122|8=FIX.4.2|9=71|35=A|34=35|49=CLIENT1|52=20150713-02:53:32.769|56=EXECUTOR|98=0|108=30|10=154|8=FIX.4.2|9=71|35=A|34=36|49=CLIENT1|52=20150713-02:54:28.227|56=EXECUTOR|98=0|108=30|10=150|8=FIX.4.2|9=59|35=0|34=37|49=CLIENT1|52=20150713-02:55:33.268|56=EXECUTOR|10=117|8=FIX.4.2|9=68|35=0|34=38|49=CLIENT1|52=20150713-02:55:33.268|56=EXECUTOR|112=TEST|10=136|8=FIX.4.2|9=59|35=0|34=39|49=CLIENT1|52=20150713-02:56:03.629|56=EXECUTOR|10=118|8=FIX.4.2|9=59|35=0|34=40|49=CLIENT1|52=20150713-02:56:33.660|56=EXECUTOR|10=108|8=FIX.4.2|9=59|35=0|34=41|49=CLIENT1|52=20150713-02:57:03.691|56=EXECUTOR|10=111|8=FIX.4.2|9=59|35=0|34=42|49=CLIENT1|52=20150713-02:57:33.722|56=EXECUTOR|10=110|8=FIX.4.2|9=59|35=0|34=43|49=CLIENT1|52=20150713-02:58:03.753|56=EXECUTOR|10=113|8=FIX.4.2|9=59|35=0|34=44|49=CLIENT1|52=20150713-02:58:33.784|56=EXECUTOR|10=121|8=FIX.4.2|9=59|35=0|34=45|49=CLIENT1|52=20150713-02:59:03.815|56=EXECUTOR|10=115|8=FIX.4.2|9=59|35=0|34=46|49=CLIENT1|52=20150713-02:59:33.845|56=EXECUTOR|10=122|8=FIX.4.2|9=59|35=0|34=47|49=CLIENT1|52=20150713-03:00:03.876|56=EXECUTOR|10=111|8=FIX.4.2|9=59|35=0|34=48|49=CLIENT1|52=20150713-03:00:33.907|56=EXECUTOR|10=110|8=FIX.4.2|9=59|35=0|34=49|49=CLIENT1|52=20150713-03:01:03.938|56=EXECUTOR|10=113|8=FIX.4.2|9=59|35=0|34=50|49=CLIENT1|52=20150713-03:01:33.970|56=EXECUTOR|10=104|8=FIX.4.2|9=59|35=0|34=51|49=CLIENT1|52=20150713-03:02:03.000|56=EXECUTOR|10=087|8=FIX.4.2|9=59|35=0|34=52|49=CLIENT1|52=20150713-03:02:33.031|56=EXECUTOR|10=095|8=FIX.4.2|9=59|35=0|34=53|49=CLIENT1|52=20150713-03:03:03.062|56=EXECUTOR|10=098|8=FIX.4.2|9=59|35=0|34=54|49=CLIENT1|52=20150713-03:03:33.093|56=EXECUTOR|10=106|8=FIX.4.2|9=59|35=0|34=55|49=CLIENT1|52=20150713-03:04:03.124|56=EXECUTOR|10=100|8=FIX.4.2|9=59|35=0|34=56|49=CLIENT1|52=20150713-03:04:33.155|56=EXECUTOR|10=108|8=FIX.4.2|9=59|35=0|34=57|49=CLIENT1|52=20150713-03:05:03.186|56=EXECUTOR|10=111|8=FIX.4.2|9=59|35=0|34=58|49=CLIENT1|52=20150713-03:05:33.217|56=EXECUTOR|10=110|8=FIX.4.2|9=59|35=0|34=59|49=CLIENT1|52=20150713-03:06:03.247|56=EXECUTOR|10=112|8=FIX.4.2|9=59|35=0|34=60|49=CLIENT1|52=20150713-03:06:33.278|56=EXECUTOR|10=111|8=FIX.4.2|9=59|35=0|34=61|49=CLIENT1|52=20150713-03:07:03.309|56=EXECUTOR|10=105|8=FIX.4.2|9=59|35=0|34=62|49=CLIENT1|52=20150713-03:07:33.340|56=EXECUTOR|10=104|8=FIX.4.2|9=59|35=0|34=63|49=CLIENT1|52=20150713-03:08:03.370|56=EXECUTOR|10=106|8=FIX.4.2|9=59|35=0|34=64|49=CLIENT1|52=20150713-03:08:33.402|56=EXECUTOR|10=106|8=FIX.4.2|9=59|35=0|34=65|49=CLIENT1|52=20150713-03:09:03.429|56=EXECUTOR|10=114|8=FIX.4.2|9=59|35=0|34=66|49=CLIENT1|52=20150713-03:09:33.459|56=EXECUTOR|10=121|8=FIX.4.2|9=59|35=0|34=67|49=CLIENT1|52=20150713-03:10:03.490|56=EXECUTOR|10=106|8=FIX.4.2|9=59|35=0|34=68|49=CLIENT1|52=20150713-03:10:33.521|56=EXECUTOR|10=105|8=FIX.4.2|9=59|35=0|34=69|49=CLIENT1|52=20150713-03:11:03.552|56=EXECUTOR|10=108|8=FIX.4.2|9=59|35=0|34=70|49=CLIENT1|52=20150713-03:11:33.583|56=EXECUTOR|10=107|8=FIX.4.2|9=59|35=0|34=71|49=CLIENT1|52=20150713-03:12:03.615|56=EXECUTOR|10=102|8=FIX.4.2|9=59|35=0|34=72|49=CLIENT1|52=20150713-03:12:33.646|56=EXECUTOR|10=110|8=FIX.4.2|9=59|35=0|34=73|49=CLIENT1|52=20150713-03:13:03.677|56=EXECUTOR|10=113|8=FIX.4.2|9=59|35=0|34=74|49=CLIENT1|52=20150713-03:13:33.708|56=EXECUTOR|10=112|8=FIX.4.2|9=59|35=0|34=75|49=CLIENT1|52=20150713-03:14:03.739|56=EXECUTOR|10=115|8=FIX.4.2|9=59|35=0|34=76|49=CLIENT1|52=20150713-03:14:33.770|56=EXECUTOR|10=114|8=FIX.4.2|9=59|35=0|34=77|49=CLIENT1|52=20150713-03:15:03.801|56=EXECUTOR|10=108|8=FIX.4.2|9=59|35=0|34=78|49=CLIENT1|52=20150713-03:15:33.829|56=EXECUTOR|10=122|8=FIX.4.2|9=59|35=0|34=79|49=CLIENT1|52=20150713-03:16:03.861|56=EXECUTOR|10=117|8=FIX.4.2|9=59|35=0|34=80|49=CLIENT1|52=20150713-03:16:33.892|56=EXECUTOR|10=116|8=FIX.4.2|9=59|35=0|34=81|49=CLIENT1|52=20150713-03:17:03.923|56=EXECUTOR|10=110|8=FIX.4.2|9=59|35=0|34=82|49=CLIENT1|52=20150713-03:17:33.954|56=EXECUTOR|10=118|8=FIX.4.2|9=59|35=0|34=83|49=CLIENT1|52=20150713-03:18:03.985|56=EXECUTOR|10=121|8=FIX.4.2|9=59|35=0|34=84|49=CLIENT1|52=20150713-03:18:33.011|56=EXECUTOR|10=105|8=FIX.4.2|9=59|35=0|34=85|49=CLIENT1|52=20150713-03:19:03.042|56=EXECUTOR|10=108|8=FIX.4.2|9=59|35=0|34=86|49=CLIENT1|52=20150713-03:19:33.073|56=EXECUTOR|10=116|8=FIX.4.2|9=59|35=0|34=87|49=CLIENT1|52=20150713-03:20:03.104|56=EXECUTOR|10=101|8=FIX.4.2|9=59|35=0|34=88|49=CLIENT1|52=20150713-03:20:33.135|56=EXECUTOR|10=109|8=FIX.4.2|9=59|35=0|34=89|49=CLIENT1|52=20150713-03:21:03.166|56=EXECUTOR|10=112|8=FIX.4.2|9=59|35=0|34=90|49=CLIENT1|52=20150713-03:21:33.197|56=EXECUTOR|10=111|8=FIX.4.2|9=59|35=0|34=91|49=CLIENT1|52=20150713-03:22:03.228|56=EXECUTOR|10=105|8=FIX.4.2|9=59|35=0|34=92|49=CLIENT1|52=20150713-03:22:33.259|56=EXECUTOR|10=113|8=FIX.4.2|9=59|35=0|34=93|49=CLIENT1|52=20150713-03:23:03.290|56=EXECUTOR|10=107|8=FIX.4.2|9=59|35=0|34=94|49=CLIENT1|52=20150713-03:23:33.321|56=EXECUTOR|10=106|8=FIX.4.2|9=59|35=0|34=95|49=CLIENT1|52=20150713-03:24:03.352|56=EXECUTOR|10=109|8=FIX.4.2|9=59|35=0|34=96|49=CLIENT1|52=20150713-03:24:33.383|56=EXECUTOR|10=117|8=FIX.4.2|9=59|35=0|34=97|49=CLIENT1|52=20150713-03:25:03.413|56=EXECUTOR|10=110|8=FIX.4.2|9=59|35=0|34=98|49=CLIENT1|52=20150713-03:25:33.444|56=EXECUTOR|10=118|8=FIX.4.2|9=59|35=0|34=99|49=CLIENT1|52=20150713-03:26:03.475|56=EXECUTOR|10=121|8=FIX.4.2|9=60|35=0|34=100|49=CLIENT1|52=20150713-03:26:33.506|56=EXECUTOR|10=142|8=FIX.4.2|9=60|35=0|34=101|49=CLIENT1|52=20150713-03:27:03.537|56=EXECUTOR|10=145|8=FIX.4.2|9=60|35=0|34=102|49=CLIENT1|52=20150713-03:27:33.568|56=EXECUTOR|10=153|8=FIX.4.2|9=60|35=0|34=103|49=CLIENT1|52=20150713-03:28:03.599|56=EXECUTOR|10=156|8=FIX.4.2|9=60|35=0|34=104|49=CLIENT1|52=20150713-03:28:33.630|56=EXECUTOR|10=146|8=FIX.4.2|9=60|35=0|34=105|49=CLIENT1|52=20150713-03:29:03.661|56=EXECUTOR|10=149|8=FIX.4.2|9=60|35=0|34=106|49=CLIENT1|52=20150713-03:29:33.692|56=EXECUTOR|10=157|8=FIX.4.2|9=60|35=0|34=107|49=CLIENT1|52=20150713-03:30:03.723|56=EXECUTOR|10=142|8=FIX.4.2|9=60|35=0|34=108|49=CLIENT1|52=20150713-03:30:33.754|56=EXECUTOR|10=150|8=FIX.4.2|9=60|35=0|34=109|49=CLIENT1|52=20150713-03:31:03.785|56=EXECUTOR|10=153|8=FIX.4.2|9=60|35=0|34=110|49=CLIENT1|52=20150713-03:31:33.816|56=EXECUTOR|10=143|8=FIX.4.2|9=60|35=0|34=111|49=CLIENT1|52=20150713-03:32:03.847|56=EXECUTOR|10=146|8=FIX.4.2|9=60|35=0|34=112|49=CLIENT1|52=20150713-03:32:33.876|56=EXECUTOR|10=152|8=FIX.4.2|9=60|35=0|34=113|49=CLIENT1|52=20150713-03:33:03.907|56=EXECUTOR|10=146|8=FIX.4.2|9=60|35=0|34=114|49=CLIENT1|52=20150713-03:33:33.938|56=EXECUTOR|10=154|8=FIX.4.2|9=60|35=0|34=115|49=CLIENT1|52=20150713-03:34:03.968|56=EXECUTOR|10=156|8=FIX.4.2|9=60|35=0|34=116|49=CLIENT1|52=20150713-03:34:33.999|56=EXECUTOR|10=164|8=FIX.4.2|9=60|35=0|34=117|49=CLIENT1|52=20150713-03:35:03.029|56=EXECUTOR|10=147|8=FIX.4.2|9=60|35=0|34=118|49=CLIENT1|52=20150713-03:35:33.060|56=EXECUTOR|10=146|8=FIX.4.2|9=60|35=0|34=119|49=CLIENT1|52=20150713-03:36:03.090|56=EXECUTOR|10=148|8=FIX.4.2|9=60|35=0|34=120|49=CLIENT1|52=20150713-03:36:33.121|56=EXECUTOR|10=138|8=FIX.4.2|9=60|35=0|34=121|49=CLIENT1|52=20150713-03:37:03.152|56=EXECUTOR|10=141|8=FIX.4.2|9=60|35=0|34=122|49=CLIENT1|52=20150713-03:37:33.162|56=EXECUTOR|10=146|8=FIX.4.2|9=60|35=0|34=123|49=CLIENT1|52=20150713-03:38:03.193|56=EXECUTOR|10=149|8=FIX.4.2|9=60|35=0|34=124|49=CLIENT1|52=20150713-03:38:33.224|56=EXECUTOR|10=148|8=FIX.4.2|9=60|35=0|34=125|49=CLIENT1|52=20150713-03:39:03.254|56=EXECUTOR|10=150|8=FIX.4.2|9=60|35=0|34=126|49=CLIENT1|52=20150713-03:39:33.285|56=EXECUTOR|10=158|8=FIX.4.2|9=60|35=0|34=127|49=CLIENT1|52=20150713-03:40:03.316|56=EXECUTOR|10=143|8=FIX.4.2|9=60|35=0|34=128|49=CLIENT1|52=20150713-03:40:33.347|56=EXECUTOR|10=151|8=FIX.4.2|9=60|35=0|34=129|49=CLIENT1|52=20150713-03:41:03.378|56=EXECUTOR|10=154|8=FIX.4.2|9=60|35=0|34=130|49=CLIENT1|52=20150713-03:41:33.409|56=EXECUTOR|10=144|8=FIX.4.2|9=60|35=0|34=131|49=CLIENT1|52=20150713-03:42:03.440|56=EXECUTOR|10=138|8=FIX.4.2|9=60|35=0|34=132|49=CLIENT1|52=20150713-03:42:33.470|56=EXECUTOR|10=145|8=FIX.4.2|9=60|35=0|34=133|49=CLIENT1|52=20150713-03:43:03.501|56=EXECUTOR|10=139|8=FIX.4.2|9=60|35=0|34=134|49=CLIENT1|52=20150713-03:43:33.532|56=EXECUTOR|10=147|8=FIX.4.2|9=60|35=0|34=135|49=CLIENT1|52=20150713-03:44:03.558|56=EXECUTOR|10=154|8=FIX.4.2|9=60|35=0|34=136|49=CLIENT1|52=20150713-03:44:33.589|56=EXECUTOR|10=162|8=FIX.4.2|9=60|35=0|34=137|49=CLIENT1|52=20150713-03:45:03.621|56=EXECUTOR|10=148|8=FIX.4.2|9=60|35=0|34=138|49=CLIENT1|52=20150713-03:45:33.652|56=EXECUTOR|10=156|8=FIX.4.2|9=60|35=0|34=139|49=CLIENT1|52=20150713-03:46:03.683|56=EXECUTOR|10=159|8=FIX.4.2|9=60|35=0|34=140|49=CLIENT1|52=20150713-03:46:33.714|56=EXECUTOR|10=149|8=FIX.4.2|9=60|35=0|34=141|49=CLIENT1|52=20150713-03:47:03.744|56=EXECUTOR|10=151|8=FIX.4.2|9=60|35=0|34=142|49=CLIENT1|52=20150713-03:47:33.775|56=EXECUTOR|10=159|8=FIX.4.2|9=60|35=0|34=143|49=CLIENT1|52=20150713-03:48:03.806|56=EXECUTOR|10=153|8=FIX.4.2|9=60|35=0|34=144|49=CLIENT1|52=20150713-03:48:33.837|56=EXECUTOR|10=161|8=FIX.4.2|9=60|35=0|34=145|49=CLIENT1|52=20150713-03:49:03.868|56=EXECUTOR|10=164|8=FIX.4.2|9=60|35=0|34=146|49=CLIENT1|52=20150713-03:49:33.899|56=EXECUTOR|10=172|8=FIX.4.2|9=60|35=0|34=147|49=CLIENT1|52=20150713-03:50:03.930|56=EXECUTOR|10=148|8=FIX.4.2|9=60|35=0|34=148|49=CLIENT1|52=20150713-03:50:33.961|56=EXECUTOR|10=156|8=FIX.4.2|9=60|35=0|34=149|49=CLIENT1|52=20150713-03:51:03.992|56=EXECUTOR|10=159|8=FIX.4.2|9=60|35=0|34=150|49=CLIENT1|52=20150713-03:51:33.022|56=EXECUTOR|10=138|8=FIX.4.2|9=60|35=0|34=151|49=CLIENT1|52=20150713-03:52:03.053|56=EXECUTOR|10=141|8=FIX.4.2|9=60|35=0|34=152|49=CLIENT1|52=20150713-03:52:33.083|56=EXECUTOR|10=148|8=FIX.4.2|9=60|35=0|34=153|49=CLIENT1|52=20150713-03:53:03.114|56=EXECUTOR|10=142|8=FIX.4.2|9=60|35=0|34=154|49=CLIENT1|52=20150713-03:53:33.145|56=EXECUTOR|10=150|8=FIX.4.2|9=60|35=0|34=155|49=CLIENT1|52=20150713-03:54:03.176|56=EXECUTOR|10=153|8=FIX.4.2|9=60|35=0|34=156|49=CLIENT1|52=20150713-03:54:33.207|56=EXECUTOR|10=152|8=FIX.4.2|9=60|35=0|34=157|49=CLIENT1|52=20150713-03:55:03.238|56=EXECUTOR|10=155|8=FIX.4.2|9=60|35=0|34=158|49=CLIENT1|52=20150713-03:55:33.269|56=EXECUTOR|10=163|8=FIX.4.2|9=60|35=0|34=159|49=CLIENT1|52=20150713-03:56:03.300|56=EXECUTOR|10=148|8=FIX.4.2|9=60|35=0|34=160|49=CLIENT1|52=20150713-03:56:33.331|56=EXECUTOR|10=147|8=FIX.4.2|9=60|35=0|34=161|49=CLIENT1|52=20150713-03:57:03.362|56=EXECUTOR|10=150|8=FIX.4.2|9=60|35=0|34=162|49=CLIENT1|52=20150713-03:57:33.393|56=EXECUTOR|10=158|8=FIX.4.2|9=60|35=0|34=163|49=CLIENT1|52=20150713-03:58:03.424|56=EXECUTOR|10=152|8=FIX.4.2|9=60|35=0|34=164|49=CLIENT1|52=20150713-03:58:33.455|56=EXECUTOR|10=160|8=FIX.4.2|9=60|35=0|34=165|49=CLIENT1|52=20150713-03:59:03.486|56=EXECUTOR|10=163|8=FIX.4.2|9=60|35=0|34=166|49=CLIENT1|52=20150713-03:59:33.517|56=EXECUTOR|10=162|8=FIX.4.2|9=60|35=0|34=167|49=CLIENT1|52=20150713-04:00:03.547|56=EXECUTOR|10=150|8=FIX.4.2|9=60|35=0|34=168|49=CLIENT1|52=20150713-04:00:33.578|56=EXECUTOR|10=158|8=FIX.4.2|9=60|35=0|34=169|49=CLIENT1|52=20150713-04:01:03.609|56=EXECUTOR|10=152|8=FIX.4.2|9=60|35=0|34=170|49=CLIENT1|52=20150713-04:01:33.640|56=EXECUTOR|10=142|8=FIX.4.2|9=60|35=0|34=171|49=CLIENT1|52=20150713-04:02:03.671|56=EXECUTOR|10=145|8=FIX.4.2|9=60|35=0|34=172|49=CLIENT1|52=20150713-04:02:33.702|56=EXECUTOR|10=144|8=FIX.4.2|9=60|35=0|34=173|49=CLIENT1|52=20150713-04:03:03.731|56=EXECUTOR|10=145|8=FIX.4.2|9=60|35=0|34=174|49=CLIENT1|52=20150713-04:03:33.762|56=EXECUTOR|10=153|8=FIX.4.2|9=60|35=0|34=175|49=CLIENT1|52=20150713-04:04:03.793|56=EXECUTOR|10=156|8=FIX.4.2|9=60|35=0|34=176|49=CLIENT1|52=20150713-04:04:33.824|56=EXECUTOR|10=155|8=FIX.4.2|9=60|35=0|34=177|49=CLIENT1|52=20150713-04:05:03.855|56=EXECUTOR|10=158|8=FIX.4.2|9=60|35=0|34=178|49=CLIENT1|52=20150713-04:05:33.886|56=EXECUTOR|10=166|8=FIX.4.2|9=60|35=0|34=179|49=CLIENT1|52=20150713-04:06:03.910|56=EXECUTOR|10=153|8=FIX.4.2|9=60|35=0|34=180|49=CLIENT1|52=20150713-04:06:33.941|56=EXECUTOR|10=152|8=FIX.4.2|9=60|35=0|34=181|49=CLIENT1|52=20150713-04:07:03.972|56=EXECUTOR|10=155|8=FIX.4.2|9=60|35=0|34=182|49=CLIENT1|52=20150713-04:07:33.002|56=EXECUTOR|10=143|8=FIX.4.2|9=60|35=0|34=183|49=CLIENT1|52=20150713-04:08:03.033|56=EXECUTOR|10=146|8=FIX.4.2|9=60|35=0|34=184|49=CLIENT1|52=20150713-04:08:33.064|56=EXECUTOR|10=154|8=FIX.4.2|9=60|35=0|34=185|49=CLIENT1|52=20150713-04:09:03.095|56=EXECUTOR|10=157|8=FIX.4.2|9=60|35=0|34=186|49=CLIENT1|52=20150713-04:09:33.126|56=EXECUTOR|10=156|8=FIX.4.2|9=60|35=0|34=187|49=CLIENT1|52=20150713-04:10:03.157|56=EXECUTOR|10=150|8=FIX.4.2|9=60|35=0|34=188|49=CLIENT1|52=20150713-04:10:33.188|56=EXECUTOR|10=158|8=FIX.4.2|9=60|35=0|34=189|49=CLIENT1|52=20150713-04:11:03.218|56=EXECUTOR|10=151|8=FIX.4.2|9=60|35=0|34=190|49=CLIENT1|52=20150713-04:11:33.249|56=EXECUTOR|10=150|8=FIX.4.2|9=60|35=0|34=191|49=CLIENT1|52=20150713-04:12:03.280|56=EXECUTOR|10=144|8=FIX.4.2|9=60|35=0|34=192|49=CLIENT1|52=20150713-04:12:33.309|56=EXECUTOR|10=150|8=FIX.4.2|9=60|35=0|34=193|49=CLIENT1|52=20150713-04:13:03.340|56=EXECUTOR|10=144|8=FIX.4.2|9=60|35=0|34=194|49=CLIENT1|52=20150713-04:13:33.371|56=EXECUTOR|10=152|8=FIX.4.2|9=60|35=0|34=195|49=CLIENT1|52=20150713-04:14:03.402|56=EXECUTOR|10=146|8=FIX.4.2|9=60|35=0|34=196|49=CLIENT1|52=20150713-04:14:33.433|56=EXECUTOR|10=154|8=FIX.4.2|9=72|35=A|34=197|49=CLIENT1|52=20150713-07:16:46.147|56=EXECUTOR|98=0|108=30|10=211|8=FIX.4.2|9=60|35=0|34=198|49=CLIENT1|52=20150713-07:17:16.178|56=EXECUTOR|10=169|8=FIX.4.2|9=60|35=0|34=199|49=CLIENT1|52=20150713-07:17:46.209|56=EXECUTOR|10=168|