8=FIX.4.2|9=70|35=A|34=1|49=CLIENT1|52=20150711-07:22:52.689|56=EXECUTOR|98=0|108=30|10=100|8=FIX.4.2|9=58|35=5|34=2|49=CLIENT1|52=20150711-07:22:52.689|56=EXECUTOR|10=070|8=FIX.4.2|9=70|35=A|34=3|49=CLIENT1|52=20150711-07:22:52.689|56=EXECUTOR|98=0|108=30|10=102|8=FIX.4.2|9=70|35=A|34=4|49=CLIENT1|52=20150711-07:22:54.691|56=EXECUTOR|98=0|108=30|10=098|8=FIX.4.2|9=70|35=A|34=5|49=CLIENT1|52=20150711-07:22:56.693|56=EXECUTOR|98=0|108=30|10=103|8=FIX.4.2|9=70|35=A|34=6|49=CLIENT1|52=20150711-07:22:58.696|56=EXECUTOR|98=0|108=30|10=109|8=FIX.4.2|9=58|35=5|34=7|49=CLIENT1|52=20150711-07:22:58.696|56=EXECUTOR|10=079|8=FIX.4.2|9=70|35=A|34=8|49=CLIENT1|52=20150711-07:22:58.696|56=EXECUTOR|98=0|108=30|10=111|8=FIX.4.2|9=70|35=A|34=9|49=CLIENT1|52=20150711-07:23:00.698|56=EXECUTOR|98=0|108=30|10=102|8=FIX.4.2|9=71|35=A|34=10|49=CLIENT1|52=20150711-07:23:02.700|56=EXECUTOR|98=0|108=30|10=129|8=FIX.4.2|9=71|35=A|34=11|49=CLIENT1|52=20150711-07:23:04.703|56=EXECUTOR|98=0|108=30|10=135|8=FIX.4.2|9=59|35=5|34=12|49=CLIENT1|52=20150711-07:23:04.703|56=EXECUTOR|10=105|8=FIX.4.2|9=71|35=A|34=13|49=CLIENT1|52=20150711-07:23:04.703|56=EXECUTOR|98=0|108=30|10=137|8=FIX.4.2|9=71|35=A|34=14|49=CLIENT1|52=20150711-07:23:06.705|56=EXECUTOR|98=0|108=30|10=142|8=FIX.4.2|9=71|35=A|34=15|49=CLIENT1|52=20150711-07:23:08.708|56=EXECUTOR|98=0|108=30|10=148|8=FIX.4.2|9=71|35=A|34=16|49=CLIENT1|52=20150711-07:23:10.710|56=EXECUTOR|98=0|108=30|10=135|8=FIX.4.2|9=59|35=5|34=17|49=CLIENT1|52=20150711-07:23:10.710|56=EXECUTOR|10=105|8=FIX.4.2|9=71|35=A|34=18|49=CLIENT1|52=20150711-07:23:10.710|56=EXECUTOR|98=0|108=30|10=137|8=FIX.4.2|9=71|35=A|34=19|49=CLIENT1|52=20150711-07:23:16.921|56=EXECUTOR|98=0|108=30|10=148|8=FIX.4.2|9=68|35=2|34=20|49=CLIENT1|52=20150711-07:23:16.921|56=EXECUTOR|7=5|16=0|10=233|8=FIX.4.2|9=59|35=0|34=21|49=CLIENT1|52=20150711-07:23:46.952|56=EXECUTOR|10=112|8=FIX.4.2|9=59|35=0|34=22|49=CLIENT1|52=20150711-07:24:16.982|56=EXECUTOR|10=114|8=FIX.4.2|9=59|35=0|34=23|49=CLIENT1|52=20150711-07:24:46.012|56=EXECUTOR|10=102|8=FIX.4.2|9=59|35=0|34=24|49=CLIENT1|52=20150711-07:25:16.043|56=EXECUTOR|10=105|8=FIX.4.2|9=59|35=0|34=25|49=CLIENT1|52=20150711-07:25:46.074|56=EXECUTOR|10=113|8=FIX.4.2|9=59|35=0|34=26|49=CLIENT1|52=20150711-07:26:16.105|56=EXECUTOR|10=107|8=FIX.4.2|9=59|35=0|34=27|49=CLIENT1|52=20150711-07:26:46.134|56=EXECUTOR|10=113|8=FIX.4.2|9=71|35=A|34=28|49=CLIENT1|52=20150711-07:29:19.387|56=EXECUTOR|98=0|108=30|10=163|8=FIX.4.2|9=71|35=A|34=29|49=CLIENT1|52=20150711-07:29:21.389|56=EXECUTOR|98=0|108=30|10=159|8=FIX.4.2|9=71|35=A|34=30|49=CLIENT1|52=20150711-07:29:23.268|56=EXECUTOR|98=0|108=30|10=149|8=FIX.4.2|9=71|35=A|34=31|49=CLIENT1|52=20150711-07:29:25.270|56=EXECUTOR|98=0|108=30|10=145|8=FIX.4.2|9=71|35=A|34=32|49=CLIENT1|52=20150711-07:29:27.565|56=EXECUTOR|98=0|108=30|10=155|8=FIX.4.2|9=71|35=A|34=33|49=CLIENT1|52=20150711-07:30:59.866|56=EXECUTOR|98=0|108=30|10=157|8=FIX.4.2|9=71|35=A|34=34|49=CLIENT1|52=20150711-07:31:12.252|56=EXECUTOR|98=0|108=30|10=137|8=FIX.4.2|9=71|35=A|34=35|49=CLIENT1|52=20150711-07:35:55.241|56=EXECUTOR|98=0|108=30|10=147|8=FIX.4.2|9=71|35=A|34=36|49=CLIENT1|52=20150711-07:36:22.948|56=EXECUTOR|98=0|108=30|10=157|8=FIX.4.2|9=71|35=A|34=37|49=CLIENT1|52=20150711-07:38:09.806|56=EXECUTOR|98=0|108=30|10=158|8=FIX.4.2|9=71|35=A|34=38|49=CLIENT1|52=20150711-07:38:37.833|56=EXECUTOR|98=0|108=30|10=160|8=FIX.4.2|9=71|35=A|34=39|49=CLIENT1|52=20150711-07:38:38.717|56=EXECUTOR|98=0|108=30|10=163|8=FIX.4.2|9=71|35=A|34=40|49=CLIENT1|52=20150711-07:38:43.318|56=EXECUTOR|98=0|108=30|10=148|8=FIX.4.2|9=71|35=A|34=41|49=CLIENT1|52=20150711-07:38:51.326|56=EXECUTOR|98=0|108=30|10=147|8=FIX.4.2|9=71|35=A|34=42|49=CLIENT1|52=20150711-07:38:53.328|56=EXECUTOR|98=0|108=30|10=152|8=FIX.4.2|9=71|35=A|34=43|49=CLIENT1|52=20150711-07:38:55.330|56=EXECUTOR|98=0|108=30|10=148|8=FIX.4.2|9=71|35=A|34=44|49=CLIENT1|52=20150711-07:40:57.253|56=EXECUTOR|98=0|108=30|10=148|8=FIX.4.2|9=71|35=A|34=45|49=CLIENT1|52=20150711-07:41:19.275|56=EXECUTOR|98=0|108=30|10=152|8=FIX.4.2|9=71|35=A|34=46|49=CLIENT1|52=20150711-07:41:21.278|56=EXECUTOR|98=0|108=30|10=149|8=FIX.4.2|9=71|35=A|34=47|49=CLIENT1|52=20150711-07:41:26.840|56=EXECUTOR|98=0|108=30|10=150|8=FIX.4.2|9=59|35=0|34=48|49=CLIENT1|52=20150711-07:41:56.869|56=EXECUTOR|10=129|8=FIX.4.2|9=59|35=0|34=49|49=CLIENT1|52=20150711-07:42:26.899|56=EXECUTOR|10=131|8=FIX.4.2|9=59|35=0|34=50|49=CLIENT1|52=20150711-07:42:56.930|56=EXECUTOR|10=112|8=FIX.4.2|9=59|35=0|34=51|49=CLIENT1|52=20150711-07:43:26.961|56=EXECUTOR|10=115|8=FIX.4.2|9=59|35=0|34=52|49=CLIENT1|52=20150711-07:43:56.991|56=EXECUTOR|10=122|8=FIX.4.2|9=59|35=0|34=53|49=CLIENT1|52=20150711-07:44:26.021|56=EXECUTOR|10=105|8=FIX.4.2|9=59|35=0|34=54|49=CLIENT1|52=20150711-07:44:56.051|56=EXECUTOR|10=112|8=FIX.4.2|9=59|35=0|34=55|49=CLIENT1|52=20150711-07:45:26.082|56=EXECUTOR|10=115|8=FIX.4.2|9=59|35=0|34=56|49=CLIENT1|52=20150711-07:45:56.113|56=EXECUTOR|10=114|8=FIX.4.2|9=59|35=0|34=57|49=CLIENT1|52=20150711-07:46:26.144|56=EXECUTOR|10=117|8=FIX.4.2|9=59|35=0|34=58|49=CLIENT1|52=20150711-07:46:56.175|56=EXECUTOR|10=125|8=FIX.4.2|9=59|35=0|34=59|49=CLIENT1|52=20150711-07:47:26.206|56=EXECUTOR|10=119|8=FIX.4.2|9=59|35=0|34=60|49=CLIENT1|52=20150711-07:47:56.236|56=EXECUTOR|10=117|8=FIX.4.2|9=59|35=0|34=61|49=CLIENT1|52=20150711-07:48:26.267|56=EXECUTOR|10=120|8=FIX.4.2|9=59|35=0|34=62|49=CLIENT1|52=20150711-07:48:56.298|56=EXECUTOR|10=128|8=FIX.4.2|9=59|35=0|34=63|49=CLIENT1|52=20150711-07:49:26.329|56=EXECUTOR|10=122|8=FIX.4.2|9=59|35=0|34=64|49=CLIENT1|52=20150711-07:49:56.360|56=EXECUTOR|10=121|8=FIX.4.2|9=59|35=0|34=65|49=CLIENT1|52=20150711-07:50:26.391|56=EXECUTOR|10=115|8=FIX.4.2|9=59|35=0|34=66|49=CLIENT1|52=20150711-07:50:56.422|56=EXECUTOR|10=114|8=FIX.4.2|9=59|35=0|34=67|49=CLIENT1|52=20150711-07:51:26.452|56=EXECUTOR|10=116|8=FIX.4.2|9=59|35=0|34=68|49=CLIENT1|52=20150711-07:51:56.482|56=EXECUTOR|10=123|8=FIX.4.2|9=59|35=0|34=69|49=CLIENT1|52=20150711-07:52:26.513|56=EXECUTOR|10=117|8=FIX.4.2|9=59|35=0|34=70|49=CLIENT1|52=20150711-07:52:56.543|56=EXECUTOR|10=115|8=FIX.4.2|9=59|35=0|34=71|49=CLIENT1|52=20150711-07:53:26.574|56=EXECUTOR|10=118|8=FIX.4.2|9=59|35=0|34=72|49=CLIENT1|52=20150711-07:53:56.603|56=EXECUTOR|10=115|8=FIX.4.2|9=59|35=0|34=73|49=CLIENT1|52=20150711-07:54:26.634|56=EXECUTOR|10=118|8=FIX.4.2|9=59|35=0|34=74|49=CLIENT1|52=20150711-07:54:56.665|56=EXECUTOR|10=126|8=FIX.4.2|9=59|35=0|34=75|49=CLIENT1|52=20150711-07:55:26.696|56=EXECUTOR|10=129|8=FIX.4.2|9=59|35=0|34=76|49=CLIENT1|52=20150711-07:55:56.727|56=EXECUTOR|10=128|8=FIX.4.2|9=59|35=0|34=77|49=CLIENT1|52=20150711-07:56:26.757|56=EXECUTOR|10=130|8=FIX.4.2|9=59|35=0|34=78|49=CLIENT1|52=20150711-07:56:56.788|56=EXECUTOR|10=138|8=FIX.4.2|9=59|35=0|34=79|49=CLIENT1|52=20150711-07:57:26.819|56=EXECUTOR|10=132|8=FIX.4.2|9=59|35=0|34=80|49=CLIENT1|52=20150711-07:57:56.850|56=EXECUTOR|10=122|8=FIX.4.2|9=59|35=0|34=81|49=CLIENT1|52=20150711-07:58:26.881|56=EXECUTOR|10=125|8=FIX.4.2|9=59|35=0|34=82|49=CLIENT1|52=20150711-07:58:56.905|56=EXECUTOR|10=126|8=FIX.4.2|9=59|35=0|34=83|49=CLIENT1|52=20150711-07:59:26.936|56=EXECUTOR|10=129|8=FIX.4.2|9=59|35=0|34=84|49=CLIENT1|52=20150711-07:59:56.967|56=EXECUTOR|10=137|8=FIX.4.2|9=59|35=0|34=85|49=CLIENT1|52=20150711-08:00:26.998|56=EXECUTOR|10=126|8=FIX.4.2|9=59|35=0|34=86|49=CLIENT1|52=20150711-08:00:56.026|56=EXECUTOR|10=112|8=FIX.4.2|9=59|35=0|34=87|49=CLIENT1|52=20150711-08:01:26.057|56=EXECUTOR|10=115|8=FIX.4.2|9=59|35=0|34=88|49=CLIENT1|52=20150711-08:01:56.088|56=EXECUTOR|10=123|8=FIX.4.2|9=59|35=0|34=89|49=CLIENT1|52=20150711-08:02:26.118|56=EXECUTOR|10=116|8=FIX.4.2|9=59|35=0|34=90|49=CLIENT1|52=20150711-08:02:56.149|56=EXECUTOR|10=115|8=FIX.4.2|9=59|35=0|34=91|49=CLIENT1|52=20150711-08:03:26.178|56=EXECUTOR|10=116|8=FIX.4.2|9=59|35=0|34=92|49=CLIENT1|52=20150711-08:03:56.209|56=EXECUTOR|10=115|8=FIX.4.2|9=59|35=0|34=93|49=CLIENT1|52=20150711-08:04:26.240|56=EXECUTOR|10=109|8=FIX.4.2|9=59|35=0|34=94|49=CLIENT1|52=20150711-08:04:56.271|56=EXECUTOR|10=117|8=FIX.4.2|9=59|35=0|34=95|49=CLIENT1|52=20150711-08:05:26.302|56=EXECUTOR|10=111|8=FIX.4.2|9=59|35=0|34=96|49=CLIENT1|52=20150711-08:05:56.333|56=EXECUTOR|10=119|8=FIX.4.2|9=59|35=0|34=97|49=CLIENT1|52=20150711-08:06:26.364|56=EXECUTOR|10=122|8=FIX.4.2|9=59|35=0|34=98|49=CLIENT1|52=20150711-08:06:56.395|56=EXECUTOR|10=130|8=FIX.4.2|9=59|35=0|34=99|49=CLIENT1|52=20150711-08:07:26.425|56=EXECUTOR|10=123|8=FIX.4.2|9=60|35=0|34=100|49=CLIENT1|52=20150711-08:07:56.456|56=EXECUTOR|10=153|8=FIX.4.2|9=60|35=0|34=101|49=CLIENT1|52=20150711-08:08:26.487|56=EXECUTOR|10=156|8=FIX.4.2|9=60|35=0|34=102|49=CLIENT1|52=20150711-08:08:56.516|56=EXECUTOR|10=153|8=FIX.4.2|9=60|35=0|34=103|49=CLIENT1|52=20150711-08:09:26.547|56=EXECUTOR|10=156|8=FIX.4.2|9=60|35=0|34=104|49=CLIENT1|52=20150711-08:09:56.578|56=EXECUTOR|10=164|8=FIX.4.2|9=60|35=0|34=105|49=CLIENT1|52=20150711-08:10:26.608|56=EXECUTOR|10=148|8=FIX.4.2|9=60|35=0|34=106|49=CLIENT1|52=20150711-08:10:56.638|56=EXECUTOR|10=155|8=FIX.4.2|9=60|35=0|34=107|49=CLIENT1|52=20150711-08:11:26.669|56=EXECUTOR|10=158|8=FIX.4.2|9=60|35=0|34=108|49=CLIENT1|52=20150711-08:11:56.700|56=EXECUTOR|10=148|8=FIX.4.2|9=60|35=0|34=109|49=CLIENT1|52=20150711-08:12:26.732|56=EXECUTOR|10=152|8=FIX.4.2|9=60|35=0|34=110|49=CLIENT1|52=20150711-08:12:56.760|56=EXECUTOR|10=148|8=FIX.4.2|9=60|35=0|34=111|49=CLIENT1|52=20150711-08:13:26.792|56=EXECUTOR|10=152|8=FIX.4.2|9=60|35=0|34=112|49=CLIENT1|52=20150711-08:13:56.823|56=EXECUTOR|10=151|8=FIX.4.2|9=60|35=0|34=113|49=CLIENT1|52=20150711-08:14:26.854|56=EXECUTOR|10=154|8=FIX.4.2|9=60|35=0|34=114|49=CLIENT1|52=20150711-08:14:56.885|56=EXECUTOR|10=162|8=FIX.4.2|9=60|35=0|34=115|49=CLIENT1|52=20150711-08:15:26.915|56=EXECUTOR|10=155|8=FIX.4.2|9=60|35=0|34=116|49=CLIENT1|52=20150711-08:15:56.946|56=EXECUTOR|10=163|8=FIX.4.2|9=60|35=0|34=117|49=CLIENT1|52=20150711-08:16:26.977|56=EXECUTOR|10=166|8=FIX.4.2|9=60|35=0|34=118|49=CLIENT1|52=20150711-08:16:56.006|56=EXECUTOR|10=153|8=FIX.4.2|9=60|35=0|34=119|49=CLIENT1|52=20150711-08:17:26.037|56=EXECUTOR|10=156|8=FIX.4.2|9=60|35=0|34=120|49=CLIENT1|52=20150711-08:17:56.067|56=EXECUTOR|10=154|8=FIX.4.2|9=60|35=0|34=121|49=CLIENT1|52=20150711-08:18:26.093|56=EXECUTOR|10=152|8=FIX.4.2|9=60|35=0|34=122|49=CLIENT1|52=20150711-08:18:56.124|56=EXECUTOR|10=151|8=FIX.4.2|9=60|35=0|34=123|49=CLIENT1|52=20150711-08:19:26.155|56=EXECUTOR|10=154|8=FIX.4.2|9=60|35=0|34=124|49=CLIENT1|52=20150711-08:19:56.183|56=EXECUTOR|10=159|8=FIX.4.2|9=60|35=0|34=125|49=CLIENT1|52=20150711-08:20:26.213|56=EXECUTOR|10=143|8=FIX.4.2|9=60|35=0|34=126|49=CLIENT1|52=20150711-08:20:56.244|56=EXECUTOR|10=151|8=FIX.4.2|9=60|35=0|34=127|49=CLIENT1|52=20150711-08:21:26.275|56=EXECUTOR|10=154|8=FIX.4.2|9=60|35=0|34=128|49=CLIENT1|52=20150711-08:21:56.305|56=EXECUTOR|10=152|8=FIX.4.2|9=60|35=0|34=129|49=CLIENT1|52=20150711-08:22:26.335|56=EXECUTOR|10=154|