8=FIX.4.2|9=68|35=A|34=1|49=GOLDMF|52=20150713-03:02:47.245|56=KGITEST|98=0|108=30|10=212|8=FIX.4.2|9=56|35=0|34=2|49=GOLDMF|52=20150713-03:03:17.271|56=KGITEST|10=165|8=FIX.4.2|9=56|35=0|34=3|49=GOLDMF|52=20150713-03:03:47.302|56=KGITEST|10=164|8=FIX.4.2|9=56|35=0|34=4|49=GOLDMF|52=20150713-03:04:17.334|56=KGITEST|10=168|8=FIX.4.2|9=56|35=0|34=5|49=GOLDMF|52=20150713-03:04:47.366|56=KGITEST|10=177|8=FIX.4.2|9=56|35=0|34=6|49=GOLDMF|52=20150713-03:05:17.398|56=KGITEST|10=181|8=FIX.4.2|9=56|35=0|34=7|49=GOLDMF|52=20150713-03:05:47.432|56=KGITEST|10=174|8=FIX.4.2|9=56|35=0|34=8|49=GOLDMF|52=20150713-03:06:17.464|56=KGITEST|10=178|8=FIX.4.2|9=56|35=0|34=9|49=GOLDMF|52=20150713-03:06:47.496|56=KGITEST|10=187|8=FIX.4.2|9=57|35=0|34=10|49=GOLDMF|52=20150713-03:07:17.528|56=KGITEST|10=222|8=FIX.4.2|9=57|35=0|34=11|49=GOLDMF|52=20150713-03:07:47.547|56=KGITEST|10=227|8=FIX.4.2|9=69|35=A|34=12|49=GOLDMF|52=20150713-03:08:12.671|56=KGITEST|98=0|108=30|10=008|8=FIX.4.2|9=57|35=0|34=13|49=GOLDMF|52=20150713-03:08:42.697|56=KGITEST|10=231|8=FIX.4.2|9=57|35=0|34=14|49=GOLDMF|52=20150713-03:09:12.726|56=KGITEST|10=223|8=FIX.4.2|9=69|35=A|34=15|49=GOLDMF|52=20150713-03:10:03.778|56=KGITEST|98=0|108=30|10=012|8=FIX.4.2|9=138|35=D|34=16|49=GOLDMF|52=20150713-03:10:09.911|56=KGITEST|1=9987|11=1234567|21=1|38=1000|40=7|44=9.54|54=1|55=0700|60=2015-07-09T01:08:18Z|10=055|8=FIX.4.2|9=138|35=D|34=17|49=GOLDMF|52=20150713-03:10:16.411|56=KGITEST|1=9987|11=1234567|21=1|38=1000|40=7|44=9.54|54=1|55=0700|60=2015-07-09T01:08:18Z|10=049|8=FIX.4.2|9=57|35=5|34=18|49=GOLDMF|52=20150713-03:10:16.787|56=KGITEST|10=235|8=FIX.4.2|9=69|35=A|34=19|49=GOLDMF|52=20150713-03:12:23.682|56=KGITEST|98=0|108=30|10=014|8=FIX.4.2|9=138|35=D|34=20|49=GOLDMF|52=20150713-03:12:29.349|56=KGITEST|1=9987|11=1234567|21=1|38=1000|40=7|44=9.54|54=1|55=0700|60=2015-07-09T01:08:18Z|10=059|8=FIX.4.2|9=57|35=0|34=21|49=GOLDMF|52=20150713-03:12:59.389|56=KGITEST|10=231|8=FIX.4.2|9=69|35=A|34=22|49=GOLDMF|52=20150713-03:13:32.704|56=KGITEST|98=0|108=30|10=004|8=FIX.4.2|9=69|35=A|34=23|49=GOLDMF|52=20150713-03:16:50.429|56=KGITEST|98=0|108=30|10=012|8=FIX.4.2|9=57|35=0|34=24|49=GOLDMF|52=20150713-03:18:46.669|56=KGITEST|10=237|8=FIX.4.2|9=79|35=0|34=25|49=GOLDMF|52=20150713-03:18:46.669|56=KGITEST|112=20150713-03:17:31|10=039|8=FIX.4.2|9=69|35=A|34=26|49=GOLDMF|52=20150713-03:18:48.845|56=KGITEST|98=0|108=30|10=026|8=FIX.4.2|9=57|35=0|34=27|49=GOLDMF|52=20150713-03:19:19.455|56=KGITEST|10=234|8=FIX.4.2|9=57|35=0|34=28|49=GOLDMF|52=20150713-03:19:49.455|56=KGITEST|10=238|8=FIX.4.2|9=57|35=0|34=29|49=GOLDMF|52=20150713-03:20:19.456|56=KGITEST|10=229|8=FIX.4.2|9=57|35=0|34=30|49=GOLDMF|52=20150713-03:20:49.456|56=KGITEST|10=224|8=FIX.4.2|9=69|35=A|34=31|49=GOLDMF|52=20150713-03:21:17.899|56=KGITEST|98=0|108=30|10=021|8=FIX.4.2|9=57|35=0|34=32|49=GOLDMF|52=20150713-03:21:47.926|56=KGITEST|10=227|8=FIX.4.2|9=57|35=0|34=33|49=GOLDMF|52=20150713-03:22:17.959|56=KGITEST|10=232|8=FIX.4.2|9=69|35=A|34=34|49=GOLDMF|52=20150713-03:23:02.490|56=KGITEST|98=0|108=30|10=007|8=FIX.4.2|9=138|35=D|34=35|49=GOLDMF|52=20150713-03:23:12.272|56=KGITEST|1=9987|11=1234567|21=1|38=1000|40=7|44=9.54|54=1|55=0700|60=2015-07-09T01:08:18Z|10=054|8=FIX.4.2|9=57|35=0|34=36|49=GOLDMF|52=20150713-03:23:42.311|56=KGITEST|10=216|8=FIX.4.2|9=57|35=0|34=37|49=GOLDMF|52=20150713-03:24:12.312|56=KGITEST|10=216|8=FIX.4.2|9=57|35=0|34=38|49=GOLDMF|52=20150713-03:24:42.312|56=KGITEST|10=220|8=FIX.4.2|9=57|35=0|34=39|49=GOLDMF|52=20150713-03:25:12.312|56=KGITEST|10=219|8=FIX.4.2|9=57|35=0|34=40|49=GOLDMF|52=20150713-03:25:42.313|56=KGITEST|10=215|8=FIX.4.2|9=57|35=0|34=41|49=GOLDMF|52=20150713-03:26:12.314|56=KGITEST|10=215|8=FIX.4.2|9=57|35=0|34=42|49=GOLDMF|52=20150713-03:26:42.314|56=KGITEST|10=219|8=FIX.4.2|9=57|35=0|34=43|49=GOLDMF|52=20150713-03:27:12.315|56=KGITEST|10=219|8=FIX.4.2|9=57|35=0|34=44|49=GOLDMF|52=20150713-03:27:42.315|56=KGITEST|10=223|8=FIX.4.2|9=57|35=0|34=45|49=GOLDMF|52=20150713-03:28:12.316|56=KGITEST|10=223|8=FIX.4.2|9=57|35=0|34=46|49=GOLDMF|52=20150713-03:28:42.316|56=KGITEST|10=227|8=FIX.4.2|9=57|35=0|34=47|49=GOLDMF|52=20150713-03:29:12.317|56=KGITEST|10=227|8=FIX.4.2|9=57|35=0|34=48|49=GOLDMF|52=20150713-03:29:42.317|56=KGITEST|10=231|8=FIX.4.2|9=57|35=0|34=49|49=GOLDMF|52=20150713-03:30:12.318|56=KGITEST|10=222|8=FIX.4.2|9=57|35=0|34=50|49=GOLDMF|52=20150713-03:30:42.318|56=KGITEST|10=217|8=FIX.4.2|9=57|35=0|34=51|49=GOLDMF|52=20150713-03:31:12.319|56=KGITEST|10=217|8=FIX.4.2|9=57|35=0|34=52|49=GOLDMF|52=20150713-03:31:42.011|56=KGITEST|10=210|8=FIX.4.2|9=57|35=0|34=53|49=GOLDMF|52=20150713-03:32:12.043|56=KGITEST|10=214|8=FIX.4.2|9=57|35=0|34=54|49=GOLDMF|52=20150713-03:32:42.076|56=KGITEST|10=224|8=FIX.4.2|9=69|35=A|34=55|49=GOLDMF|52=20150713-03:33:11.342|56=KGITEST|98=0|108=30|10=007|8=FIX.4.2|9=138|35=D|34=56|49=GOLDMF|52=20150713-03:33:16.354|56=KGITEST|1=9987|11=1234567|21=1|38=1000|40=7|44=9.54|54=1|55=0700|60=2015-07-09T01:08:18Z|10=063|8=FIX.4.2|9=69|35=A|34=57|49=GOLDMF|52=20150713-03:33:41.762|56=KGITEST|98=0|108=30|10=018|8=FIX.4.2|9=138|35=D|34=58|49=GOLDMF|52=20150713-03:33:47.999|56=KGITEST|1=9987|11=1234567|21=1|38=1000|40=7|44=9.54|54=1|55=0700|60=2015-07-09T01:08:18Z|10=084|8=FIX.4.2|9=57|35=0|34=59|49=GOLDMF|52=20150713-03:34:17.795|56=KGITEST|10=241|8=FIX.4.2|9=57|35=0|34=60|49=GOLDMF|52=20150713-03:34:47.826|56=KGITEST|10=231|8=FIX.4.2|9=57|35=0|34=61|49=GOLDMF|52=20150713-03:35:17.858|56=KGITEST|10=235|8=FIX.4.2|9=57|35=0|34=62|49=GOLDMF|52=20150713-03:35:47.889|56=KGITEST|10=243|8=FIX.4.2|9=57|35=0|34=63|49=GOLDMF|52=20150713-03:36:17.916|56=KGITEST|10=233|8=FIX.4.2|9=57|35=0|34=64|49=GOLDMF|52=20150713-03:36:47.926|56=KGITEST|10=238|8=FIX.4.2|9=69|35=A|34=65|49=GOLDMF|52=20150713-03:37:04.303|56=KGITEST|98=0|108=30|10=011|8=FIX.4.2|9=69|35=A|34=66|49=GOLDMF|52=20150713-03:37:56.196|56=KGITEST|98=0|108=30|10=029|8=FIX.4.2|9=69|35=A|34=67|49=GOLDMF|52=20150713-04:55:05.812|56=KGITEST|98=0|108=30|10=020|8=FIX.4.2|9=67|35=2|34=68|49=GOLDMF|52=20150713-04:55:06.424|56=KGITEST|7=69|16=0|10=164|8=FIX.4.2|9=69|35=A|34=69|49=GOLDMF|52=20150713-04:55:09.617|56=KGITEST|98=0|108=30|10=029|8=FIX.4.2|9=138|35=D|34=70|49=GOLDMF|52=20150713-04:55:15.070|56=KGITEST|1=9987|11=1234567|21=1|38=1000|40=7|44=9.54|54=1|55=0700|60=2015-07-09T01:08:18Z|10=058|8=FIX.4.2|9=138|35=D|34=71|49=GOLDMF|52=20150713-04:55:27.531|56=KGITEST|1=9987|11=1234567|21=1|38=1000|40=7|44=9.54|54=1|55=0700|60=2015-07-09T01:08:18Z|10=064|8=FIX.4.2|9=138|35=D|34=72|49=GOLDMF|52=20150713-04:55:31.237|56=KGITEST|1=9987|11=1234567|21=1|38=1000|40=7|44=9.54|54=1|55=0700|60=2015-07-09T01:08:18Z|10=063|8=FIX.4.2|9=138|35=D|34=73|49=GOLDMF|52=20150713-04:55:34.030|56=KGITEST|1=9987|11=1234567|21=1|38=1000|40=7|44=9.54|54=1|55=0700|60=2015-07-09T01:08:18Z|10=058|8=FIX.4.2|9=69|35=A|34=74|49=GOLDMF|52=20150713-04:56:41.257|56=KGITEST|98=0|108=30|10=022|8=FIX.4.2|9=57|35=0|34=75|49=GOLDMF|52=20150713-04:57:11.284|56=KGITEST|10=232|8=FIX.4.2|9=57|35=0|34=76|49=GOLDMF|52=20150713-04:57:41.315|56=KGITEST|10=231|8=FIX.4.2|9=57|35=0|34=77|49=GOLDMF|52=20150713-04:58:11.346|56=KGITEST|10=234|8=FIX.4.2|9=69|35=A|34=78|49=GOLDMF|52=20150713-04:59:17.252|56=KGITEST|98=0|108=30|10=027|8=FIX.4.2|9=138|35=D|34=79|49=GOLDMF|52=20150713-04:59:23.139|56=KGITEST|1=9987|11=1234567|21=1|38=1000|40=7|44=9.54|54=1|55=0700|60=2015-07-09T01:08:18Z|10=076|8=FIX.4.2|9=57|35=0|34=80|49=GOLDMF|52=20150713-04:59:53.174|56=KGITEST|10=234|8=FIX.4.2|9=69|35=A|34=81|49=GOLDMF|52=20150713-06:51:16.211|56=KGITEST|98=0|108=30|10=009|8=FIX.4.2|9=57|35=0|34=82|49=GOLDMF|52=20150713-06:51:46.239|56=KGITEST|10=234|8=FIX.4.2|9=57|35=0|34=83|49=GOLDMF|52=20150713-06:52:16.271|56=KGITEST|10=229|8=FIX.4.2|9=57|35=0|34=84|49=GOLDMF|52=20150713-06:52:46.303|56=KGITEST|10=229|8=FIX.4.2|9=57|35=0|34=85|49=GOLDMF|52=20150713-06:53:23.694|56=KGITEST|10=239|8=FIX.4.2|9=108|35=3|34=86|49=GOLDMF|52=20150713-06:56:09.383|56=KGITEST|45=89|58=SendingTime accuracy problem|372=0|373=10|10=254|8=FIX.4.2|9=57|35=5|34=87|49=GOLDMF|52=20150713-06:56:09.383|56=KGITEST|10=248|8=FIX.4.2|9=69|35=A|34=88|49=GOLDMF|52=20150713-06:56:09.383|56=KGITEST|98=0|108=30|10=033|8=FIX.4.2|9=138|35=D|34=89|49=GOLDMF|52=20150713-06:56:09.383|56=KGITEST|1=9987|11=1234567|21=1|38=1000|40=7|44=9.54|54=1|55=0700|60=2015-07-09T01:08:18Z|10=081|8=FIX.4.2|9=69|35=A|34=90|49=GOLDMF|52=20150713-06:56:55.247|56=KGITEST|98=0|108=30|10=026|8=FIX.4.2|9=67|35=2|34=91|49=GOLDMF|52=20150713-06:56:55.865|56=KGITEST|7=90|16=0|10=170|8=FIX.4.2|9=138|35=D|34=92|49=GOLDMF|52=20150713-06:57:03.821|56=KGITEST|1=9987|11=1234567|21=1|38=1000|40=7|44=9.54|54=1|55=0700|60=2015-07-09T01:08:18Z|10=067|8=FIX.4.2|9=138|35=D|34=93|49=GOLDMF|52=20150713-06:57:21.519|56=KGITEST|1=9987|11=1234567|21=1|38=1000|40=7|44=9.54|54=1|55=0700|60=2015-07-09T01:08:18Z|10=072|8=FIX.4.2|9=69|35=A|34=94|49=GOLDMF|52=20150713-06:57:59.408|56=KGITEST|98=0|108=30|10=034|8=FIX.4.2|9=69|35=A|34=95|49=GOLDMF|52=20150713-06:58:40.801|56=KGITEST|98=0|108=30|10=023|8=FIX.4.2|9=57|35=0|34=96|49=GOLDMF|52=20150713-06:59:58.916|56=KGITEST|10=252|8=FIX.4.2|9=79|35=0|34=97|49=GOLDMF|52=20150713-06:59:58.916|56=KGITEST|112=20150713-06:59:21|10=062|8=FIX.4.2|9=138|35=D|34=98|49=GOLDMF|52=20150713-06:59:58.917|56=KGITEST|1=9987|11=1234567|21=1|38=1000|40=7|44=9.54|54=1|55=0700|60=2015-07-09T01:08:18Z|10=091|8=FIX.4.2|9=138|35=D|34=99|49=GOLDMF|52=20150713-07:00:20.933|56=KGITEST|1=9987|11=1234567|21=1|38=1000|40=7|44=9.54|54=1|55=0700|60=2015-07-09T01:08:18Z|10=066|8=FIX.4.2|9=139|35=D|34=100|49=GOLDMF|52=20150713-07:00:29.426|56=KGITEST|1=9987|11=1234567|21=1|38=1000|40=7|44=9.54|54=1|55=0700|60=2015-07-09T01:08:18Z|10=104|8=FIX.4.2|9=58|35=0|34=101|49=GOLDMF|52=20150713-07:00:59.474|56=KGITEST|10=019|8=FIX.4.2|9=58|35=0|34=102|49=GOLDMF|52=20150713-07:01:29.474|56=KGITEST|10=018|8=FIX.4.2|9=58|35=0|34=103|49=GOLDMF|52=20150713-07:01:59.005|56=KGITEST|10=012|8=FIX.4.2|9=70|35=A|34=104|49=GOLDMF|52=20150713-07:02:27.732|56=KGITEST|98=0|108=30|10=052|8=FIX.4.2|9=139|35=D|34=105|49=GOLDMF|52=20150713-07:02:30.418|56=KGITEST|1=9987|11=1234567|21=1|38=1000|40=7|44=9.54|54=1|55=0700|60=2015-07-09T01:08:18Z|10=104|8=FIX.4.2|9=139|35=D|34=106|49=GOLDMF|52=20150713-07:02:40.239|56=KGITEST|1=9987|11=1234567|21=1|38=1000|40=7|44=9.54|54=1|55=0700|60=2015-07-09T01:08:18Z|10=107|8=FIX.4.2|9=58|35=0|34=107|49=GOLDMF|52=20150713-07:03:10.287|56=KGITEST|10=017|8=FIX.4.2|9=70|35=A|34=108|49=GOLDMF|52=20150713-07:03:49.710|56=KGITEST|98=0|108=30|10=057|8=FIX.4.2|9=58|35=0|34=109|49=GOLDMF|52=20150713-07:04:19.738|56=KGITEST|10=030|8=FIX.4.2|9=70|35=A|34=110|49=GOLDMF|52=20150713-07:05:09.295|56=KGITEST|98=0|108=30|10=056|8=FIX.4.2|9=145|35=D|34=111|49=GOLDMF|52=20150713-07:05:12.537|56=KGITEST|1=acc in App|11=1234567|21=1|38=1000|40=7|44=9.54|54=1|55=0700|60=2015-07-09T01:08:18Z|10=229|8=FIX.4.2|9=145|35=D|34=112|49=GOLDMF|52=20150713-07:05:22.657|56=KGITEST|1=acc in App|11=1234567|21=1|38=1000|40=7|44=9.54|54=1|55=0700|60=2015-07-09T01:08:18Z|10=234|8=FIX.4.2|9=58|35=0|34=113|49=GOLDMF|52=20150713-07:05:52.335|56=KGITEST|10=016|8=FIX.4.2|9=58|35=0|34=114|49=GOLDMF|52=20150713-07:06:22.367|56=KGITEST|10=020|8=FIX.4.2|9=70|35=A|34=115|49=GOLDMF|52=20150713-07:06:53.210|56=KGITEST|98=0|108=30|10=048|8=FIX.4.2|9=145|35=D|34=116|49=GOLDMF|52=20150713-07:06:58.510|56=KGITEST|1=acc in App|11=1234567|21=1|38=1000|40=7|44=9.54|54=1|55=0700|60=2015-07-09T01:08:18Z|10=236|8=FIX.4.2|9=145|35=D|34=117|49=GOLDMF|52=20150713-07:07:04.901|56=KGITEST|1=acc in App|11=1234567|21=1|38=1000|40=7|44=9.54|54=1|55=0700|60=2015-07-09T01:08:18Z|10=233|8=FIX.4.2|9=145|35=D|34=118|49=GOLDMF|52=20150713-07:07:23.544|56=KGITEST|1=acc in App|11=1234567|21=1|38=1000|40=7|44=9.54|54=1|55=0700|60=2015-07-09T01:08:18Z|10=238|8=FIX.4.2|9=70|35=A|34=119|49=GOLDMF|52=20150713-07:08:56.217|56=KGITEST|98=0|108=30|10=064|8=FIX.4.2|9=67|35=1|34=120|49=GOLDMF|52=20150713-07:08:59.836|56=KGITEST|112=9987|10=210|8=FIX.4.2|9=67|35=1|34=121|49=GOLDMF|52=20150713-07:09:04.180|56=KGITEST|112=9987|10=194|8=FIX.4.2|9=67|35=1|34=122|49=GOLDMF|52=20150713-07:09:06.001|56=KGITEST|112=9987|10=189|8=FIX.4.2|9=58|35=0|34=123|49=GOLDMF|52=20150713-07:09:36.008|56=KGITEST|10=020|8=FIX.4.2|9=58|35=0|34=124|49=GOLDMF|52=20150713-07:10:06.008|56=KGITEST|10=010|8=FIX.4.2|9=70|35=A|34=125|49=GOLDMF|52=20150713-07:12:42.015|56=KGITEST|98=0|108=30|10=047|8=FIX.4.2|9=67|35=1|34=126|49=GOLDMF|52=20150713-07:12:45.690|56=KGITEST|112=9987|10=204|8=FIX.4.2|9=67|35=1|34=127|49=GOLDMF|52=20150713-07:12:48.942|56=KGITEST|112=9987|10=208|8=FIX.4.2|9=67|35=1|34=128|49=GOLDMF|52=20150713-07:12:50.550|56=KGITEST|112=9987|10=197|8=FIX.4.2|9=67|35=1|34=129|49=GOLDMF|52=20150713-07:13:14.031|56=KGITEST|112=9987|10=193|8=FIX.4.2|9=67|35=1|34=130|49=GOLDMF|52=20150713-07:13:20.847|56=KGITEST|112=9987|10=197|8=FIX.4.2|9=67|35=1|34=131|49=GOLDMF|52=20150713-07:13:46.061|56=KGITEST|112=9987|10=194|8=FIX.4.2|9=67|35=1|34=132|49=GOLDMF|52=20150713-07:13:48.736|56=KGITEST|112=9987|10=206|8=FIX.4.2|9=58|35=0|34=133|49=GOLDMF|52=20150713-07:14:18.111|56=KGITEST|10=012|8=FIX.4.2|9=67|35=1|34=134|49=GOLDMF|52=20150713-07:14:27.942|56=KGITEST|112=9987|10=205|8=FIX.4.2|9=70|35=A|34=135|49=GOLDMF|52=20150713-07:22:03.880|56=KGITEST|98=0|108=30|10=056|8=FIX.4.2|9=58|35=0|34=136|49=GOLDMF|52=20150713-07:22:55.617|56=KGITEST|10=026|8=FIX.4.2|9=80|35=0|34=137|49=GOLDMF|52=20150713-07:22:55.617|56=KGITEST|112=20150713-07:22:44|10=079|8=FIX.4.2|9=58|35=0|34=138|49=GOLDMF|52=20150713-07:23:37.124|56=KGITEST|10=022|8=FIX.4.2|9=80|35=0|34=139|49=GOLDMF|52=20150713-07:23:37.124|56=KGITEST|112=20150713-07:23:35|10=076|8=FIX.4.2|9=58|35=0|34=140|49=GOLDMF|52=20150713-07:24:13.237|56=KGITEST|10=015|8=FIX.4.2|9=58|35=0|34=141|49=GOLDMF|52=20150713-07:25:09.981|56=KGITEST|10=028|8=FIX.4.2|9=80|35=0|34=142|49=GOLDMF|52=20150713-07:25:09.982|56=KGITEST|112=20150713-07:24:53|10=084|8=FIX.4.2|9=80|35=0|34=143|49=GOLDMF|52=20150713-07:25:54.588|56=KGITEST|112=20150713-07:25:49|10=093|8=FIX.4.2|9=67|35=1|34=144|49=GOLDMF|52=20150713-07:26:01.973|56=KGITEST|112=9987|10=205|8=FIX.4.2|9=110|35=3|34=145|49=GOLDMF|52=20150713-07:40:20.372|56=KGITEST|45=148|58=SendingTime accuracy problem|372=0|373=10|10=064|8=FIX.4.2|9=58|35=5|34=146|49=GOLDMF|52=20150713-07:40:20.372|56=KGITEST|10=022|8=FIX.4.2|9=70|35=A|34=147|49=GOLDMF|52=20150713-07:40:20.373|56=KGITEST|98=0|108=30|10=055|8=FIX.4.2|9=70|35=A|34=148|49=GOLDMF|52=20150713-07:49:30.833|56=KGITEST|98=0|108=30|10=067|8=FIX.4.2|9=69|35=2|34=149|49=GOLDMF|52=20150713-07:49:31.445|56=KGITEST|7=149|16=0|10=012|8=FIX.4.2|9=70|35=A|34=150|49=GOLDMF|52=20150713-08:01:56.140|56=KGITEST|98=0|108=30|10=048|8=FIX.4.2|9=145|35=D|34=151|49=GOLDMF|52=20150713-08:02:06.276|56=KGITEST|1=acc in App|11=1234567|21=1|38=1000|40=7|44=9.54|54=1|55=0700|60=2015-07-09T01:08:18Z|10=234|8=FIX.4.2|9=70|35=A|34=152|49=GOLDMF|52=20150713-08:03:24.913|56=KGITEST|98=0|108=30|10=055|8=FIX.4.2|9=70|35=A|34=153|49=GOLDMF|52=20150713-08:04:03.037|56=KGITEST|98=0|108=30|10=051|8=FIX.4.2|9=70|35=A|34=154|49=GOLDMF|52=20150713-08:05:26.402|56=KGITEST|98=0|108=30|10=054|8=FIX.4.2|9=69|35=2|34=155|49=GOLDMF|52=20150713-08:05:27.011|56=KGITEST|7=158|16=0|10=252|8=FIX.4.2|9=110|35=3|34=156|49=GOLDMF|52=20150713-08:08:04.229|56=KGITEST|45=161|58=SendingTime accuracy problem|372=0|373=10|10=069|8=FIX.4.2|9=58|35=5|34=157|49=GOLDMF|52=20150713-08:08:04.229|56=KGITEST|10=032|8=FIX.4.2|9=70|35=A|34=158|49=GOLDMF|52=20150713-08:08:04.230|56=KGITEST|98=0|108=30|10=056|8=FIX.4.2|9=145|35=D|34=159|49=GOLDMF|52=20150713-08:17:25.752|56=KGITEST|1=acc in App|11=1234567|21=1|38=1000|40=7|44=9.54|54=1|55=0700|60=2015-07-09T01:08:18Z|10=248|8=FIX.4.2|9=70|35=A|34=160|49=GOLDMF|52=20150713-08:20:15.350|56=KGITEST|98=0|108=30|10=048|8=FIX.4.2|9=69|35=2|34=161|49=GOLDMF|52=20150713-08:20:15.962|56=KGITEST|7=162|16=0|10=253|8=FIX.4.2|9=70|35=A|34=162|49=GOLDMF|52=20150713-08:20:36.122|56=KGITEST|98=0|108=30|10=050|8=FIX.4.2|9=145|35=D|34=163|49=GOLDMF|52=20150713-08:20:42.142|56=KGITEST|1=acc in App|11=1234567|21=1|38=1000|40=7|44=9.54|54=1|55=0700|60=2015-07-09T01:08:18Z|10=229|8=FIX.4.2|9=58|35=0|34=164|49=GOLDMF|52=20150713-08:21:40.557|56=KGITEST|10=024|8=FIX.4.2|9=80|35=0|34=165|49=GOLDMF|52=20150713-08:21:40.557|56=KGITEST|112=20150713-08:21:22|10=073|8=FIX.4.2|9=70|35=A|34=166|49=GOLDMF|52=20150713-08:24:02.089|56=KGITEST|98=0|108=30|10=063|8=FIX.4.2|9=69|35=2|34=167|49=GOLDMF|52=20150713-08:24:02.698|56=KGITEST|7=170|16=0|10=008|8=FIX.4.2|9=145|35=D|34=168|49=GOLDMF|52=20150713-08:24:04.496|56=KGITEST|1=acc in App|11=1234567|21=1|38=1000|40=7|44=9.54|54=1|55=0700|60=2015-07-09T01:08:18Z|10=248|8=FIX.4.2|9=58|35=0|34=169|49=GOLDMF|52=20150713-08:24:34.118|56=KGITEST|10=028|8=FIX.4.2|9=58|35=0|34=170|49=GOLDMF|52=20150713-08:25:04.151|56=KGITEST|10=015|8=FIX.4.2|9=58|35=0|34=171|49=GOLDMF|52=20150713-08:25:34.183|56=KGITEST|10=024|8=FIX.4.2|9=58|35=0|34=172|49=GOLDMF|52=20150713-08:26:04.216|56=KGITEST|10=020|8=FIX.4.2|9=58|35=0|34=173|49=GOLDMF|52=20150713-08:26:34.249|56=KGITEST|10=030|8=FIX.4.2|9=58|35=0|34=174|49=GOLDMF|52=20150713-08:27:04.282|56=KGITEST|10=026|8=FIX.4.2|9=58|35=0|34=175|49=GOLDMF|52=20150713-08:27:34.314|56=KGITEST|10=026|8=FIX.4.2|9=58|35=0|34=176|49=GOLDMF|52=20150713-08:28:04.346|56=KGITEST|10=030|8=FIX.4.2|9=58|35=0|34=177|49=GOLDMF|52=20150713-08:28:34.379|56=KGITEST|10=040|8=FIX.4.2|9=58|35=0|34=178|49=GOLDMF|52=20150713-08:29:04.412|56=KGITEST|10=027|8=FIX.4.2|9=58|35=0|34=179|49=GOLDMF|52=20150713-08:29:34.444|56=KGITEST|10=036|8=FIX.4.2|9=58|35=0|34=180|49=GOLDMF|52=20150713-08:30:04.476|56=KGITEST|10=022|8=FIX.4.2|9=58|35=0|34=181|49=GOLDMF|52=20150713-08:30:34.509|56=KGITEST|10=023|8=FIX.4.2|9=58|35=0|34=182|49=GOLDMF|52=20150713-08:31:04.535|56=KGITEST|10=021|8=FIX.4.2|9=58|35=0|34=183|49=GOLDMF|52=20150713-08:31:34.535|56=KGITEST|10=025|8=FIX.4.2|9=70|35=A|34=184|49=GOLDMF|52=20150713-08:34:56.184|56=KGITEST|98=0|108=30|10=069|8=FIX.4.2|9=145|35=D|34=185|49=GOLDMF|52=20150713-08:34:59.293|56=KGITEST|1=acc in App|11=1234567|21=1|38=1000|40=7|44=9.54|54=1|55=0700|60=2015-07-09T01:08:18Z|10=253|8=FIX.4.2|9=145|35=D|34=186|49=GOLDMF|52=20150713-08:35:01.758|56=KGITEST|1=acc in App|11=1234567|21=1|38=1000|40=7|44=9.54|54=1|55=0700|60=2015-07-09T01:08:18Z|10=248|8=FIX.4.2|9=145|35=D|34=187|49=GOLDMF|52=20150713-08:35:03.991|56=KGITEST|1=acc in App|11=1234567|21=1|38=1000|40=7|44=9.54|54=1|55=0700|60=2015-07-09T01:08:18Z|10=250|8=FIX.4.2|9=145|35=D|34=188|49=GOLDMF|52=20150713-08:35:10.442|56=KGITEST|1=acc in App|11=1234567|21=1|38=1000|40=7|44=9.54|54=1|55=0700|60=2015-07-09T01:08:18Z|10=240|8=FIX.4.2|9=145|35=D|34=189|49=GOLDMF|52=20150713-08:35:12.155|56=KGITEST|1=acc in App|11=1234567|21=1|38=1000|40=7|44=9.54|54=1|55=0700|60=2015-07-09T01:08:18Z|10=244|8=FIX.4.2|9=145|35=D|34=190|49=GOLDMF|52=20150713-08:35:13.889|56=KGITEST|1=acc in App|11=1234567|21=1|38=1000|40=7|44=9.54|54=1|55=0700|60=2015-07-09T01:08:18Z|10=251|8=FIX.4.2|9=145|35=D|34=191|49=GOLDMF|52=20150713-08:35:15.361|56=KGITEST|1=acc in App|11=1234567|21=1|38=1000|40=7|44=9.54|54=1|55=0700|60=2015-07-09T01:08:18Z|10=239|8=FIX.4.2|9=145|35=D|34=192|49=GOLDMF|52=20150713-08:35:19.188|56=KGITEST|1=acc in App|11=1234567|21=1|38=1000|40=7|44=9.54|54=1|55=0700|60=2015-07-09T01:08:18Z|10=251|8=FIX.4.2|9=145|35=D|34=193|49=GOLDMF|52=20150713-08:35:22.762|56=KGITEST|1=acc in App|11=1234567|21=1|38=1000|40=7|44=9.54|54=1|55=0700|60=2015-07-09T01:08:18Z|10=244|8=FIX.4.2|9=58|35=0|34=194|49=GOLDMF|52=20150713-08:35:52.232|56=KGITEST|10=025|8=FIX.4.2|9=58|35=0|34=195|49=GOLDMF|52=20150713-08:36:22.264|56=KGITEST|10=029|8=FIX.4.2|9=58|35=0|34=196|49=GOLDMF|52=20150713-08:36:52.296|56=KGITEST|10=038|8=FIX.4.2|9=58|35=0|34=197|49=GOLDMF|52=20150713-08:37:22.328|56=KGITEST|10=033|8=FIX.4.2|9=58|35=0|34=198|49=GOLDMF|52=20150713-08:37:52.360|56=KGITEST|10=033|8=FIX.4.2|9=58|35=0|34=199|49=GOLDMF|52=20150713-08:38:22.392|56=KGITEST|10=037|8=FIX.4.2|9=58|35=0|34=200|49=GOLDMF|52=20150713-08:38:52.425|56=KGITEST|10=020|8=FIX.4.2|9=58|35=0|34=201|49=GOLDMF|52=20150713-08:39:22.457|56=KGITEST|10=024|8=FIX.4.2|9=58|35=0|34=202|49=GOLDMF|52=20150713-08:39:52.490|56=KGITEST|10=025|8=FIX.4.2|9=58|35=0|34=203|49=GOLDMF|52=20150713-08:40:22.522|56=KGITEST|10=011|8=FIX.4.2|9=58|35=0|34=204|49=GOLDMF|52=20150713-08:40:52.554|56=KGITEST|10=020|8=FIX.4.2|9=58|35=0|34=205|49=GOLDMF|52=20150713-08:41:22.587|56=KGITEST|10=025|8=FIX.4.2|9=58|35=0|34=206|49=GOLDMF|52=20150713-08:41:52.619|56=KGITEST|10=025|8=FIX.4.2|9=58|35=0|34=207|49=GOLDMF|52=20150713-08:42:22.652|56=KGITEST|10=021|8=FIX.4.2|9=58|35=0|34=208|49=GOLDMF|52=20150713-08:42:52.684|56=KGITEST|10=030|8=FIX.4.2|9=58|35=0|34=209|49=GOLDMF|52=20150713-08:43:22.716|56=KGITEST|10=025|8=FIX.4.2|9=58|35=0|34=210|49=GOLDMF|52=20150713-08:43:52.748|56=KGITEST|10=025|8=FIX.4.2|9=58|35=0|34=211|49=GOLDMF|52=20150713-08:44:22.781|56=KGITEST|10=021|8=FIX.4.2|9=58|35=0|34=212|49=GOLDMF|52=20150713-08:44:52.813|56=KGITEST|10=021|8=FIX.4.2|9=58|35=0|34=213|49=GOLDMF|52=20150713-08:45:22.818|56=KGITEST|10=025|8=FIX.4.2|9=58|35=0|34=214|49=GOLDMF|52=20150713-08:45:52.819|56=KGITEST|10=030|8=FIX.4.2|9=58|35=0|34=215|49=GOLDMF|52=20150713-08:46:22.820|56=KGITEST|10=021|8=FIX.4.2|9=58|35=0|34=216|49=GOLDMF|52=20150713-08:46:52.820|56=KGITEST|10=025|8=FIX.4.2|9=58|35=0|34=217|49=GOLDMF|52=20150713-08:47:22.821|56=KGITEST|10=025|8=FIX.4.2|9=58|35=0|34=218|49=GOLDMF|52=20150713-08:47:52.821|56=KGITEST|10=029|8=FIX.4.2|9=58|35=0|34=219|49=GOLDMF|52=20150713-08:48:22.822|56=KGITEST|10=029|8=FIX.4.2|9=58|35=0|34=220|49=GOLDMF|52=20150713-08:48:52.823|56=KGITEST|10=025|8=FIX.4.2|9=58|35=0|34=221|49=GOLDMF|52=20150713-08:49:22.823|56=KGITEST|10=024|8=FIX.4.2|9=58|35=0|34=222|49=GOLDMF|52=20150713-08:49:52.823|56=KGITEST|10=028|8=FIX.4.2|9=58|35=0|34=223|49=GOLDMF|52=20150713-08:50:22.824|56=KGITEST|10=019|8=FIX.4.2|9=58|35=0|34=224|49=GOLDMF|52=20150713-08:50:52.029|56=KGITEST|10=020|8=FIX.4.2|9=58|35=0|34=225|49=GOLDMF|52=20150713-08:51:22.061|56=KGITEST|10=015|8=FIX.4.2|9=58|35=0|34=226|49=GOLDMF|52=20150713-08:51:52.093|56=KGITEST|10=024|8=FIX.4.2|9=58|35=0|34=227|49=GOLDMF|52=20150713-08:52:22.125|56=KGITEST|10=019|8=FIX.4.2|9=58|35=0|34=228|49=GOLDMF|52=20150713-08:52:52.158|56=KGITEST|10=029|8=FIX.4.2|9=58|35=0|34=229|49=GOLDMF|52=20150713-08:53:22.190|56=KGITEST|10=024|8=FIX.4.2|9=58|35=0|34=230|49=GOLDMF|52=20150713-08:53:52.205|56=KGITEST|10=016|8=FIX.4.2|9=58|35=0|34=231|49=GOLDMF|52=20150713-08:54:22.213|56=KGITEST|10=014|8=FIX.4.2|9=58|35=0|34=232|49=GOLDMF|52=20150713-08:54:52.219|56=KGITEST|10=024|8=FIX.4.2|9=58|35=0|34=233|49=GOLDMF|52=20150713-08:55:22.226|56=KGITEST|10=021|8=FIX.4.2|9=70|35=A|34=234|49=GOLDMF|52=20150713-08:55:46.341|56=KGITEST|98=0|108=30|10=062|8=FIX.4.2|9=70|35=A|34=235|49=GOLDMF|52=20150713-08:56:36.586|56=KGITEST|98=0|108=30|10=074|8=FIX.4.2|9=70|35=A|34=236|49=GOLDMF|52=20150713-09:10:09.854|56=KGITEST|98=0|108=30|10=064|8=FIX.4.2|9=58|35=5|34=237|49=GOLDMF|52=20150713-09:10:12.853|56=KGITEST|10=027|8=FIX.4.2|9=70|35=A|34=238|49=GOLDMF|52=20150713-09:10:49.730|56=KGITEST|98=0|108=30|10=063|8=FIX.4.2|9=70|35=A|34=239|49=GOLDMF|52=20150713-09:10:57.243|56=KGITEST|98=0|108=30|10=062|8=FIX.4.2|9=70|35=A|34=240|49=GOLDMF|52=20150713-09:11:00.976|56=KGITEST|98=0|108=30|10=056|8=FIX.4.2|9=58|35=5|34=241|49=GOLDMF|52=20150713-09:11:03.974|56=KGITEST|10=027|8=FIX.4.2|9=70|35=A|34=242|49=GOLDMF|52=20150713-09:12:32.909|56=KGITEST|98=0|108=30|10=060|8=FIX.4.2|9=58|35=0|34=243|49=GOLDMF|52=20150713-09:13:09.684|56=KGITEST|10=030|8=FIX.4.2|9=80|35=0|34=244|49=GOLDMF|52=20150713-09:15:08.913|56=KGITEST|112=20150713-09:13:49|10=086|8=FIX.4.2|9=70|35=A|34=245|49=GOLDMF|52=20150713-09:15:11.572|56=KGITEST|98=0|108=30|10=059|8=FIX.4.2|9=70|35=A|34=246|49=GOLDMF|52=20150713-09:17:32.588|56=KGITEST|98=0|108=30|10=072|8=FIX.4.2|9=69|35=2|34=247|49=GOLDMF|52=20150713-09:17:33.201|56=KGITEST|7=253|16=0|10=252|8=FIX.4.2|9=70|35=A|34=248|49=GOLDMF|52=20150713-09:17:38.697|56=KGITEST|98=0|108=30|10=081|8=FIX.4.2|9=70|35=A|34=249|49=GOLDMF|52=20150713-09:17:41.366|56=KGITEST|98=0|108=30|10=069|8=FIX.4.2|9=145|35=D|34=250|49=GOLDMF|52=20150713-09:17:46.155|56=KGITEST|1=acc in App|11=1234567|21=1|38=1000|40=7|44=9.54|54=1|55=0700|60=2015-07-09T01:08:18Z|10=241|8=FIX.4.2|9=146|35=D|34=251|49=GOLDMF|52=20150713-09:17:46.155|56=KGITEST|1=acc in Main|11=1234567|21=1|38=1000|40=7|44=9,54|54=1|55=0700|60=2015-07-09T01:08:18Z|10=085|8=FIX.4.2|9=58|35=0|34=252|49=GOLDMF|52=20150713-09:18:16.213|56=KGITEST|10=021|8=FIX.4.2|9=58|35=0|34=253|49=GOLDMF|52=20150713-09:18:46.214|56=KGITEST|10=026|8=FIX.4.2|9=58|35=0|34=254|49=GOLDMF|52=20150713-09:19:16.214|56=KGITEST|10=025|8=FIX.4.2|9=58|35=0|34=255|49=GOLDMF|52=20150713-09:19:46.215|56=KGITEST|10=030|8=FIX.4.2|9=58|35=0|34=256|49=GOLDMF|52=20150713-09:20:16.215|56=KGITEST|10=020|8=FIX.4.2|9=58|35=0|34=257|49=GOLDMF|52=20150713-09:20:46.217|56=KGITEST|10=026|8=FIX.4.2|9=58|35=0|34=258|49=GOLDMF|52=20150713-09:21:16.217|56=KGITEST|10=025|8=FIX.4.2|9=58|35=0|34=259|49=GOLDMF|52=20150713-09:21:46.217|56=KGITEST|10=029|8=FIX.4.2|9=58|35=0|34=260|49=GOLDMF|52=20150713-09:22:16.218|56=KGITEST|10=020|8=FIX.4.2|9=58|35=0|34=261|49=GOLDMF|52=20150713-09:22:46.219|56=KGITEST|10=025|8=FIX.4.2|9=58|35=0|34=262|49=GOLDMF|52=20150713-09:23:16.219|56=KGITEST|10=024|8=FIX.4.2|9=70|35=A|34=263|49=GOLDMF|52=20150713-09:24:11.199|56=KGITEST|98=0|108=30|10=064|8=FIX.4.2|9=139|35=D|34=264|49=GOLDMF|52=20150713-09:24:14.443|56=KGITEST|1=9987|11=1234567|21=1|38=1000|40=7|44=9,54|54=1|55=0700|60=2015-07-09T01:08:18Z|10=114|8=FIX.4.2|9=139|35=D|34=265|49=GOLDMF|52=20150713-09:24:19.222|56=KGITEST|1=9987|11=1234567|21=1|38=1000|40=7|44=9,54|54=1|55=0700|60=2015-07-09T01:08:18Z|10=115|8=FIX.4.2|9=58|35=0|34=266|49=GOLDMF|52=20150713-09:24:49.235|56=KGITEST|10=033|8=FIX.4.2|9=58|35=0|34=267|49=GOLDMF|52=20150713-09:25:19.268|56=KGITEST|10=038|8=FIX.4.2|9=145|35=D|34=268|49=GOLDMF|52=20150713-09:25:21.633|56=KGITEST|1=ACCOUNTPHP|11=1234567|21=1|38=1000|40=7|44=9,54|54=1|55=0700|60=2015-07-09T01:08:18Z|10=135|8=FIX.4.2|9=145|35=D|34=269|49=GOLDMF|52=20150713-09:25:24.728|56=KGITEST|1=ACCOUNTPHP|11=1234567|21=1|38=1000|40=7|44=9,54|54=1|55=0700|60=2015-07-09T01:08:18Z|10=144|8=FIX.4.2|9=58|35=0|34=270|49=GOLDMF|52=20150713-09:25:54.305|56=KGITEST|10=023|8=FIX.4.2|9=58|35=0|34=271|49=GOLDMF|52=20150713-09:26:24.337|56=KGITEST|10=027|8=FIX.4.2|9=58|35=0|34=272|49=GOLDMF|52=20150713-09:26:54.370|56=KGITEST|10=028|8=FIX.4.2|9=58|35=0|34=273|49=GOLDMF|52=20150713-09:27:24.403|56=KGITEST|10=024|8=FIX.4.2|9=58|35=0|34=274|49=GOLDMF|52=20150713-09:27:54.434|56=KGITEST|10=032|8=FIX.4.2|9=58|35=0|34=275|49=GOLDMF|52=20150713-09:28:24.467|56=KGITEST|10=037|8=FIX.4.2|9=58|35=0|34=276|49=GOLDMF|52=20150713-09:28:54.499|56=KGITEST|10=046|8=FIX.4.2|9=58|35=0|34=277|49=GOLDMF|52=20150713-09:29:24.522|56=KGITEST|10=032|8=FIX.4.2|9=58|35=0|34=278|49=GOLDMF|52=20150713-09:29:54.531|56=KGITEST|10=036|8=FIX.4.2|9=58|35=0|34=279|49=GOLDMF|52=20150713-09:30:24.539|56=KGITEST|10=034|8=FIX.4.2|9=58|35=0|34=280|49=GOLDMF|52=20150713-09:30:54.546|56=KGITEST|10=027|8=FIX.4.2|9=58|35=0|34=281|49=GOLDMF|52=20150713-09:31:24.554|56=KGITEST|10=025|8=FIX.4.2|9=58|35=0|34=282|49=GOLDMF|52=20150713-09:31:54.562|56=KGITEST|10=028|8=FIX.4.2|9=58|35=0|34=283|49=GOLDMF|52=20150713-09:32:24.572|56=KGITEST|10=028|8=FIX.4.2|9=58|35=0|34=284|49=GOLDMF|52=20150713-09:32:54.581|56=KGITEST|10=032|8=FIX.4.2|9=58|35=0|34=285|49=GOLDMF|52=20150713-09:33:24.591|56=KGITEST|10=032|8=FIX.4.2|9=58|35=0|34=286|49=GOLDMF|52=20150713-09:33:54.612|56=KGITEST|10=030|8=FIX.4.2|9=145|35=D|34=287|49=GOLDMF|52=20150713-09:33:55.205|56=KGITEST|1=ACCOUNTPHP|11=1234567|21=1|38=1000|40=7|44=9,54|54=1|55=0700|60=2015-07-09T01:08:18Z|10=137|8=FIX.4.2|9=145|35=D|34=288|49=GOLDMF|52=20150713-09:33:57.701|56=KGITEST|1=ACCOUNTPHP|11=1234567|21=1|38=1000|40=7|44=9,54|54=1|55=0700|60=2015-07-09T01:08:18Z|10=141|8=FIX.4.2|9=145|35=D|34=289|49=GOLDMF|52=20150713-09:33:59.060|56=KGITEST|1=ACCOUNTPHP|11=1234567|21=1|38=1000|40=7|44=9,54|54=1|55=0700|60=2015-07-09T01:08:18Z|10=142|8=FIX.4.2|9=145|35=D|34=290|49=GOLDMF|52=20150713-09:34:00.280|56=KGITEST|1=ACCOUNTPHP|11=1234567|21=1|38=1000|40=7|44=9,54|54=1|55=0700|60=2015-07-09T01:08:18Z|10=125|8=FIX.4.2|9=145|35=D|34=291|49=GOLDMF|52=20150713-09:34:01.609|56=KGITEST|1=ACCOUNTPHP|11=1234567|21=1|38=1000|40=7|44=9,54|54=1|55=0700|60=2015-07-09T01:08:18Z|10=132|8=FIX.4.2|9=58|35=0|34=292|49=GOLDMF|52=20150713-09:34:31.650|56=KGITEST|10=025|8=FIX.4.2|9=58|35=0|34=293|49=GOLDMF|52=20150713-09:35:01.658|56=KGITEST|10=032|8=FIX.4.2|9=58|35=0|34=294|49=GOLDMF|52=20150713-09:35:31.658|56=KGITEST|10=036|8=FIX.4.2|9=58|35=0|34=295|49=GOLDMF|52=20150713-09:36:01.659|56=KGITEST|10=036|8=FIX.4.2|9=58|35=0|34=296|49=GOLDMF|52=20150713-09:36:31.660|56=KGITEST|10=032|8=FIX.4.2|9=58|35=0|34=297|49=GOLDMF|52=20150713-09:37:01.660|56=KGITEST|10=031|8=FIX.4.2|9=58|35=0|34=298|49=GOLDMF|52=20150713-09:37:31.660|56=KGITEST|10=035|8=FIX.4.2|9=58|35=0|34=299|49=GOLDMF|52=20150713-09:38:01.661|56=KGITEST|10=035|8=FIX.4.2|9=58|35=0|34=300|49=GOLDMF|52=20150713-09:38:31.662|56=KGITEST|10=022|8=FIX.4.2|9=58|35=0|34=301|49=GOLDMF|52=20150713-09:39:01.662|56=KGITEST|10=021|8=FIX.4.2|9=145|35=D|34=302|49=GOLDMF|52=20150713-09:39:19.159|56=KGITEST|1=ACCOUNTPHP|11=1234567|21=1|38=1000|40=7|44=9,54|54=1|55=0700|60=2015-07-09T01:08:18Z|10=139|8=FIX.4.2|9=145|35=D|34=303|49=GOLDMF|52=20150713-09:39:20.892|56=KGITEST|1=ACCOUNTPHP|11=1234567|21=1|38=1000|40=7|44=9,54|54=1|55=0700|60=2015-07-09T01:08:18Z|10=136|8=FIX.4.2|9=145|35=D|34=304|49=GOLDMF|52=20150713-09:39:24.807|56=KGITEST|1=ACCOUNTPHP|11=1234567|21=1|38=1000|40=7|44=9,54|54=1|55=0700|60=2015-07-09T01:08:18Z|10=137|8=FIX.4.2|9=58|35=0|34=305|49=GOLDMF|52=20150713-09:39:54.855|56=KGITEST|10=037|8=FIX.4.2|9=58|35=0|34=306|49=GOLDMF|52=20150713-09:40:24.021|56=KGITEST|10=012|8=FIX.4.2|9=58|35=0|34=307|49=GOLDMF|52=20150713-09:40:54.054|56=KGITEST|10=022|8=FIX.4.2|9=58|35=0|34=308|49=GOLDMF|52=20150713-09:41:24.086|56=KGITEST|10=026|8=FIX.4.2|9=58|35=0|34=309|49=GOLDMF|52=20150713-09:41:54.119|56=KGITEST|10=027|8=FIX.4.2|9=58|35=0|34=310|49=GOLDMF|52=20150713-09:42:24.152|56=KGITEST|10=014|8=FIX.4.2|9=58|35=0|34=311|49=GOLDMF|52=20150713-09:42:54.185|56=KGITEST|10=024|8=FIX.4.2|9=58|35=0|34=312|49=GOLDMF|52=20150713-09:43:24.218|56=KGITEST|10=020|8=FIX.4.2|9=58|35=0|34=313|49=GOLDMF|52=20150713-09:43:54.249|56=KGITEST|10=028|8=FIX.4.2|9=58|35=0|34=314|49=GOLDMF|52=20150713-09:44:24.259|56=KGITEST|10=028|8=FIX.4.2|9=58|35=0|34=315|49=GOLDMF|52=20150713-09:44:54.268|56=KGITEST|10=032|8=FIX.4.2|9=58|35=0|34=316|49=GOLDMF|52=20150713-09:45:24.279|56=KGITEST|10=033|8=FIX.4.2|9=58|35=0|34=317|49=GOLDMF|52=20150713-09:45:54.289|56=KGITEST|10=038|8=FIX.4.2|9=58|35=0|34=318|49=GOLDMF|52=20150713-09:46:24.314|56=KGITEST|10=026|8=FIX.4.2|9=58|35=0|34=319|49=GOLDMF|52=20150713-09:46:54.345|56=KGITEST|10=034|8=FIX.4.2|9=58|35=0|34=320|49=GOLDMF|52=20150713-09:47:24.378|56=KGITEST|10=030|8=FIX.4.2|9=58|35=0|34=321|49=GOLDMF|52=20150713-09:47:54.410|56=KGITEST|10=021|8=FIX.4.2|9=58|35=0|34=322|49=GOLDMF|52=20150713-09:48:24.442|56=KGITEST|10=025|8=FIX.4.2|9=58|35=0|34=323|49=GOLDMF|52=20150713-09:48:54.474|56=KGITEST|10=034|8=FIX.4.2|9=58|35=0|34=324|49=GOLDMF|52=20150713-09:49:24.506|56=KGITEST|10=029|8=FIX.4.2|9=58|35=0|34=325|49=GOLDMF|52=20150713-09:49:54.539|56=KGITEST|10=039|8=FIX.4.2|9=58|35=0|34=326|49=GOLDMF|52=20150713-09:50:24.572|56=KGITEST|10=026|8=FIX.4.2|9=58|35=0|34=327|49=GOLDMF|52=20150713-09:50:54.604|56=KGITEST|10=026|8=FIX.4.2|9=58|35=0|34=328|49=GOLDMF|52=20150713-09:51:24.636|56=KGITEST|10=030|8=FIX.4.2|9=58|35=0|34=329|49=GOLDMF|52=20150713-09:51:54.668|56=KGITEST|10=039|8=FIX.4.2|9=58|35=0|34=330|49=GOLDMF|52=20150713-09:52:24.701|56=KGITEST|10=017|8=FIX.4.2|9=58|35=0|34=331|49=GOLDMF|52=20150713-09:52:54.733|56=KGITEST|10=026|8=FIX.4.2|9=58|35=0|34=332|49=GOLDMF|52=20150713-09:53:24.740|56=KGITEST|10=023|8=FIX.4.2|9=58|35=0|34=333|49=GOLDMF|52=20150713-09:53:54.747|56=KGITEST|10=034|8=FIX.4.2|9=58|35=0|34=334|49=GOLDMF|52=20150713-09:54:24.754|56=KGITEST|10=031|8=FIX.4.2|9=58|35=0|34=335|49=GOLDMF|52=20150713-09:54:54.768|56=KGITEST|10=040|8=FIX.4.2|9=58|35=0|34=336|49=GOLDMF|52=20150713-09:55:24.799|56=KGITEST|10=043|8=FIX.4.2|9=58|35=0|34=337|49=GOLDMF|52=20150713-09:55:54.831|56=KGITEST|10=034|8=FIX.4.2|9=58|35=0|34=338|49=GOLDMF|52=20150713-09:56:24.855|56=KGITEST|10=039|8=FIX.4.2|9=58|35=0|34=339|49=GOLDMF|52=20150713-09:56:54.863|56=KGITEST|10=042|8=FIX.4.2|9=58|35=0|34=340|49=GOLDMF|52=20150713-09:57:24.871|56=KGITEST|10=031|8=FIX.4.2|9=58|35=0|34=341|49=GOLDMF|52=20150713-09:57:54.872|56=KGITEST|10=036|8=FIX.4.2|9=58|35=0|34=342|49=GOLDMF|52=20150713-09:58:24.872|56=KGITEST|10=035|8=FIX.4.2|9=58|35=0|34=343|49=GOLDMF|52=20150713-09:58:54.873|56=KGITEST|10=040|8=FIX.4.2|9=58|35=0|34=344|49=GOLDMF|52=20150713-09:59:24.873|56=KGITEST|10=039|8=FIX.4.2|9=58|35=0|34=345|49=GOLDMF|52=20150713-09:59:54.874|56=KGITEST|10=044|8=FIX.4.2|9=58|35=0|34=346|49=GOLDMF|52=20150713-10:00:24.016|56=KGITEST|10=008|8=FIX.4.2|9=58|35=0|34=347|49=GOLDMF|52=20150713-10:00:54.048|56=KGITEST|10=017|