8=FIX.4.2|9=70|35=A|34=1|49=CLIENT1|52=20150711-07:22:52.689|56=EXECUTOR|98=0|108=30|10=100|8=FIX.4.2|9=58|35=5|34=2|49=CLIENT1|52=20150711-07:22:52.689|56=EXECUTOR|10=070|8=FIX.4.2|9=70|35=A|34=3|49=CLIENT1|52=20150711-07:22:52.689|56=EXECUTOR|98=0|108=30|10=102|8=FIX.4.2|9=70|35=A|34=4|49=CLIENT1|52=20150711-07:22:54.691|56=EXECUTOR|98=0|108=30|10=098|8=FIX.4.2|9=70|35=A|34=5|49=CLIENT1|52=20150711-07:22:56.693|56=EXECUTOR|98=0|108=30|10=103|8=FIX.4.2|9=70|35=A|34=6|49=CLIENT1|52=20150711-07:22:58.696|56=EXECUTOR|98=0|108=30|10=109|8=FIX.4.2|9=58|35=5|34=7|49=CLIENT1|52=20150711-07:22:58.696|56=EXECUTOR|10=079|8=FIX.4.2|9=70|35=A|34=8|49=CLIENT1|52=20150711-07:22:58.696|56=EXECUTOR|98=0|108=30|10=111|8=FIX.4.2|9=70|35=A|34=9|49=CLIENT1|52=20150711-07:23:00.698|56=EXECUTOR|98=0|108=30|10=102|8=FIX.4.2|9=71|35=A|34=10|49=CLIENT1|52=20150711-07:23:02.700|56=EXECUTOR|98=0|108=30|10=129|8=FIX.4.2|9=71|35=A|34=11|49=CLIENT1|52=20150711-07:23:04.703|56=EXECUTOR|98=0|108=30|10=135|8=FIX.4.2|9=59|35=5|34=12|49=CLIENT1|52=20150711-07:23:04.703|56=EXECUTOR|10=105|8=FIX.4.2|9=71|35=A|34=13|49=CLIENT1|52=20150711-07:23:04.703|56=EXECUTOR|98=0|108=30|10=137|8=FIX.4.2|9=71|35=A|34=14|49=CLIENT1|52=20150711-07:23:06.705|56=EXECUTOR|98=0|108=30|10=142|8=FIX.4.2|9=71|35=A|34=15|49=CLIENT1|52=20150711-07:23:08.708|56=EXECUTOR|98=0|108=30|10=148|8=FIX.4.2|9=71|35=A|34=16|49=CLIENT1|52=20150711-07:23:10.710|56=EXECUTOR|98=0|108=30|10=135|8=FIX.4.2|9=59|35=5|34=17|49=CLIENT1|52=20150711-07:23:10.710|56=EXECUTOR|10=105|8=FIX.4.2|9=71|35=A|34=18|49=CLIENT1|52=20150711-07:23:10.710|56=EXECUTOR|98=0|108=30|10=137|8=FIX.4.2|9=71|35=A|34=19|49=CLIENT1|52=20150711-07:23:16.921|56=EXECUTOR|98=0|108=30|10=148|8=FIX.4.2|9=68|35=2|34=20|49=CLIENT1|52=20150711-07:23:16.921|56=EXECUTOR|7=5|16=0|10=233|8=FIX.4.2|9=59|35=0|34=21|49=CLIENT1|52=20150711-07:23:46.952|56=EXECUTOR|10=112|8=FIX.4.2|9=59|35=0|34=22|49=CLIENT1|52=20150711-07:24:16.982|56=EXECUTOR|10=114|8=FIX.4.2|9=59|35=0|34=23|49=CLIENT1|52=20150711-07:24:46.012|56=EXECUTOR|10=102|8=FIX.4.2|9=59|35=0|34=24|49=CLIENT1|52=20150711-07:25:16.043|56=EXECUTOR|10=105|8=FIX.4.2|9=59|35=0|34=25|49=CLIENT1|52=20150711-07:25:46.074|56=EXECUTOR|10=113|8=FIX.4.2|9=59|35=0|34=26|49=CLIENT1|52=20150711-07:26:16.105|56=EXECUTOR|10=107|8=FIX.4.2|9=59|35=0|34=27|49=CLIENT1|52=20150711-07:26:46.134|56=EXECUTOR|10=113|8=FIX.4.2|9=71|35=A|34=28|49=CLIENT1|52=20150711-07:29:19.387|56=EXECUTOR|98=0|108=30|10=163|8=FIX.4.2|9=71|35=A|34=29|49=CLIENT1|52=20150711-07:29:21.389|56=EXECUTOR|98=0|108=30|10=159|8=FIX.4.2|9=71|35=A|34=30|49=CLIENT1|52=20150711-07:29:23.268|56=EXECUTOR|98=0|108=30|10=149|8=FIX.4.2|9=71|35=A|34=31|49=CLIENT1|52=20150711-07:29:25.270|56=EXECUTOR|98=0|108=30|10=145|8=FIX.4.2|9=71|35=A|34=32|49=CLIENT1|52=20150711-07:29:27.565|56=EXECUTOR|98=0|108=30|10=155|8=FIX.4.2|9=71|35=A|34=33|49=CLIENT1|52=20150711-07:30:59.866|56=EXECUTOR|98=0|108=30|10=157|8=FIX.4.2|9=71|35=A|34=34|49=CLIENT1|52=20150711-07:31:12.252|56=EXECUTOR|98=0|108=30|10=137|8=FIX.4.2|9=71|35=A|34=35|49=CLIENT1|52=20150711-07:35:55.241|56=EXECUTOR|98=0|108=30|10=147|8=FIX.4.2|9=71|35=A|34=36|49=CLIENT1|52=20150711-07:36:22.948|56=EXECUTOR|98=0|108=30|10=157|8=FIX.4.2|9=71|35=A|34=37|49=CLIENT1|52=20150711-07:38:09.806|56=EXECUTOR|98=0|108=30|10=158|8=FIX.4.2|9=71|35=A|34=38|49=CLIENT1|52=20150711-07:38:37.833|56=EXECUTOR|98=0|108=30|10=160|8=FIX.4.2|9=71|35=A|34=39|49=CLIENT1|52=20150711-07:38:38.717|56=EXECUTOR|98=0|108=30|10=163|8=FIX.4.2|9=71|35=A|34=40|49=CLIENT1|52=20150711-07:38:43.318|56=EXECUTOR|98=0|108=30|10=148|8=FIX.4.2|9=71|35=A|34=41|49=CLIENT1|52=20150711-07:38:51.326|56=EXECUTOR|98=0|108=30|10=147|8=FIX.4.2|9=71|35=A|34=42|49=CLIENT1|52=20150711-07:38:53.328|56=EXECUTOR|98=0|108=30|10=152|8=FIX.4.2|9=71|35=A|34=43|49=CLIENT1|52=20150711-07:38:55.330|56=EXECUTOR|98=0|108=30|10=148|8=FIX.4.2|9=71|35=A|34=44|49=CLIENT1|52=20150711-07:40:57.253|56=EXECUTOR|98=0|108=30|10=148|8=FIX.4.2|9=71|35=A|34=45|49=CLIENT1|52=20150711-07:41:19.275|56=EXECUTOR|98=0|108=30|10=152|8=FIX.4.2|9=71|35=A|34=46|49=CLIENT1|52=20150711-07:41:21.278|56=EXECUTOR|98=0|108=30|10=149|8=FIX.4.2|9=71|35=A|34=47|49=CLIENT1|52=20150711-07:41:26.840|56=EXECUTOR|98=0|108=30|10=150|8=FIX.4.2|9=59|35=0|34=48|49=CLIENT1|52=20150711-07:41:56.869|56=EXECUTOR|10=129|8=FIX.4.2|9=59|35=0|34=49|49=CLIENT1|52=20150711-07:42:26.899|56=EXECUTOR|10=131|