8=FIX.4.2|9=70|35=A|34=1|49=CLIENT1|52=20150715-03:22:03.399|56=EXECUTOR|98=0|108=30|10=094|8=FIX.4.2|9=58|35=0|34=2|49=CLIENT1|52=20150715-03:22:33.430|56=EXECUTOR|10=048|8=FIX.4.2|9=58|35=0|34=3|49=CLIENT1|52=20150715-03:23:03.461|56=EXECUTOR|10=051|8=FIX.4.2|9=58|35=0|34=4|49=CLIENT1|52=20150715-03:23:33.491|56=EXECUTOR|10=058|8=FIX.4.2|9=58|35=0|34=5|49=CLIENT1|52=20150715-03:24:03.522|56=EXECUTOR|10=052|8=FIX.4.2|9=58|35=0|34=6|49=CLIENT1|52=20150715-03:24:33.543|56=EXECUTOR|10=059|8=FIX.4.2|9=58|35=0|34=7|49=CLIENT1|52=20150715-03:25:03.574|56=EXECUTOR|10=062|8=FIX.4.2|9=58|35=0|34=8|49=CLIENT1|52=20150715-03:25:33.605|56=EXECUTOR|10=061|8=FIX.4.2|9=58|35=0|34=9|49=CLIENT1|52=20150715-03:26:03.636|56=EXECUTOR|10=064|8=FIX.4.2|9=59|35=0|34=10|49=CLIENT1|52=20150715-03:26:33.667|56=EXECUTOR|10=112|8=FIX.4.2|9=59|35=0|34=11|49=CLIENT1|52=20150715-03:27:03.698|56=EXECUTOR|10=115|8=FIX.4.2|9=59|35=0|34=12|49=CLIENT1|52=20150715-03:27:33.729|56=EXECUTOR|10=114|8=FIX.4.2|9=59|35=0|34=13|49=CLIENT1|52=20150715-03:28:03.759|56=EXECUTOR|10=116|8=FIX.4.2|9=59|35=0|34=14|49=CLIENT1|52=20150715-03:28:33.790|56=EXECUTOR|10=115|8=FIX.4.2|9=59|35=0|34=15|49=CLIENT1|52=20150715-03:29:03.821|56=EXECUTOR|10=109|8=FIX.4.2|9=59|35=0|34=16|49=CLIENT1|52=20150715-03:29:33.851|56=EXECUTOR|10=116|8=FIX.4.2|9=59|35=0|34=17|49=CLIENT1|52=20150715-03:30:03.882|56=EXECUTOR|10=110|8=FIX.4.2|9=59|35=0|34=18|49=CLIENT1|52=20150715-03:30:33.913|56=EXECUTOR|10=109|8=FIX.4.2|9=59|35=0|34=19|49=CLIENT1|52=20150715-03:31:03.943|56=EXECUTOR|10=111|8=FIX.4.2|9=59|35=0|34=20|49=CLIENT1|52=20150715-03:31:33.974|56=EXECUTOR|10=110|8=FIX.4.2|9=59|35=0|34=21|49=CLIENT1|52=20150715-03:32:03.003|56=EXECUTOR|10=092|8=FIX.4.2|9=59|35=0|34=22|49=CLIENT1|52=20150715-03:32:33.033|56=EXECUTOR|10=099|8=FIX.4.2|9=59|35=0|34=23|49=CLIENT1|52=20150715-03:33:03.064|56=EXECUTOR|10=102|8=FIX.4.2|9=59|35=0|34=24|49=CLIENT1|52=20150715-03:33:33.094|56=EXECUTOR|10=109|8=FIX.4.2|9=59|35=0|34=25|49=CLIENT1|52=20150715-03:34:03.123|56=EXECUTOR|10=101|8=FIX.4.2|9=59|35=0|34=26|49=CLIENT1|52=20150715-03:34:33.154|56=EXECUTOR|10=109|8=FIX.4.2|9=59|35=0|34=27|49=CLIENT1|52=20150715-03:35:03.185|56=EXECUTOR|10=112|8=FIX.4.2|9=59|35=0|34=28|49=CLIENT1|52=20150715-03:35:33.215|56=EXECUTOR|10=110|8=FIX.4.2|9=59|35=0|34=29|49=CLIENT1|52=20150715-03:36:03.246|56=EXECUTOR|10=113|8=FIX.4.2|9=59|35=0|34=30|49=CLIENT1|52=20150715-03:36:33.276|56=EXECUTOR|10=111|8=FIX.4.2|9=59|35=0|34=31|49=CLIENT1|52=20150715-03:37:03.307|56=EXECUTOR|10=105|8=FIX.4.2|9=59|35=0|34=32|49=CLIENT1|52=20150715-03:37:33.338|56=EXECUTOR|10=113|8=FIX.4.2|9=59|35=0|34=33|49=CLIENT1|52=20150715-03:38:03.368|56=EXECUTOR|10=115|8=FIX.4.2|9=59|35=0|34=34|49=CLIENT1|52=20150715-03:38:33.399|56=EXECUTOR|10=123|8=FIX.4.2|9=59|35=0|34=35|49=CLIENT1|52=20150715-03:39:03.430|56=EXECUTOR|10=108|8=FIX.4.2|9=59|35=0|34=36|49=CLIENT1|52=20150715-03:39:33.460|56=EXECUTOR|10=115|8=FIX.4.2|9=59|35=0|34=37|49=CLIENT1|52=20150715-03:40:03.492|56=EXECUTOR|10=110|8=FIX.4.2|9=59|35=0|34=38|49=CLIENT1|52=20150715-03:40:33.520|56=EXECUTOR|10=106|8=FIX.4.2|9=59|35=0|34=39|49=CLIENT1|52=20150715-03:41:03.551|56=EXECUTOR|10=109|8=FIX.4.2|9=59|35=0|34=40|49=CLIENT1|52=20150715-03:41:33.582|56=EXECUTOR|10=108|8=FIX.4.2|9=59|35=0|34=41|49=CLIENT1|52=20150715-03:42:03.613|56=EXECUTOR|10=102|8=FIX.4.2|9=59|35=0|34=42|49=CLIENT1|52=20150715-03:42:33.644|56=EXECUTOR|10=110|8=FIX.4.2|9=59|35=0|34=43|49=CLIENT1|52=20150715-03:43:03.675|56=EXECUTOR|10=113|8=FIX.4.2|9=59|35=0|34=44|49=CLIENT1|52=20150715-03:43:33.706|56=EXECUTOR|10=112|8=FIX.4.2|9=59|35=0|34=45|49=CLIENT1|52=20150715-03:44:03.730|56=EXECUTOR|10=108|8=FIX.4.2|9=59|35=0|34=46|49=CLIENT1|52=20150715-03:44:33.761|56=EXECUTOR|10=116|8=FIX.4.2|9=59|35=0|34=47|49=CLIENT1|52=20150715-03:45:03.792|56=EXECUTOR|10=119|8=FIX.4.2|9=59|35=0|34=48|49=CLIENT1|52=20150715-03:45:33.823|56=EXECUTOR|10=118|8=FIX.4.2|9=59|35=0|34=49|49=CLIENT1|52=20150715-03:46:03.854|56=EXECUTOR|10=121|8=FIX.4.2|9=59|35=0|34=50|49=CLIENT1|52=20150715-03:46:33.885|56=EXECUTOR|10=120|8=FIX.4.2|9=59|35=0|34=51|49=CLIENT1|52=20150715-03:47:03.916|56=EXECUTOR|10=114|8=FIX.4.2|9=59|35=0|34=52|49=CLIENT1|52=20150715-03:47:33.947|56=EXECUTOR|10=122|8=FIX.4.2|9=59|35=0|34=53|49=CLIENT1|52=20150715-03:48:03.977|56=EXECUTOR|10=124|8=FIX.4.2|9=59|35=0|34=54|49=CLIENT1|52=20150715-03:48:33.007|56=EXECUTOR|10=112|8=FIX.4.2|9=59|35=0|34=55|49=CLIENT1|52=20150715-03:49:03.038|56=EXECUTOR|10=115|8=FIX.4.2|9=59|35=0|34=56|49=CLIENT1|52=20150715-03:49:33.069|56=EXECUTOR|10=123|8=FIX.4.2|9=59|35=0|34=57|49=CLIENT1|52=20150715-03:50:03.099|56=EXECUTOR|10=116|8=FIX.4.2|9=59|35=0|34=58|49=CLIENT1|52=20150715-03:50:33.130|56=EXECUTOR|10=106|8=FIX.4.2|9=59|35=0|34=59|49=CLIENT1|52=20150715-03:51:03.161|56=EXECUTOR|10=109|8=FIX.4.2|9=59|35=0|34=60|49=CLIENT1|52=20150715-03:51:33.190|56=EXECUTOR|10=106|8=FIX.4.2|9=59|35=0|34=61|49=CLIENT1|52=20150715-03:52:03.221|56=EXECUTOR|10=100|8=FIX.4.2|9=59|35=0|34=62|49=CLIENT1|52=20150715-03:52:33.252|56=EXECUTOR|10=108|8=FIX.4.2|9=59|35=0|34=63|49=CLIENT1|52=20150715-03:53:03.283|56=EXECUTOR|10=111|8=FIX.4.2|9=59|35=0|34=64|49=CLIENT1|52=20150715-03:53:33.297|56=EXECUTOR|10=120|8=FIX.4.2|9=59|35=0|34=65|49=CLIENT1|52=20150715-03:54:03.327|56=EXECUTOR|10=113|8=FIX.4.2|9=59|35=0|34=66|49=CLIENT1|52=20150715-03:54:33.358|56=EXECUTOR|10=121|8=FIX.4.2|9=59|35=0|34=67|49=CLIENT1|52=20150715-03:55:03.388|56=EXECUTOR|10=123|8=FIX.4.2|9=59|35=0|34=68|49=CLIENT1|52=20150715-03:55:33.419|56=EXECUTOR|10=122|8=FIX.4.2|9=59|35=0|34=69|49=CLIENT1|52=20150715-03:56:03.450|56=EXECUTOR|10=116|8=FIX.4.2|9=59|35=0|34=70|49=CLIENT1|52=20150715-03:56:33.481|56=EXECUTOR|10=115|8=FIX.4.2|9=59|35=0|34=71|49=CLIENT1|52=20150715-03:57:03.511|56=EXECUTOR|10=108|8=FIX.4.2|9=59|35=0|34=72|49=CLIENT1|52=20150715-03:57:33.542|56=EXECUTOR|10=116|8=FIX.4.2|9=59|35=0|34=73|49=CLIENT1|52=20150715-03:58:03.573|56=EXECUTOR|10=119|8=FIX.4.2|9=59|35=0|34=74|49=CLIENT1|52=20150715-03:58:33.603|56=EXECUTOR|10=117|8=FIX.4.2|9=59|35=0|34=75|49=CLIENT1|52=20150715-03:59:03.634|56=EXECUTOR|10=120|8=FIX.4.2|9=59|35=0|34=76|49=CLIENT1|52=20150715-03:59:33.665|56=EXECUTOR|10=128|8=FIX.4.2|9=59|35=0|34=77|49=CLIENT1|52=20150715-04:00:03.695|56=EXECUTOR|10=116|8=FIX.4.2|9=59|35=0|34=78|49=CLIENT1|52=20150715-04:00:33.725|56=EXECUTOR|10=114|8=FIX.4.2|9=59|35=0|34=79|49=CLIENT1|52=20150715-04:01:03.756|56=EXECUTOR|10=117|8=FIX.4.2|9=59|35=0|34=80|49=CLIENT1|52=20150715-04:01:33.786|56=EXECUTOR|10=115|8=FIX.4.2|9=59|35=0|34=81|49=CLIENT1|52=20150715-04:02:03.817|56=EXECUTOR|10=109|8=FIX.4.2|9=59|35=0|34=82|49=CLIENT1|52=20150715-04:02:33.848|56=EXECUTOR|10=117|8=FIX.4.2|9=59|35=0|34=83|49=CLIENT1|52=20150715-04:03:03.879|56=EXECUTOR|10=120|8=FIX.4.2|9=59|35=0|34=84|49=CLIENT1|52=20150715-04:03:33.902|56=EXECUTOR|10=111|8=FIX.4.2|9=59|35=0|34=85|49=CLIENT1|52=20150715-04:04:03.933|56=EXECUTOR|10=114|8=FIX.4.2|9=59|35=0|34=86|49=CLIENT1|52=20150715-04:04:33.964|56=EXECUTOR|10=122|8=FIX.4.2|9=59|35=0|34=87|49=CLIENT1|52=20150715-04:05:03.995|56=EXECUTOR|10=125|8=FIX.4.2|9=59|35=0|34=88|49=CLIENT1|52=20150715-04:05:33.025|56=EXECUTOR|10=113|8=FIX.4.2|9=59|35=0|34=89|49=CLIENT1|52=20150715-04:06:03.055|56=EXECUTOR|10=115|8=FIX.4.2|9=59|35=0|34=90|49=CLIENT1|52=20150715-04:06:33.086|56=EXECUTOR|10=114|8=FIX.4.2|9=59|35=0|34=91|49=CLIENT1|52=20150715-04:07:03.117|56=EXECUTOR|10=108|8=FIX.4.2|9=59|35=0|34=92|49=CLIENT1|52=20150715-04:07:33.148|56=EXECUTOR|10=116|8=FIX.4.2|9=59|35=0|34=93|49=CLIENT1|52=20150715-04:08:03.179|56=EXECUTOR|10=119|8=FIX.4.2|9=59|35=0|34=94|49=CLIENT1|52=20150715-04:08:33.208|56=EXECUTOR|10=116|8=FIX.4.2|9=59|35=0|34=95|49=CLIENT1|52=20150715-04:09:03.238|56=EXECUTOR|10=118|8=FIX.4.2|9=59|35=0|34=96|49=CLIENT1|52=20150715-04:09:33.269|56=EXECUTOR|10=126|8=FIX.4.2|9=59|35=0|34=97|49=CLIENT1|52=20150715-04:10:03.300|56=EXECUTOR|10=102|8=FIX.4.2|9=59|35=0|34=98|49=CLIENT1|52=20150715-04:10:33.331|56=EXECUTOR|10=110|8=FIX.4.2|9=59|35=0|34=99|49=CLIENT1|52=20150715-04:11:03.362|56=EXECUTOR|10=113|8=FIX.4.2|9=60|35=0|34=100|49=CLIENT1|52=20150715-04:11:33.393|56=EXECUTOR|10=143|8=FIX.4.2|9=60|35=0|34=101|49=CLIENT1|52=20150715-04:12:03.424|56=EXECUTOR|10=137|8=FIX.4.2|9=60|35=0|34=102|49=CLIENT1|52=20150715-04:12:33.456|56=EXECUTOR|10=146|8=FIX.4.2|9=60|35=0|34=103|49=CLIENT1|52=20150715-04:13:03.469|56=EXECUTOR|10=149|8=FIX.4.2|9=60|35=0|34=104|49=CLIENT1|52=20150715-04:13:33.500|56=EXECUTOR|10=139|8=FIX.4.2|9=60|35=0|34=105|49=CLIENT1|52=20150715-04:14:03.530|56=EXECUTOR|10=141|8=FIX.4.2|9=60|35=0|34=106|49=CLIENT1|52=20150715-04:14:33.561|56=EXECUTOR|10=149|8=FIX.4.2|9=60|35=0|34=107|49=CLIENT1|52=20150715-04:15:03.592|56=EXECUTOR|10=152|8=FIX.4.2|9=60|35=0|34=108|49=CLIENT1|52=20150715-04:15:33.622|56=EXECUTOR|10=150|8=FIX.4.2|9=60|35=0|34=109|49=CLIENT1|52=20150715-04:16:03.652|56=EXECUTOR|10=152|8=FIX.4.2|9=60|35=0|34=110|49=CLIENT1|52=20150715-04:16:33.683|56=EXECUTOR|10=151|8=FIX.4.2|9=60|35=0|34=111|49=CLIENT1|52=20150715-04:17:03.714|56=EXECUTOR|10=145|8=FIX.4.2|9=60|35=0|34=112|49=CLIENT1|52=20150715-04:17:33.744|56=EXECUTOR|10=152|8=FIX.4.2|9=60|35=0|34=113|49=CLIENT1|52=20150715-04:18:03.775|56=EXECUTOR|10=155|8=FIX.4.2|9=60|35=0|34=114|49=CLIENT1|52=20150715-04:18:33.806|56=EXECUTOR|10=154|8=FIX.4.2|9=60|35=0|34=115|49=CLIENT1|52=20150715-04:19:03.834|56=EXECUTOR|10=154|8=FIX.4.2|9=60|35=0|34=116|49=CLIENT1|52=20150715-04:19:33.865|56=EXECUTOR|10=162|8=FIX.4.2|9=60|35=0|34=117|49=CLIENT1|52=20150715-04:20:03.896|56=EXECUTOR|10=156|8=FIX.4.2|9=60|35=0|34=118|49=CLIENT1|52=20150715-04:20:33.926|56=EXECUTOR|10=154|8=FIX.4.2|9=60|35=0|34=119|49=CLIENT1|52=20150715-04:21:03.957|56=EXECUTOR|10=157|8=FIX.4.2|9=60|35=0|34=120|49=CLIENT1|52=20150715-04:21:33.987|56=EXECUTOR|10=155|8=FIX.4.2|9=60|35=0|34=121|49=CLIENT1|52=20150715-04:22:03.017|56=EXECUTOR|10=138|8=FIX.4.2|9=60|35=0|34=122|49=CLIENT1|52=20150715-04:22:33.047|56=EXECUTOR|10=145|8=FIX.4.2|9=60|35=0|34=123|49=CLIENT1|52=20150715-04:23:03.075|56=EXECUTOR|10=145|8=FIX.4.2|9=60|35=0|34=124|49=CLIENT1|52=20150715-04:23:33.106|56=EXECUTOR|10=144|8=FIX.4.2|9=60|35=0|34=125|49=CLIENT1|52=20150715-04:24:03.137|56=EXECUTOR|10=147|8=FIX.4.2|9=60|35=0|34=126|49=CLIENT1|52=20150715-04:24:33.168|56=EXECUTOR|10=155|8=FIX.4.2|9=60|35=0|34=127|49=CLIENT1|52=20150715-04:25:03.199|56=EXECUTOR|10=158|8=FIX.4.2|9=60|35=0|34=128|49=CLIENT1|52=20150715-04:25:33.230|56=EXECUTOR|10=148|8=FIX.4.2|9=60|35=0|34=129|49=CLIENT1|52=20150715-04:26:03.262|56=EXECUTOR|10=152|8=FIX.4.2|9=60|35=0|34=130|49=CLIENT1|52=20150715-04:26:33.293|56=EXECUTOR|10=151|8=FIX.4.2|9=60|35=0|34=131|49=CLIENT1|52=20150715-04:27:03.324|56=EXECUTOR|10=145|8=FIX.4.2|9=60|35=0|34=132|49=CLIENT1|52=20150715-04:27:33.355|56=EXECUTOR|10=153|8=FIX.4.2|9=60|35=0|34=133|49=CLIENT1|52=20150715-04:28:03.385|56=EXECUTOR|10=155|8=FIX.4.2|9=60|35=0|34=134|49=CLIENT1|52=20150715-04:28:33.416|56=EXECUTOR|10=154|8=FIX.4.2|9=60|35=0|34=135|49=CLIENT1|52=20150715-04:29:03.447|56=EXECUTOR|10=157|8=FIX.4.2|9=72|35=A|34=136|49=CLIENT1|52=20150715-10:54:40.553|56=EXECUTOR|98=0|108=30|10=197|8=FIX.4.2|9=72|35=A|34=137|49=CLIENT1|52=20150715-11:28:14.361|56=EXECUTOR|98=0|108=30|10=198|8=FIX.4.2|9=72|35=A|34=138|49=CLIENT1|52=20150715-11:28:16.363|56=EXECUTOR|98=0|108=30|10=203|8=FIX.4.2|9=72|35=A|34=139|49=CLIENT1|52=20150715-11:28:18.365|56=EXECUTOR|98=0|108=30|10=208|8=FIX.4.2|9=72|35=A|34=140|49=CLIENT1|52=20150715-11:28:20.367|56=EXECUTOR|98=0|108=30|10=195|8=FIX.4.2|9=72|35=A|34=141|49=CLIENT1|52=20150715-11:28:22.369|56=EXECUTOR|98=0|108=30|10=200|8=FIX.4.2|9=72|35=A|34=142|49=CLIENT1|52=20150715-11:28:24.372|56=EXECUTOR|98=0|108=30|10=197|8=FIX.4.2|9=72|35=A|34=143|49=CLIENT1|52=20150715-11:28:26.374|56=EXECUTOR|98=0|108=30|10=202|8=FIX.4.2|9=72|35=A|34=144|49=CLIENT1|52=20150715-11:28:28.376|56=EXECUTOR|98=0|108=30|10=207|8=FIX.4.2|9=72|35=A|34=145|49=CLIENT1|52=20150715-11:28:30.379|56=EXECUTOR|98=0|108=30|10=204|8=FIX.4.2|9=72|35=A|34=146|49=CLIENT1|52=20150715-11:28:32.381|56=EXECUTOR|98=0|108=30|10=200|8=FIX.4.2|9=72|35=A|34=147|49=CLIENT1|52=20150715-11:28:34.383|56=EXECUTOR|98=0|108=30|10=205|8=FIX.4.2|9=72|35=A|34=148|49=CLIENT1|52=20150715-11:28:36.386|56=EXECUTOR|98=0|108=30|10=211|8=FIX.4.2|9=72|35=A|34=149|49=CLIENT1|52=20150715-11:28:38.388|56=EXECUTOR|98=0|108=30|10=216|8=FIX.4.2|9=72|35=A|34=150|49=CLIENT1|52=20150715-11:28:40.390|56=EXECUTOR|98=0|108=30|10=194|8=FIX.4.2|9=72|35=A|34=151|49=CLIENT1|52=20150715-11:28:42.392|56=EXECUTOR|98=0|108=30|10=199|8=FIX.4.2|9=72|35=A|34=152|49=CLIENT1|52=20150715-11:28:44.395|56=EXECUTOR|98=0|108=30|10=205|8=FIX.4.2|9=72|35=A|34=153|49=CLIENT1|52=20150715-11:28:46.397|56=EXECUTOR|98=0|108=30|10=210|8=FIX.4.2|9=72|35=A|34=154|49=CLIENT1|52=20150715-11:32:16.886|56=EXECUTOR|98=0|108=30|10=206|8=FIX.4.2|9=72|35=A|34=155|49=CLIENT1|52=20150715-11:32:18.889|56=EXECUTOR|98=0|108=30|10=212|8=FIX.4.2|9=72|35=A|34=156|49=CLIENT1|52=20150715-11:32:20.891|56=EXECUTOR|98=0|108=30|10=199|8=FIX.4.2|9=72|35=A|34=157|49=CLIENT1|52=20150715-11:39:03.731|56=EXECUTOR|98=0|108=30|10=201|8=FIX.4.2|9=72|35=A|34=158|49=CLIENT1|52=20150715-11:39:05.734|56=EXECUTOR|98=0|108=30|10=207|8=FIX.4.2|9=72|35=A|34=159|49=CLIENT1|52=20150715-11:39:07.736|56=EXECUTOR|98=0|108=30|10=212|8=FIX.4.2|9=72|35=A|34=160|49=CLIENT1|52=20150715-11:39:09.738|56=EXECUTOR|98=0|108=30|10=208|8=FIX.4.2|9=72|35=A|34=161|49=CLIENT1|52=20150715-11:39:11.740|56=EXECUTOR|98=0|108=30|10=195|8=FIX.4.2|9=72|35=A|34=162|49=CLIENT1|52=20150715-11:39:13.742|56=EXECUTOR|98=0|108=30|10=200|8=FIX.4.2|9=72|35=A|34=163|49=CLIENT1|52=20150715-11:39:15.744|56=EXECUTOR|98=0|108=30|10=205|8=FIX.4.2|9=72|35=A|34=164|49=CLIENT1|52=20150715-11:39:17.746|56=EXECUTOR|98=0|108=30|10=210|8=FIX.4.2|9=72|35=A|34=165|49=CLIENT1|52=20150715-11:39:19.749|56=EXECUTOR|98=0|108=30|10=216|8=FIX.4.2|9=72|35=A|34=166|49=CLIENT1|52=20150715-11:39:21.751|56=EXECUTOR|98=0|108=30|10=203|8=FIX.4.2|9=72|35=A|34=167|49=CLIENT1|52=20150715-11:39:23.753|56=EXECUTOR|98=0|108=30|10=208|8=FIX.4.2|9=72|35=A|34=168|49=CLIENT1|52=20150715-11:39:25.755|56=EXECUTOR|98=0|108=30|10=213|8=FIX.4.2|9=72|35=A|34=169|49=CLIENT1|52=20150715-11:39:27.758|56=EXECUTOR|98=0|108=30|10=219|8=FIX.4.2|9=72|35=A|34=170|49=CLIENT1|52=20150715-11:39:29.760|56=EXECUTOR|98=0|108=30|10=206|8=FIX.4.2|9=72|35=A|34=171|49=CLIENT1|52=20150715-11:39:31.762|56=EXECUTOR|98=0|108=30|10=202|8=FIX.4.2|9=72|35=A|34=172|49=CLIENT1|52=20150715-11:39:33.764|56=EXECUTOR|98=0|108=30|10=207|8=FIX.4.2|9=72|35=A|34=173|49=CLIENT1|52=20150715-11:39:35.766|56=EXECUTOR|98=0|108=30|10=212|8=FIX.4.2|9=72|35=A|34=174|49=CLIENT1|52=20150715-11:39:37.769|56=EXECUTOR|98=0|108=30|10=218|8=FIX.4.2|9=72|35=A|34=175|49=CLIENT1|52=20150715-11:39:39.771|56=EXECUTOR|98=0|108=30|10=214|8=FIX.4.2|9=72|35=A|34=176|49=CLIENT1|52=20150715-11:39:41.773|56=EXECUTOR|98=0|108=30|10=210|8=FIX.4.2|9=72|35=A|34=177|49=CLIENT1|52=20150715-11:39:43.775|56=EXECUTOR|98=0|108=30|10=215|8=FIX.4.2|9=72|35=A|34=178|49=CLIENT1|52=20150715-11:39:45.778|56=EXECUTOR|98=0|108=30|10=221|8=FIX.4.2|9=72|35=A|34=179|49=CLIENT1|52=20150715-11:39:47.780|56=EXECUTOR|98=0|108=30|10=217|8=FIX.4.2|9=72|35=A|34=180|49=CLIENT1|52=20150715-11:39:49.782|56=EXECUTOR|98=0|108=30|10=213|8=FIX.4.2|9=72|35=A|34=181|49=CLIENT1|52=20150715-11:39:51.785|56=EXECUTOR|98=0|108=30|10=210|8=FIX.4.2|9=72|35=A|34=182|49=CLIENT1|52=20150715-11:39:53.787|56=EXECUTOR|98=0|108=30|10=215|8=FIX.4.2|9=72|35=A|34=183|49=CLIENT1|52=20150715-11:39:55.789|56=EXECUTOR|98=0|108=30|10=220|8=FIX.4.2|9=72|35=A|34=184|49=CLIENT1|52=20150715-11:39:57.791|56=EXECUTOR|98=0|108=30|10=216|8=FIX.4.2|9=72|35=A|34=185|49=CLIENT1|52=20150715-11:40:33.355|56=EXECUTOR|98=0|108=30|10=199|8=FIX.4.2|9=72|35=A|34=186|49=CLIENT1|52=20150715-11:40:35.357|56=EXECUTOR|98=0|108=30|10=204|8=FIX.4.2|9=72|35=A|34=187|49=CLIENT1|52=20150715-11:40:37.360|56=EXECUTOR|98=0|108=30|10=201|8=FIX.4.2|9=72|35=A|34=188|49=CLIENT1|52=20150715-11:43:41.040|56=EXECUTOR|98=0|108=30|10=195|8=FIX.4.2|9=72|35=A|34=189|49=CLIENT1|52=20150715-11:43:43.042|56=EXECUTOR|98=0|108=30|10=200|8=FIX.4.2|9=72|35=A|34=190|49=CLIENT1|52=20150715-11:43:45.044|56=EXECUTOR|98=0|108=30|10=196|8=FIX.4.2|9=72|35=A|34=191|49=CLIENT1|52=20150715-11:43:47.047|56=EXECUTOR|98=0|108=30|10=202|8=FIX.4.2|9=72|35=A|34=192|49=CLIENT1|52=20150715-11:43:49.049|56=EXECUTOR|98=0|108=30|10=207|8=FIX.4.2|9=72|35=A|34=193|49=CLIENT1|52=20150715-11:43:51.051|56=EXECUTOR|98=0|108=30|10=194|8=FIX.4.2|9=72|35=A|34=194|49=CLIENT1|52=20150715-11:43:53.053|56=EXECUTOR|98=0|108=30|10=199|8=FIX.4.2|9=72|35=A|34=195|49=CLIENT1|52=20150715-11:43:55.056|56=EXECUTOR|98=0|108=30|10=205|8=FIX.4.2|9=72|35=A|34=196|49=CLIENT1|52=20150715-11:43:57.058|56=EXECUTOR|98=0|108=30|10=210|8=FIX.4.2|9=72|35=A|34=197|49=CLIENT1|52=20150715-11:43:59.060|56=EXECUTOR|98=0|108=30|10=206|8=FIX.4.2|9=72|35=A|34=198|49=CLIENT1|52=20150715-11:44:01.062|56=EXECUTOR|98=0|108=30|10=197|8=FIX.4.2|9=72|35=A|34=199|49=CLIENT1|52=20150715-11:44:03.065|56=EXECUTOR|98=0|108=30|10=203|