8=FIX.4.2|9=70|35=A|34=1|49=CLIENT1|52=20150713-01:28:44.665|56=EXECUTOR|98=0|108=30|10=097|8=FIX.4.2|9=70|35=A|34=2|49=CLIENT1|52=20150713-01:29:44.512|56=EXECUTOR|98=0|108=30|10=090|8=FIX.4.2|9=58|35=5|34=3|49=CLIENT1|52=20150713-01:29:51.519|56=EXECUTOR|10=065|8=FIX.4.2|9=70|35=A|34=4|49=CLIENT1|52=20150713-01:31:49.166|56=EXECUTOR|98=0|108=30|10=095|8=FIX.4.2|9=70|35=A|34=5|49=CLIENT1|52=20150713-01:41:02.995|56=EXECUTOR|98=0|108=30|10=096|8=FIX.4.2|9=70|35=A|34=6|49=CLIENT1|52=20150713-01:44:06.641|56=EXECUTOR|98=0|108=30|10=092|8=FIX.4.2|9=58|35=0|34=7|49=CLIENT1|52=20150713-01:44:36.672|56=EXECUTOR|10=064|8=FIX.4.2|9=58|35=0|34=8|49=CLIENT1|52=20150713-01:45:06.702|56=EXECUTOR|10=057|8=FIX.4.2|9=70|35=A|34=9|49=CLIENT1|52=20150713-01:45:56.030|56=EXECUTOR|98=0|108=30|10=093|8=FIX.4.2|9=71|35=A|34=10|49=CLIENT1|52=20150713-01:46:45.235|56=EXECUTOR|98=0|108=30|10=140|8=FIX.4.2|9=59|35=5|34=11|49=CLIENT1|52=20150713-01:46:46.236|56=EXECUTOR|10=112|8=FIX.4.2|9=71|35=A|34=12|49=CLIENT1|52=20150713-01:48:19.381|56=EXECUTOR|98=0|108=30|10=147|8=FIX.4.2|9=59|35=5|34=13|49=CLIENT1|52=20150713-01:48:23.386|56=EXECUTOR|10=117|8=FIX.4.2|9=71|35=A|34=14|49=CLIENT1|52=20150713-02:08:43.527|56=EXECUTOR|98=0|108=30|10=145|8=FIX.4.2|9=71|35=A|34=15|49=CLIENT1|52=20150713-02:08:48.107|56=EXECUTOR|98=0|108=30|10=145|8=FIX.4.2|9=59|35=0|34=16|49=CLIENT1|52=20150713-02:09:18.138|56=EXECUTOR|10=112|8=FIX.4.2|9=59|35=0|34=17|49=CLIENT1|52=20150713-02:09:48.167|56=EXECUTOR|10=118|8=FIX.4.2|9=59|35=0|34=18|49=CLIENT1|52=20150713-02:10:18.198|56=EXECUTOR|10=112|8=FIX.4.2|9=59|35=0|34=19|49=CLIENT1|52=20150713-02:10:48.229|56=EXECUTOR|10=111|8=FIX.4.2|9=59|35=0|34=20|49=CLIENT1|52=20150713-02:11:18.259|56=EXECUTOR|10=104|8=FIX.4.2|9=59|35=0|34=21|49=CLIENT1|52=20150713-02:11:48.289|56=EXECUTOR|10=111|8=FIX.4.2|9=59|35=0|34=22|49=CLIENT1|52=20150713-02:12:18.320|56=EXECUTOR|10=096|8=FIX.4.2|9=59|35=0|34=23|49=CLIENT1|52=20150713-02:12:48.351|56=EXECUTOR|10=104|8=FIX.4.2|9=59|35=0|34=24|49=CLIENT1|52=20150713-02:13:18.382|56=EXECUTOR|10=107|8=FIX.4.2|9=59|35=0|34=25|49=CLIENT1|52=20150713-02:13:48.412|56=EXECUTOR|10=105|8=FIX.4.2|9=59|35=0|34=26|49=CLIENT1|52=20150713-02:14:18.443|56=EXECUTOR|10=108|8=FIX.4.2|9=59|35=0|34=27|49=CLIENT1|52=20150713-02:14:48.472|56=EXECUTOR|10=114|8=FIX.4.2|9=59|35=0|34=28|49=CLIENT1|52=20150713-02:15:18.502|56=EXECUTOR|10=107|8=FIX.4.2|9=59|35=0|34=29|49=CLIENT1|52=20150713-02:15:48.534|56=EXECUTOR|10=116|8=FIX.4.2|9=59|35=0|34=30|49=CLIENT1|52=20150713-02:16:18.565|56=EXECUTOR|10=110|8=FIX.4.2|9=59|35=0|34=31|49=CLIENT1|52=20150713-02:16:48.596|56=EXECUTOR|10=118|8=FIX.4.2|9=59|35=0|34=32|49=CLIENT1|52=20150713-02:17:18.627|56=EXECUTOR|10=112|8=FIX.4.2|9=59|35=0|34=33|49=CLIENT1|52=20150713-02:17:48.657|56=EXECUTOR|10=119|8=FIX.4.2|9=59|35=0|34=34|49=CLIENT1|52=20150713-02:18:18.688|56=EXECUTOR|10=122|8=FIX.4.2|9=71|35=A|34=35|49=CLIENT1|52=20150713-02:53:32.769|56=EXECUTOR|98=0|108=30|10=154|8=FIX.4.2|9=71|35=A|34=36|49=CLIENT1|52=20150713-02:54:28.227|56=EXECUTOR|98=0|108=30|10=150|8=FIX.4.2|9=59|35=0|34=37|49=CLIENT1|52=20150713-02:55:33.268|56=EXECUTOR|10=117|8=FIX.4.2|9=68|35=0|34=38|49=CLIENT1|52=20150713-02:55:33.268|56=EXECUTOR|112=TEST|10=136|8=FIX.4.2|9=59|35=0|34=39|49=CLIENT1|52=20150713-02:56:03.629|56=EXECUTOR|10=118|