8=FIX.4.2|9=68|35=A|34=1|49=GOLDMF|52=20150711-07:49:42.573|56=KGITEST|98=0|108=30|10=224|8=FIX.4.2|9=56|35=5|34=2|49=GOLDMF|52=20150711-07:49:43.190|56=KGITEST|10=181|8=FIX.4.2|9=68|35=A|34=3|49=GOLDMF|52=20150711-07:49:43.190|56=KGITEST|98=0|108=30|10=222|8=FIX.4.2|9=68|35=A|34=4|49=GOLDMF|52=20150711-07:49:44.574|56=KGITEST|98=0|108=30|10=230|8=FIX.4.2|9=56|35=5|34=5|49=GOLDMF|52=20150711-07:49:45.183|56=KGITEST|10=188|8=FIX.4.2|9=68|35=A|34=6|49=GOLDMF|52=20150711-07:49:45.184|56=KGITEST|98=0|108=30|10=230|8=FIX.4.2|9=68|35=A|34=7|49=GOLDMF|52=20150711-07:49:46.577|56=KGITEST|98=0|108=30|10=238|8=FIX.4.2|9=56|35=5|34=8|49=GOLDMF|52=20150711-07:49:47.186|56=KGITEST|10=196|8=FIX.4.2|9=68|35=A|34=9|49=GOLDMF|52=20150711-07:49:47.187|56=KGITEST|98=0|108=30|10=238|8=FIX.4.2|9=69|35=A|34=10|49=GOLDMF|52=20150711-07:49:48.581|56=KGITEST|98=0|108=30|10=022|8=FIX.4.2|9=69|35=A|34=11|49=GOLDMF|52=20150711-07:50:02.290|56=KGITEST|98=0|108=30|10=002|8=FIX.4.2|9=57|35=5|34=12|49=GOLDMF|52=20150711-07:50:02.899|56=KGITEST|10=234|8=FIX.4.2|9=69|35=A|34=13|49=GOLDMF|52=20150711-07:50:02.899|56=KGITEST|98=0|108=30|10=019|8=FIX.4.2|9=69|35=A|34=14|49=GOLDMF|52=20150711-07:50:04.292|56=KGITEST|98=0|108=30|10=009|8=FIX.4.2|9=57|35=5|34=15|49=GOLDMF|52=20150711-07:50:04.902|56=KGITEST|10=224|8=FIX.4.2|9=69|35=A|34=16|49=GOLDMF|52=20150711-07:50:04.902|56=KGITEST|98=0|108=30|10=009|8=FIX.4.2|9=69|35=A|34=17|49=GOLDMF|52=20150711-07:50:06.295|56=KGITEST|98=0|108=30|10=017|8=FIX.4.2|9=69|35=A|34=18|49=GOLDMF|52=20150711-07:52:20.642|56=KGITEST|98=0|108=30|10=012|8=FIX.4.2|9=57|35=5|34=19|49=GOLDMF|52=20150711-07:52:21.254|56=KGITEST|10=229|8=FIX.4.2|9=69|35=A|34=20|49=GOLDMF|52=20150711-07:52:21.254|56=KGITEST|98=0|108=30|10=005|8=FIX.4.2|9=69|35=A|34=21|49=GOLDMF|52=20150711-07:52:22.644|56=KGITEST|98=0|108=30|10=010|8=FIX.4.2|9=57|35=5|34=22|49=GOLDMF|52=20150711-07:52:23.254|56=KGITEST|10=225|8=FIX.4.2|9=69|35=A|34=23|49=GOLDMF|52=20150711-07:52:23.254|56=KGITEST|98=0|108=30|10=010|8=FIX.4.2|9=69|35=A|34=24|49=GOLDMF|52=20150711-07:52:24.648|56=KGITEST|98=0|108=30|10=019|8=FIX.4.2|9=57|35=5|34=25|49=GOLDMF|52=20150711-07:52:25.257|56=KGITEST|10=233|8=FIX.4.2|9=69|35=A|34=26|49=GOLDMF|52=20150711-07:52:25.257|56=KGITEST|98=0|108=30|10=018|8=FIX.4.2|9=69|35=A|34=27|49=GOLDMF|52=20150711-07:52:26.651|56=KGITEST|98=0|108=30|10=018|8=FIX.4.2|9=66|35=2|34=28|49=GOLDMF|52=20150711-07:52:27.260|56=KGITEST|7=9|16=0|10=104|8=FIX.4.2|9=69|35=A|34=29|49=GOLDMF|52=20150711-07:53:59.710|56=KGITEST|98=0|108=30|10=023|8=FIX.4.2|9=138|35=D|34=30|49=GOLDMF|52=20150711-07:54:03.691|56=KGITEST|1=9987|11=1234567|21=1|38=1000|40=7|44=9.54|54=1|55=0700|60=2015-07-09T01:08:18Z|10=060|